:020000041000EA
:10000000604F003079120010DD0F0010E30F001078
:10001000E90F0010EF0F0010F50F0010FB0F00109C
:1000200000000000000000000000000001100010AF
:1000300007100010000000000D1000101310001039
:10004000191000101F100010251000102B100010A8
:1000500031100010371000100000000000000000F8
:10006000000000003D100010431000104910001067
:100070004F10001000000000551000105B10001021
:1000800061100010000000000000000000000000EF
:100090000000000000000000000000000000000060
:1000A0000000000000000000671000106D1000103C
:1000B0007310001079100010000000000000000014
:1000C0007F100010851000108B1000109110001090
:1000D000971000109D100010A3100010A910001020
:1000E000AF100010B5100010BB100010C1100010B0
:1000F000C7100010CD100010D3100010D910001040
:10010000DF100010E5100010EB100010F1100010CF
:10011000F7100010FD10001003110010091100105D
:100120000F1100100000000000000000000000009F
:1001300000000000000000000000000000000000BF
:1001400000000000000000000000000000000000AF
:1001500000000000151100101B11001021110010EB
:10016000271100102D11001033110010391100104B
:100170003F110010451100104B11001051110010DB
:10018000571100105D11001063110010691100106B
:100190006F110010751100107B11001081110010FB
:1001A000871100108D11001093110010991100108B
:1001B0009F110010A5110010AB110010B11100101B
:1001C000B7110010BD110010C3110010C9110010AB
:1001D000CF110010D5110010DB110010E11100103B
:1001E000E7110010ED110010F3110010F9110010CB
:1001F000FF110010051200100B1200101112001058
:10020000171200101D1200102312001029120010E6
:100210002F120010351200103B1200104112001076
:10022000471200104D120010531200105912001006
:100230005F120010651200106B1200107112001096
:1002400000000000000000000000000010B5054C98
:10025000237833B9044B13B1044800E000BF0123F5
:10026000237010BDBC040030000000005CAD001025
:1002700008B5034B1BB10349034800E000BF08BDAC
:1002800000000000C00400305CAD0010A3F5803A0F
:10029000704700BF174B002B08BF134B9D46FFF75D
:1002A000F5FF00218B460F461348144A121A08F036
:1002B0002EFE0E4B002B00D098470D4B002B00D08C
:1002C00098470020002104000D000D48002802D0AE
:1002D0000C4800E000BF08F0D1FD2000290000F02C
:1002E0001BFD08F0A5FD00BF000008000000000095
:1002F00000000000604F0030BC0400306037003068
:10030000000000000000000080B485B000AFF8607D
:10031000B9607A607B68DB43BA689A4201D90023EE
:1003200005E0BA687B681A44FB681A600123184626
:100330001437BD4680BC704780B586B000AFF8600A
:10034000B9607A60FB68002B01D1002316E007F149
:1003500014037A68B9681846FFF7D6FF034683F09E
:100360000103DBB2002B01D0002307E0FB68DA6851
:100370007B699A4201D2002300E001231846183716
:10038000BD4680BD80B485B000AF03463960FB71C7
:100390000023FB600AE0134AFB681B0113441B782F
:1003A000FA799A4208D0FB680133FB600E4B1B6858
:1003B000FA689A42EFDB00E000BF0B4B1B68FA685B
:1003C0009A4202D14FF0FF3306E0FB681B01054A59
:1003D0001A443B681A60002318461437BD4680BC97
:1003E000704700BFC09F001000A0001080B483B011
:1003F00000AF786000BF0C37BD4680BC704700007E
:1004000080B58EB000AFF860B9607A603B600023C1
:1004100087F82F300023BB623A68B968F868FFF7A5
:100420008BFF034683F00103DBB2002B02D04FF0B9
:10043000FF33CFE03B687B63FB685B685B68984792
:1004400003467B613B7DC3F34103DBB21A46634B3A
:1004500053F8223087F8273097F827305B421A4646
:10046000BB6813403B623A6ABB689A4243D0FB6860
:100470005B685B69FA6891683A6A881807F1180145
:1004800001229847B862BB6A002B01DABB6AA1E07F
:10049000BA683B6AD21A3B681A4497F827309A42E6
:1004A00006D397F82720396ABB68CB1A134400E0BB
:1004B0003B68FB61002387F82F3013E097F82F206B
:1004C000BB681A443B6AD21A97F82F3079680B44FC
:1004D00038323A4412F8202C1A7097F82F30013332
:1004E00087F82F3097F82F30FA699A42E6D87A6B5E
:1004F000FB69D31A7B637B6B002B26D097F82730E0
:100500007A6BB2FBF3F33B633B6B002B1DD0FB68B4
:100510005B685B69FA689168BA68114497F82F20A4
:10052000881897F82F20796811443A6B9847B86279
:10053000BB6A002B01DABB6A4CE097F827303A6BB4
:1005400002FB03F37A6BD31A7B637B6B002B3BD0EC
:10055000FB685B685B69FA689168BA68114497F850
:100560002F20114497F82720386B00FB02F28818DF
:1005700007F1180101229847B862BB6A002B01DA23
:10058000BB6A27E0002387F82E3018E097F82E206A
:1005900097F82F1097F82730386B00FB03F31944B6
:1005A00097F82E300B4479680B4438323A4412F8ED
:1005B000202C1A7097F82E30013387F82E3097F8D8
:1005C0002E307A6B9A42E1D8BB6A002B01DABB6A03
:1005D00000E0002318463837BD4680BDB49F0010A8
:1005E00080B592B000AFF860B9607A603B600023DC
:1005F000FB63BB68BB63BA68BB6BD31A7B633A68A7
:10060000B968F868FFF798FE034683F00103DBB290
:10061000002B02D04FF0FF3335E1FB685B685B686D
:10062000984703467B613B7DC3F34103DBB21A4627
:10063000974B53F8223087F8333007F11C027B6B5D
:10064000B96BF868FFF7DCFE0346002B02D04FF0D1
:10065000FF3318E13A687B6B1344FB62FA6A3B682C
:10066000D21A7B6BD31ABB62FA6AB96BF868FFF7D0
:1006700063FE034683F00103DBB2002B02D04FF090
:10068000FF3300E1BA683B68D11807F11802BB6A72
:10069000F868FFF7B5FE0346002B02D04FF0FF339A
:1006A000F1E07B6B002B5CD07B6B7B640023FB63F6
:1006B0000FE07A68FB6B1344197807F11C027B6C1E
:1006C00013440A461A707B6C01337B64FB6B013365
:1006D000FB637B6C002B03D1FA6B3B689A42E8D337
:1006E000FA6B3B689A4221D100233B6410E007F18A
:1006F00018023B6C1344197807F11C027B6C1344FD
:100700000A461A707B6C01337B643B6C01333B649B
:100710007B6C002B03D13A6CBB6A9A42E7D33A6CEC
:10072000BB6A9A4202D04FF0FF33ACE07B6C012BE6
:1007300002D04FF0FF33A6E0FB685B689B69FA6864
:100740009168BA6B881897F83320012191FBF2F277
:1007500007F11C0198470346002B02DA4FF0FF33E4
:1007600091E0FA6B3B689A4280F08C803A68FB6BB0
:10077000D31A7B627B6A002B19D0FB685B689B698C
:10078000FA689168BA681144FA6B881897F83320B0
:10079000796AB1FBF2F2796898470346002B02DAD6
:1007A0004FF0FF336FE0FA6B7B6A1344FB63FB6B24
:1007B0003B62BB6A002B65D000237B640FE07A6844
:1007C000FB6B1344197807F11C027B6C13440A4637
:1007D0001A707B6C01337B64FB6B0133FB637B6CB6
:1007E000002B03D1FA6B3B689A42E8D3FA6B3B6863
:1007F0009A4202D04FF0FF3345E000233B6410E003
:1008000007F118023B6C1344197807F11C027B6C4A
:1008100013440A461A707B6C01337B643B6C0133D2
:100820003B647B6C002B03D13A6CBB6A9A42E7D3E2
:100830007A6B3B6A134401337B627B6C012B07D1DB
:100840003A6CBB6A9A4203D1FA6A7B6A9A4202D036
:100850004FF0FF3317E0FB685B689B69FA689168AB
:10086000BA6811443A6A881897F83320012191FB3D
:10087000F2F207F11C0198470346002B02DA4FF011
:10088000FF3300E0002318464837BD4680BD00BF57
:10089000B49F001080B588B000AFF860B9607A608E
:1008A0000023FB610023BB617A68B968F868FFF731
:1008B00043FD034683F00103DBB2002B02D04FF06F
:1008C000FF3327E0FB685B689B6A984778617B6928
:1008D0001B68002B1DD116E0FB685B68DB69FA68BA
:1008E0009168BA680A4410469847B861BB69002B02
:1008F0000ED17B699B68FA691344FB617B699B6835
:10090000BA681344BB60FA697B689A42E4D300E09A
:1009100000BFBB6918462037BD4680BD80B584B096
:1009200000AF78607B685B689B6A9847F860FB68FB
:100930001B6918461037BD4680BD80B485B000AF36
:1009400078607B6813F1040F01D9062308E07B6807
:100950000333FB60FB68052B01D9062300E0FB682D
:1009600018461437BD4680BC7047000080B582B081
:1009700000AF0A4B1B687B6004F0BEF803463B6087
:100980003B68002B02D0054B1B6801E0044B1B6841
:100990007B607B6818460837BD4680BD0804003080
:1009A000E024003080B588B000AF78603960174B24
:1009B0001B68FB613B68002B02D1144B1B6821E0D4
:1009C0007868FFF7BAFFB861BB69052B02D90F4BF6
:1009D0001B6817E007F10C031A460421B86904F0FC
:1009E000F9F803463B613B69002B02D0074B1B68BB
:1009F00001E0074B1B68FB61FB687B617A693B6820
:100A00001A60FB6918462037BD4680BD08040030D7
:100A1000E024003080B584B000AF78603960786839
:100A2000FFF78BFFF860FB68052B02D94FF0FF330F
:100A30000BE03968F86804F068F9B860BB68002B0F
:100A400002D04FF0FF3300E0002318461037BD46B8
:100A500080BD80B586B000AF786039600023FB753B
:100A60007B68002B02D03B68002B02D14FF0FF3394
:100A700043E00023BB7520E0BB7D002B06D0BB7D8F
:100A8000012B01D1022302E0FF2300E0012307F143
:100A9000080211461846FFF775FC0346002B02D0EA
:100AA0004FF0FF3329E0BB683A689A4202D1BB7D20
:100AB000FB7505E0BB7D0133BB75BB7D012BDBD92D
:100AC000BB7D022B02D14FF0FF3316E07A6807F1AD
:100AD0000C03143292E8030083E80300FB7D9BB211
:100AE0009B019BB203F47C63BB8207F10C03B98AC0
:100AF0000822022000F032FC034618461837BD4693
:100B000080BD000080B584B002AF3B461A46082184
:100B1000012004F00DFDD7E900230C480C498B425D
:100B200008BF824207D10B4B00930B4B0B4A0C4979
:100B30000C4808F0D5FD3B4608220021184608F075
:100B4000E6F900BF0837BD4680BD00BFA9B454B266
:100B50006D6F90A4D4A0001068A0001088A00010B1
:100B6000B8A00010C0A0001080B582B000AF3B4616
:100B70001A460421062004F0DBFC78607B68002B19
:100B800001D07B6808E03B68002B02D03B68012B5A
:100B900001D1012300E0002318460837BD4680BD7F
:100BA00080B582B000AF1A4A20210B2004F032FE3B
:100BB00078607B68002B06D07B684CF25A329342F7
:100BC00001D07B6820E0134A20210C2004F022FE93
:100BD00078607B68002B06D07B684CF25A329342D7
:100BE00001D07B6810E00C4A20210D2004F012FE99
:100BF00078607B68002B06D07B684CF25A329342B7
:100C000001D07B6800E07B6818460837BD4680BD90
:100C100008A0001028A0001048A0001080B584B0E3
:100C200002AF3B461A460421062004F081FC78609E
:100C30007B68002B01D07B6820E0124808F050FD53
:100C4000114B0093114B124A1249134808F048FD0A
:100C50003B68002B11D1114A104B9A4205D0104825
:100C600008F03EFD4AF2C53308E0FFF799FF7860CF
:100C70007B68002B01D07B6800E000231846083712
:100C8000BD4680BDDCA00010D4A0001068A00010FC
:100C900000A10010B8A00010C0A00010EDFEDEC042
:100CA00038A1001080B586B000AF78607B681B79F2
:100CB00007F10C021146184603F0CEFD38613B697E
:100CC000002B05D0114B124A4021124808F08AF837
:100CD0007B681B681B6903F02003002B08D07B682E
:100CE0001B685B687A681268128913447B6108E0AC
:100CF0007B689A68FB6813447A6812681289134407
:100D00007B6103F0D9FE786903F004FE74A1001042
:100D100040A300107CA1001080B58AB000AF414B09
:100D20001B687B624FF400513F4807F03BF803F02B
:100D300083FE03F0C7FD0346002B03D03B4808F0B9
:100D4000CFFCFEE73A4808F0CBFC04F0BFFB38626A
:100D50003B6A002B03D0374808F0C2FCFEE7FFF7E0
:100D600003FF0346002B09D0FFF758FF38623B6AA8
:100D7000002B05D0304808F0B3FCFEE7FFF7C2FEB9
:100D8000284B1B687B620123002B02D0FFF7EEFD8E
:100D900078622A4B1B687A6AFA61BB61FA69BB699F
:100DA0009A4214BF01230023DBB2002B03D0244856
:100DB00008F096FCFEE703F001FE0346002B03D08B
:100DC000204808F08DFCFEE7164B1B687B62012370
:100DD000002B04D03B1D184601F016FF7862174B1C
:100DE0001B687A6A7A613B617A693B699A4214BFEF
:100DF00001230023DBB2002B03D0134808F070FC62
:100E0000FEE7FB681946114808F06AFC104808F034
:100E100067FC3B1D1846FFF745FF0E4808F060FCD5
:100E2000FEE700BF08040030D8040030BCA1001069
:100E3000DCA10010F8A1001024A20010E024003072
:100E400040A2001078A200109CA20010C4A20010C2
:100E5000F8A2001020A3001080B584B000AF0346B4
:100E6000B9607A60FB73FB7B7A68B968184603F057
:100E70009DFF034618461037BD4680BD80B483B041
:100E800000AF786039603B68022B21D03B68022BB1
:100E900020DC3B68002B03D03B68012B0CD019E011
:100EA0007B68002B06D07B68012B01D1022313E065
:100EB000FF2311E001230FE07B68002B06D07B6845
:100EC000012B01D1042307E0FF2305E0032303E006
:100ED000052301E04FF0FF3318460C37BD4680BCB8
:100EE000704780B582B000AF78607B685B689B6AB2
:100EF000984703461B7D18460837BD4680BD000055
:100F000080B588B000AFF860B9607A60BB681B68D4
:100F10007B614FF0FF33BB61FB68DBB207F110026E
:100F200011461846FFF72EFA0346002B4CD1BB683A
:100F30001B68002B42D03B69DB68FB61BB68002269
:100F40001A6026E0FB69B3F5805F08D23B69DA6876
:100F50004FF48053F9681F4808F0C2FB2FE0BB68CC
:100F60001A68BB681B68DB0079680B4412031A60BF
:100F7000BB681B68DB007A6813444FF480525A60E8
:100F8000BB681B685A1CBB681A60FB69A3F58053D9
:100F9000FB61FB69002B04D0BB681B687A699A422D
:100FA000D0D8BB681B687A699A4204D2F9680A48AB
:100FB00008F096FB03E00023BB6100E000BF3B6943
:100FC0001846FFF713FA00E000BFBB691846203748
:100FD000BD4680BD4CA3001088A3001080B400AFB4
:100FE000FEE780B400AFFEE780B400AFFEE780B458
:100FF00000AFFEE780B400AFFEE780B400AFFEE7CD
:1010000080B400AFFEE780B400AFFEE780B400AF6D
:10101000FEE780B400AFFEE780B400AFFEE780B427
:1010200000AFFEE780B400AFFEE780B400AFFEE79C
:1010300080B400AFFEE780B400AFFEE780B400AF3D
:10104000FEE780B400AFFEE780B400AFFEE780B4F7
:1010500000AFFEE780B400AFFEE780B400AFFEE76C
:1010600080B400AFFEE780B400AFFEE780B400AF0D
:10107000FEE780B400AFFEE780B400AFFEE780B4C7
:1010800000AFFEE780B400AFFEE780B400AFFEE73C
:1010900080B400AFFEE780B400AFFEE780B400AFDD
:1010A000FEE780B400AFFEE780B400AFFEE780B497
:1010B00000AFFEE780B400AFFEE780B400AFFEE70C
:1010C00080B400AFFEE780B400AFFEE780B400AFAD
:1010D000FEE780B400AFFEE780B400AFFEE780B467
:1010E00000AFFEE780B400AFFEE780B400AFFEE7DC
:1010F00080B400AFFEE780B400AFFEE780B400AF7D
:10110000FEE780B400AFFEE780B400AFFEE780B436
:1011100000AFFEE780B400AFFEE780B400AFFEE7AB
:1011200080B400AFFEE780B400AFFEE780B400AF4C
:10113000FEE780B400AFFEE780B400AFFEE780B406
:1011400000AFFEE780B400AFFEE780B400AFFEE77B
:1011500080B400AFFEE780B400AFFEE780B400AF1C
:10116000FEE780B400AFFEE780B400AFFEE780B4D6
:1011700000AFFEE780B400AFFEE780B400AFFEE74B
:1011800080B400AFFEE780B400AFFEE780B400AFEC
:10119000FEE780B400AFFEE780B400AFFEE780B4A6
:1011A00000AFFEE780B400AFFEE780B400AFFEE71B
:1011B00080B400AFFEE780B400AFFEE780B400AFBC
:1011C000FEE780B400AFFEE780B400AFFEE780B476
:1011D00000AFFEE780B400AFFEE780B400AFFEE7EB
:1011E00080B400AFFEE780B400AFFEE780B400AF8C
:1011F000FEE780B400AFFEE780B400AFFEE780B446
:1012000000AFFEE780B400AFFEE780B400AFFEE7BA
:1012100080B400AFFEE780B400AFFEE780B400AF5B
:10122000FEE780B400AFFEE780B400AFFEE780B415
:1012300000AFFEE780B400AFFEE780B400AFFEE78A
:1012400080B400AFFEE780B400AFFEE780B400AF2B
:10125000FEE780B400AFFEE780B400AFFEE780B4E5
:1012600000AFFEE780B400AFFEE780B400AFFEE75A
:1012700080B400AFFEE7000080B586B000AF244B1D
:101280007B607B6883F30A8800BF03F08FF9214BF2
:101290007B611AE000233B610EE07B691A683B69C1
:1012A0009B001A447B6959683B699B000B44126898
:1012B0001A603B6901333B617B699B689B083A6913
:1012C0009A42EAD37B690C337B617B69124A934271
:1012D000E0D3124BFB6015E00023BB6009E0FB6824
:1012E0001A68BB689B00134400221A60BB68013374
:1012F000BB60FB685B689B08BA689A42EFD3FB68E7
:101300000833FB60FB68064A9342E5D3FEF7C2FF51
:101310006037003068AD001080AD001080AD001067
:1013200090AD001080B485B000AF78600B467B8034
:1013300013463B807A883B881344FB60FB68B3F517
:10134000803F01D3002304E0FB689AB27B681A80D7
:10135000012318461437BD4680BC704780B58AB05B
:1013600000AFBA607B600346FB730B46BB81002372
:10137000BB617B68002B01D1032387E04FF0405312
:101380003B62444B1B7883F00103DBB2002B10D08F
:101390004FF4806200214FF0405007F0B8FD3B6AE7
:1013A00042F216021A803B6A04225A80394B01220B
:1013B0001A703B6A5B8803F14053FB61364B7B62DA
:1013C0001BE0796A07F118030422184607F092FD22
:1013D0003B8B1B0B9AB2FB7B9BB29A4207D13B8B98
:1013E000C3F30B02BB899A4201D102234EE07B8BEF
:1013F0001A467B6A134404337B627A6AFB699A4219
:10140000DFD3FB7B1B031AB2B7F90C30C3F30B031A
:101410001BB213431BB29BB23B83BB689BB27B8363
:101420003B6A5988BB689BB204339AB207F1160332
:101430001846FFF777FF034683F00103DBB2002B6A
:1014400001D0032322E0FB8AB3F5806F01D9012389
:101450001CE0FB697B627B6A07F1180104221846D5
:1014600007F048FD7B6A04337B627B6ABA6879685F
:10147000184607F03FFD3B6A5A88BB689BB213448D
:101480009BB204339AB23B6A5A800023184628372D
:10149000BD4680BDDC2400300400003080B5B4B00F
:1014A00002AF0346B9607A60FB730023C7F8C4300B
:1014B000002387F8C330002387F8C23007F1A0006B
:1014C000002300934FF6FF737A68B96801F0E6FCD9
:1014D000C7F8BC00D7F8BC30002B02D04FF0FF3368
:1014E00099E007F1980307F19A0207F19C0107F1CF
:1014F000A00001F04EFDC7F8BC00D7F8BC30002BAF
:1015000002DA4FF0FF3386E0D7F8BC30002B45DC21
:10151000B7F89830602B20D1B7F89A30642B02D9F5
:101520004FF0FF3377E0D7F89C10B7F89A3007F107
:1015300014027868FEF764FFC7F8BC00D7F8BC3027
:10154000002B02D04FF0FF3365E0B7F89A30C7F8B0
:10155000C430012387F8C330C3E7B7F89830102BA5
:10156000BFD1B7F89A30202B02D94FF0FF3352E0A9
:10157000D7F89C10B7F89A3007F178027868FEF730
:101580003FFFC7F8BC00D7F8BC30002B02D04FF0AB
:10159000FF3340E0012387F8C23000E000BF97F836
:1015A000C33083F00103DBB2002B06D197F8C230C1
:1015B00083F00103DBB2002B02D04FF0FF332AE0AF
:1015C000D7F8C430203BC7F89C30D7F89C3007F1DF
:1015D0001402134407F178012022184607F08AFC10
:1015E000FB7B9B011BB243F03F031BB2A7F8BA3051
:1015F00007F11403B7F8BA10D7F8C4200120FFF799
:10160000ADFEC7F8BC00D7F8BC30002B02D0D7F82D
:10161000BC3000E000231846C837BD4680BD80B40A
:1016200083B000AF78607B685B7818460C37BD46A6
:1016300080BC704780B483B000AF78607B689B68E3
:1016400018460C37BD4680BC704780B483B000AFED
:1016500078607B68DB6818460C37BD4680BC7047F5
:1016600080B483B000AF78607B681B6818460C3785
:10167000BD4680BC704780B483B000AF78607B68A3
:101680005B6818460C37BD4680BC704780B485B097
:1016900000AFF860B9607A607B68DB43BA689A4251
:1016A00001D9002305E0BA687B681A44FB681A6018
:1016B000012318461437BD4680BC704780B483B000
:1016C00000AF786039607B6893F8B83019463B68A2
:1016D0002C2203FB02F2582301FB03F313447A6824
:1016E000134418460C37BD4680BC704780B483B0A5
:1016F00000AF786039607B6893F8B83018467A6834
:101700003B682C2103FB01F1582300FB03F30B443E
:10171000134428331B6818460C37BD4680BC7047FD
:1017200080B582B000AF786039607B6893F8B830DC
:1017300018467A683B682C2103FB01F1582300FB13
:1017400003F30B44134420331B681846FFF772FF62
:10175000034618460837BD4680BD80B584B000AF4B
:10176000F860B9607A60FB6893F8B8301846FA6898
:10177000BB682C2103FB01F1582300FB03F30B444E
:10178000134424331A687B68DB0013441846FFF7C0
:1017900072FF034618461037BD4680BD90B585B030
:1017A00000AFF860B9607A60FB6893F8B83018460B
:1017B000FA68BB682C2103FB01F1582300FB03F3FB
:1017C0000B44134424331A687B68DB001344184627
:1017D000FFF746FF0446FB6893F8B8301846FA68EE
:1017E000BB682C2103FB01F1582300FB03F30B44DE
:1017F000134424331B681846FFF732FF0346E31AED
:1018000018461437BD4690BD80B586B000AFF8606D
:101810000B467A60FB7200233B6123E001237B616E
:101820007B69012B0BD13B691946F868FFF746FF2E
:1018300002467B683969F86801F062FA78617B6971
:10184000002B0CD03B69002B07DDFB7A83F00103F2
:10185000DBB2002B01D0002308E07B6906E03B6986
:1018600001333B613B69012BD8DD00231846183753
:10187000BD4680BDB0B584B000AF786039607B688C
:1018800093F8B84039687868FFF718FF7B6893F8D9
:10189000B8301D467A683B682C2103FB01F15823C0
:1018A00005FB03F30B44134420331B681A4601461F
:1018B0002046FFF7F3FDF860FB68002B04D01548C5
:1018C00007F00EFFFB6820E039687868FFF7F6FE46
:1018D0007B6893F8B8301C467A683B682C2103FB80
:1018E00001F1582304FB03F30B44134420331B681A
:1018F0001946FFF7AEF8F860FB68002B04D00648E5
:1019000007F0EEFEFB6800E0002318461037BD46E6
:10191000B0BD00BFB4A30010E4A3001080B584B034
:1019200000AF786039607B68002283F8B8207B685C
:10193000002283F8B82014E07B6893F8B8301A4688
:101940007B68134493F8B93083F00103DBB2002BBA
:101950000DD17B6893F8B8300133DAB27B6883F835
:10196000B8207B6893F8B830012BE5D900E000BFC0
:101970000023FB607B6893F8B83018467A68FB68F0
:101980002C2103FB01F1582300FB03F30B44134408
:1019900020331B681846FFF742FE03461A463B6891
:1019A0001A71F9687868FFF7BBFE02463B689A60D7
:1019B000F9687868FFF782FE02463B681A6000BF4C
:1019C0001037BD4680BD80B584B000AF78607B68BD
:1019D000002283F8B82031E07B6893F8B8301A46CB
:1019E0007B68134493F8B930002B1ED10023FB60B1
:1019F00017E07B6893F8B8301846FB68C3F1010321
:101A00007A682C2103FB01F1582300FB03F30B44FC
:101A1000134420331B681846FEF7E8FCFB680133CB
:101A2000FB60FB68012BE4D900E000BF7B6893F802
:101A3000B8300133DAB27B6883F8B8207B6893F85A
:101A4000B830012BC8D900BF00BF1037BD4680BDDC
:101A500080B584B000AF78607B6893F8B8301946E1
:101A60007A68582301FB03F3134420331B6818469C
:101A7000FEF754FFF860FB6818461037BD4680BD7E
:101A800080B586B000AF786039606023BB606023AA
:101A9000BB607B6893F8B830002B08D07B6893F864
:101AA000B830012B01D1022302E0FF2300E0012323
:101AB0003A68934217D17B6893F8B83019467A6830
:101AC000582301FB03F3134424331B687B617B68B9
:101AD00093F8B8301A46582302FB03F328337A6888
:101AE00013443B612BE07B6893F8B830002B08D09F
:101AF0007B6893F8B830012B01D1042302E0FF2367
:101B000000E003233A68934217D17B6893F8B8301A
:101B100019467A68582301FB03F3134450331B68BA
:101B20007B617B6893F8B8301A46582302FB03F3B5
:101B300054337A6813443B6101E0012310E007F15C
:101B400008037A6919463868FFF7DAF9F860FB6824
:101B5000002B01D0FB6803E0BA683B691A600023E0
:101B600018461837BD4680BD80B584B000AF786098
:101B70007B6893F8B830FB73FB7B002B06D0FB7BB4
:101B8000012B01D1022302E0FF2300E001231946CB
:101B90007868FFF775FFB860BB68002B01D00123A0
:101BA0001CE0FB7B002B06D0FB7B012B01D1042327
:101BB00002E0FF2300E0032319467868FFF760FF87
:101BC000B860BB68002B01D0092307E07868FFF7F5
:101BD0003FFF02467B68C3F8B42000231846103745
:101BE000BD4680BD80B483B000AF78607B680022C2
:101BF0009A717B6800229A607B680022DA607B68B9
:101C000001225A717B6801221A607B6801221A71D5
:101C10007B680122DA7100BF0C37BD4680BC70477B
:101C200080B483B000AF78607B685B79012B09D109
:101C30007B681B68012B05D17B681B79012B01D1C7
:101C4000012300E0002303F00103DBB218460C3748
:101C5000BD4680BC7047000080B58CB006AFF86010
:101C6000B9607A603B60124B1B687B61FB6893F83C
:101C7000B830FB740E4B1B687B610123002B11D025
:101C8000F97C0023049300230393002302934FF471
:101C900080730193074B00937B68BA68002001F0C2
:101CA000E3FD78617B6918461837BD4680BD00BFEB
:101CB00008040030A025003080B584B000AF786003
:101CC00039607B681B68124A934201D000231BE0F5
:101CD0007B68D9687B681B891A4607F10C03184694
:101CE000FFF7D4FC034683F00103DBB2002B01D0E5
:101CF000002309E03868FFF7A8FC0246FB689A4217
:101D000001D8002300E0012318461037BD4680BDEE
:101D10003DB8F39680B487B000AF0346B9607A60EF
:101D2000FB73BB683B610023FB750BE0FB7D3A69ED
:101D300013441B78FA7B9A4201D0002307E0FB7D15
:101D40000133FB75FB7D7A689A42EFD80123184670
:101D50001C37BD4680BC704780B588B000AF786046
:101D600039607B6893F8B83039681846FFF786F811
:101D7000F861FB69DBB207F10C0211461846FEF769
:101D800001FBB861BB69002B02D04FF0FF331FE0AD
:101D9000FB681846FFF7A5F80346FB75FB68184675
:101DA000FEF724FB3B6819467868FFF787FC38612B
:101DB0003969FB7D04221846FFF7ACFF034683F028
:101DC0000103DBB2002B02D04FF0FF3300E0002311
:101DD00018462037BD4680BD80B483B000AF786020
:101DE00039607B681A783B681B789A4201D90123D5
:101DF0002BE07B681A783B681B789A4202D24FF03E
:101E0000FF3322E07B685A783B685B789A4201D9BD
:101E100001231AE07B685A783B685B789A4202D2C9
:101E20004FF0FF3311E07B685A883B685B889A4229
:101E300001D9012309E07B685A883B685B889A4294
:101E400002D24FF0FF3300E0002318460C37BD46A6
:101E500080BC704790B593B000AFF860B9607A600D
:101E6000484B1B687B64FB6893F8B830B968184628
:101E7000FFF704F838643B6CDBB207F1140211463B
:101E80001846FEF77FFAF863FB6B002B01D07B6CE2
:101E900073E0BB681946F868FFF710FCB863B968CF
:101EA000F868FFF759FF0346002B05D0BB6B1B6991
:101EB00003F01003002B04D001237B637B6B7B6456
:101EC00056E001237B627B6A7B640123BB62BB6AB1
:101ED0007A6C3A63FB623A6BFB6A9A420CBF01234D
:101EE0000023DBB2002B0CD0264B1B687B64012344
:101EF000002B06D07A697B68B96BF868FFF7ACFEF7
:101F000078647B691946B86BFFF7D6FE034683F009
:101F10000103DBB2002B0DD11B4B1B687A6C3A62BC
:101F2000FB613A6AFB699A4214BF01230023DBB2CA
:101F3000002B1CD0BB68002B0AD07C697B6918463B
:101F4000FFF783FB03461A4600212046FEF7A2FC5A
:101F5000BB68002B01D10D4B00E00D4B19460D481D
:101F600007F0BEFB0123BB61BB697B6400E000BFDF
:101F70007B691846FEF73AFA7B6C18464C37BD462B
:101F800090BD00BF08040030E024003018A4001009
:101F900020A400102CA4001080B588B000AF034628
:101FA000B9607A60FB730023BB61FB7BB96818469C
:101FB000FEF764FF0346DBB207F11802114618462C
:101FC000FEF7E0F9F861FB69002B02D00123FB6109
:101FD00015E0BB6907F114021946786801F0F8FBB7
:101FE000F861FB69002B09D1FB7B7A691146184621
:101FF000FEF710FDF861FB69002B00E000BFBB6934
:102000001846FEF7F3F9FB6918462037BD4680BD38
:1020100080B58AB000AF78603960234B1B683B62A3
:102020007B6893F8B830184601F0D8F978627B6A7B
:10203000022B05D07B6A042B02D07B6A032B2DD1A7
:10204000194B1B683B620123002B05D03A68012124
:102050007868FFF7FFFE3862144B1B683A6AFA6132
:10206000BB61FA69BB699A4214BF01230023DBB24A
:10207000002B13D00123FB60FB683A6A7A613B6155
:102080007A693B699A420CBF01230023DBB2002B23
:1020900002D001237B6201E005237B627B6A184644
:1020A0002837BD4680BD00BF08040030E024003062
:1020B00080B584B000AFF860B9607A607A68B968BA
:1020C000F868FEF7E7FB034618461037BD4680BDAB
:1020D00080B588B000AFF860B9607A603B600023DB
:1020E000FB612DE0FA6AFB69D31AB3F5806F03D95F
:1020F0004FF48063BB6103E0FA6AFB69D31ABB61EA
:102100003A68FB69D118BB69124AB868FEF778F9DA
:1021100078617B69002B01D0012316E0BA6AFB6964
:10212000D118BB690B4A7868FEF75AFA78617B6967
:10213000002B01D0012308E0BB69FA691344FB615D
:10214000FA69FB6A9A42CDD3002318462037BD4670
:1021500080BD00BFA0260030B0B58EB002AF786061
:102160003960794807F0BCFA784807F0B9FA7B681B
:1021700093F8B83087F8273097F82730002B07D02E
:1021800097F82730012B01D1022302E0FF2300E062
:10219000012307F1100211461846FEF7F3F83862E2
:1021A0003B6A002B06D06A4B6A4A40F246416A48B5
:1021B00006F018FE97F82730002B07D097F8273045
:1021C000012B01D1042302E0FF2300E0032307F1E8
:1021D0000C0211461846FEF7D5F838623B6A002B10
:1021E00006D05B4B5B4A40F24A415B4806F0FAFD81
:1021F00000217868FFF77AFAF8610023FB62002378
:10220000BB621DE0FA6A00217868FFF7A6FA7861E0
:102210003B697A69B96A1846FFF74AFF38623B6A38
:10222000002B06D04A4B4B4A4FF48A614A4806F0CD
:10223000D9FDBA6A7B691344BB62FB6A0133FB6256
:10224000FA6AFB699A42DDD3B96A444807F048FA52
:10225000F9683A69BB6A0193002300930023786808
:10226000FFF736FF38623B6A002B01D03B6A66E01D
:1022700000233B623B6A002B01D03B6A5FE07B6836
:1022800093F8B84001217868FFF718FA03461A4618
:1022900000212046FFF780FE38623B6A002B04D005
:1022A0002F4807F01DFA3B6A49E0FC680022012133
:1022B0007868FFF773FA0546002201217868FFF776
:1022C0004CFA03461A4629462046FFF7F1FE3862CB
:1022D0003B6A002B06D01E4B1E4A40F2A5411E4809
:1022E00006F080FD01217868FFF700FA0346013B04
:1022F000BB61FC68BA6901217868FFF74FFA0546AF
:10230000BA6901217868FFF728FA03461A46294678
:102310002046FFF7CDFE38623B6A002B06D00C4BFF
:102320000C4A40F2AD410C4806F05CFD3B69184692
:10233000FEF75CF8FB681846FEF758F800231846CD
:102340003037BD46B0BD00BF58A4001090A40010A7
:10235000B4A4001060A60010BCA4001014A50010C6
:1023600058A5001080B586B000AF786039603B6832
:102370001B781A467B68134493F8B030FB74FB7CDF
:10238000022B05D0FB7C042B02D0FB7C032B01D15C
:10239000012300E00023FB603B681B781946FB68C3
:1023A0002C2203FB02F2582301FB03F313441033E6
:1023B0007A6813440433BB603B6804331946B86839
:1023C000FFF70AFD78617B69002B22DA7B6893F8BE
:1023D000B8301A467B68134493F8B030012B0ED006
:1023E000002B19DD023B012B16D87B6893F8B8301F
:1023F0001A467B681344012283F8B0200DE07B6805
:1024000093F8B8301A467B681344042283F8B0204E
:1024100003E000237B6100E000BF7B6918461837AA
:10242000BD4680BD80B592B002AF786039607B68F0
:1024300093F8B8301A463B6819461046FEF71EFD61
:10244000B863BB6BDBB207F1340211461846FDF7E7
:1024500099FFF863FB6B002B02D00123FB634EE076
:1024600039687868FFF72AF901467A6B07F11C0092
:1024700001230093402300F011FDF863FB6B002B58
:102480003AD107F10A0207F10C0107F11C00002301
:1024900000F07FFDF863FB6B002B02DA4FF0FF3397
:1024A00032E0FB6B002B02DD0023FB6327E07B891E
:1024B0000C2B02D00323FB6321E0786BF9687B8946
:1024C00007F11002FDF79CFFF863FB6B002B02D0B5
:1024D0000123FB6313E03B7C012B02D90723FB6341
:1024E0000DE007F1100319467868FFF73BFFF8632A
:1024F000FB6B002B02D1C4E700BF00E000BF7B6B89
:102500001846FDF773FFFB6B18464037BD4680BD8C
:1025100080B586B000AF78604FF0FF337B617B6899
:10252000002283F8B82055E07B6893F8B8301A464B
:102530007B68134493F8B930002B08D07B6893F87C
:10254000B8300133DAB27B6883F8B82042E07B68A8
:1025500093F8B8301A467B68134493F8B030012BD7
:102560000CD07B6893F8B8301A467B68134493F814
:10257000B030052B02D00123FB7401E00023FB7473
:10258000FB7C19467868FFF74DFF78617B69002B6B
:1025900008D17B6893F8B8300133DAB27B6883F8EE
:1025A000B82017E00023FB6010E0FB68DAB27B681C
:1025B00083F8B8207B6893F8B8301A467B681344D8
:1025C000012283F8B020FB680133FB60FB68012B1C
:1025D000EBDD04E07B6893F8B830012BA4D97B696C
:1025E00018461837BD4680BD80B584B000AF78600E
:1025F000396039687868FFF7AFFDF860FB68002B39
:1026000006D0064B064A40F20161064806F0EAFB96
:10261000FB6818461037BD4680BD00BFB4A400104B
:1026200070A60010BCA4001080B485B000AF786024
:102630000B46FB707B6893F8B830002B33D0FB78E7
:1026400083F00103DBB2002B13D07B6893F8B83022
:102650001A467B68134493F8B030012B25D07B6871
:1026600093F8B8301A467B68134493F8B030042BC3
:102670001BD00023FB730FE0FB7B7A68134493F8B5
:10268000B030042B05D1FB7B7A681344012283F818
:10269000B020FB7B0133FB737B6893F8B830FA7B87
:1026A0009A42E9D302E000BF00E000BF1437BD4604
:1026B00080BC704780B586B000AF78603960534BFE
:1026C0001B687B617868FFF74FFA38613B69002B24
:1026D00010D060214E4807F003F87B6893F8B830BB
:1026E0001A467B681344012283F8B0203B69012B12
:1026F00000F08780002200217868FFF785F83861B4
:102700003B69002B10D07B6893F8B83019464148DC
:1027100006F0E6FF7B6893F8B8301A467B681344EE
:10272000012283F8B0206DE0786800F01BFB0346BF
:10273000002B5CD03868FFF755FA3868FFF770FA5D
:10274000034683F00103DBB2002B0AD00121786835
:10275000FFF76AFF304B314A40F2FF61304806F024
:1027600041FB3B68DB79012B0ED139687868FFF7B4
:102770004FFC02467B6893F8B8301946D2B27B68AA
:102780000B4483F8B0202DE0204B1B687B610123B4
:10279000002B05D03A6801217868FFF75BFB786170
:1027A000204B1B687A69FA60BB60FA68BB689A4282
:1027B00014BF01230023DBB2002B09D07B6893F800
:1027C000B8301A467B681344052283F8B02009E02C
:1027D0007B6893F8B83019463B68DA797B680B441C
:1027E00083F8B02000217868FFF71EFF0AE07B68BD
:1027F00093F8B8301A467B681344012283F8B0205E
:1028000000E000BF1837BD4680BD00BF080400309F
:1028100094A50010DCA500100CA6001084A60010E2
:10282000BCA40010E024003090B585B000AF786003
:102830007B6893F8B8301A467B68134493F8B0303D
:10284000012B15D17B6893F8B84000217868FEF71A
:1028500035FF03461A4600212046FFF79DFBF8602E
:10286000FB68002B04D0054806F03AFFFB6800E047
:10287000002318461437BD4690BD00BF10A60010B7
:1028800080B590B000AF786039604FF0FF33BB6324
:10289000954B1B687B63002387F833307B680022ED
:1028A00083F8B82090E07B6893F8B8301A467B68CC
:1028B000134493F8B930002B7DD17B6893F8B8307E
:1028C000FB627B6893F8B8301846FA6A13465B00DF
:1028D00013441B02854A1A447968582300FB03F30A
:1028E0000B4424331A607B6893F8B8301846FA6AB0
:1028F00013465B0013441B027D4A1A44796858232F
:1029000000FB03F30B4450331A600023FB6327E002
:10291000FB6B1946F86AFEF7B1FAB862BB6AD8B227
:102920007B6893F8B8301946FB6B2C2203FB02F24C
:10293000582301FB03F3134420337A6813441946E8
:10294000FDF720FDB863BB6B002B06D0694B6A4ACC
:1029500040F2AF71694806F045FAFB6B0133FB6347
:10296000FB6B012BD4D907F10C0319467868FFF7EC
:10297000A1FE7B6893F8B8301A467B68134493F83D
:10298000B030022B13D07B6893F8B8301A467B68BE
:10299000134493F8B030042B09D07B6893F8B83017
:1029A0001A467B68134493F8B030032B04D10123FB
:1029B00087F8333000E000BF7B6893F8B83001330C
:1029C000DAB27B6883F8B8207B6893F8B830012BC3
:1029D0007FF669AF97F83330002B08D07868FFF79F
:1029E00097FDB863BB6B002B01D00023BB637B68F2
:1029F000002283F8B8206CE07B6893F8B8301A4660
:102A00007B68134493F8B930002B59D107F10C03BC
:102A10001846FFF7E7F87B6893F8B8301A467B68EA
:102A2000134493F8B030FB747B6893F8B8301A46BF
:102A30007B68134493F8B030052B28D0052B1CDCA1
:102A4000012B26D0002B18DD023B022B15D80123C9
:102A5000BB63BB6B012B06D107F10C0319467868E9
:102A6000FFF7C2FDB863BB6B002B14D0214B224A89
:102A70004FF4FF61214806F0B5F97B6893F8B83050
:102A80001A467B681344FF2283F8B02004E000BF9D
:102A900002E000BF00E000BF7B6893F8B8301A4640
:102AA0007B68134493F8B030FF2B0AD1144806F02A
:102AB00017FE144B104A40F60F01104806F092F929
:102AC00000BF7B6893F8B8300133DAB27B6883F8D3
:102AD000B8207B6893F8B830012B8DD97B68002231
:102AE00083F8B82062E000BF08040030A02A00305C
:102AF000A0300030B4A40010A4A60010BCA40010A4
:102B000050A600100CA600107B6893F8B8301A4647
:102B10007B68134493F8B930002B3ED17B6893F85F
:102B2000B8301A467B68134493F8B030012B0AD0B2
:102B300007F10C031A4600217868FEF765FEB863BA
:102B4000BB6B002B46D12E4B1B687B630123002BF4
:102B500005D0002200217868FFF77CF97863294BC3
:102B60001B687A6B7A623B627A6A3B6A9A4214BF4C
:102B700001230023DBB2002B2ED17868FFF754FE2F
:102B8000B863BB6B002B29D100217868FEF772FE79
:102B9000B863BB6B002B23D100E000BF7B6893F8C8
:102BA000B8300133DAB27B6883F8B8207B6893F8D9
:102BB000B830012BA8D907F10C03102200211846C8
:102BC00006F0A5F939687868FEF7A8FE0D4B1B687A
:102BD0007B6306E000BF04E000BF02E000BF00E04E
:102BE00000BF7868FEF7EFFEBB6B002B03D0BB6B1A
:102BF000FB61FB697B637B6B18464037BD4680BD3C
:102C000008040030E024003080B584B000AF786064
:102C10000A4B1B68FB60002000F014F8074B1B6890
:102C2000FB600123002B04D079680548FFF728FEDC
:102C3000F860FB6818461037BD4680BD08040030B8
:102C4000E424003080B582B000AF78607B68002B50
:102C500005D0BC220021786806F059F904E0BC22B6
:102C60000021034806F053F900BF0837BD4680BD78
:102C7000E424003080B483B000AF78607B685B6888
:102C800018460C37BD4680BC704780B483B000AF97
:102C9000786039607B6893F8B83018467A683B688A
:102CA0002C2103FB01F1582300FB03F30B441344D5
:102CB00028331B6818460C37BD4680BC704780B56A
:102CC00084B000AFF860B9607A60FB6893F8B83000
:102CD0001846FA68BB682C2103FB01F1582300FB5E
:102CE00003F30B44134424331A687B68DB0013445A
:102CF0001846FFF7BFFF034618461037BD4680BD94
:102D000080B588B000AFF860B9607A603B6000239E
:102D1000FB61FB6893F8B830B9681846FEF7AEF867
:102D2000B861BB69DBB207F1140211461846FDF722
:102D300029FBF861FB69002B0AD1786920237A68A6
:102D40000021FDF75DFBF8617B691846FDF74EFB3E
:102D5000FB69002B01D00123FB61FB69184620377A
:102D6000BD4680BD80B58CB000AF7860002178682A
:102D7000FFF78BFFB86101217868FFF786FF786164
:102D8000BB69602B02D87B69602B04D9404806F0F0
:102D9000A7FC002378E000233B613B69FB62FB6AF0
:102DA0007B620023FB60FB68BB62BB6A3B62002363
:102DB000FB774FE0FA6ABB6A9A4218D17A6A00211F
:102DC0007868FFF77CFF0246FB6A1344FB623A6AAD
:102DD00001217868FFF773FF0246BB6A1344BB62A8
:102DE0007B6A01337B623B6A01333B6232E0FA6A01
:102DF000BB6A9A4217D27A6A00217868FFF75FFFB0
:102E00000246FB6A1344FB6297F91F30022B04D180
:102E1000204806F065FC002336E00123FB777B6A3F
:102E200001337B6216E03A6A01217868FFF747FFB9
:102E30000246BB6A1344BB6297F91F30012B04D1D1
:102E4000144806F04DFC00231EE00223FB773B6A8A
:102E500001333B627A6ABB699A42ABD33A6A7B69B7
:102E60009A42A7D37A6ABB699A4207D13A6A7B69C8
:102E70009A4203D13A69FB689A4204D0064806F0A8
:102E80002FFC002300E0012318463037BD4680BDEB
:102E9000DCA6001010A700104CA7001080B586B06B
:102EA00000AFF860B9607A607B80FB68002B05D0CA
:102EB000BB68002B02D07B68002B02D14FF0FF33A0
:102EC00063E0BB681B891A46BB68DB6813447B61FF
:102ED00007F11002042379697868FDF791FA034637
:102EE000002B02D04FF0FF334FE03B8A46F608122A
:102EF000934217D1BB685A897B8A9A4202D04FF01D
:102F0000FF3342E07B8A1A467B69D11807F1100231
:102F100004237868FDF774FA0346002B09D04FF0BC
:102F2000FF3332E0BB685B89002B02D04FF0FF33E8
:102F30002BE03B8A46F60712934202D04FF0FF3354
:102F400023E0FB68BA681A60FB687A685A60FB681D
:102F50007A881A81FB6897F820209A72FB681B68B0
:102F60005B891A467B691A44FB68DA60FB681B6858
:102F70005B891A467B6913447A8A1A44FB685A6152
:102F80007B691A1DFB681A61002318461837BD4675
:102F900080BD80B586B000AFF860B9607A603B60F4
:102FA000FB68002B07D0FB681B68002B03D0FB6875
:102FB0005B68002B57D14FF0FF335BE0FB681B6869
:102FC0005B89002B0AD0FB681A69FB68DB689A42B0
:102FD00004D1FB681B691A1DFB681A61FB685868FD
:102FE000FB68196907F110020423FDF709FA7861FB
:102FF0007B69002B02D04FF0FF333BE0FB689B7AEC
:10300000002B07D0FB681A69FB68DB689A4201D382
:1030100001232FE0FB681B894FF6FF72934204D017
:103020003A8AFB681B899A4216D13B68002B02D072
:103030003A8A3B681A80FB681B691A1DBB681A60D4
:103040007A8A7B681A80FB681B697A8A13441A1D86
:10305000FB681A6100230DE0FB681B697A8A134440
:103060001A1DFB681A61FB681A69FB685B699A4262
:10307000A4D3012318461837BD4680BD80B584B05F
:1030800000AFF860B9607A607A68B968F86805F0EE
:1030900021FF034618461037BD4680BD80B483B07B
:1030A00000AF78607B68DB6818460C37BD4680BC93
:1030B0007047000080B582B000AF786010220749E9
:1030C000786805F007FF0346002B01D1012300E0DB
:1030D000022318460837BD4680BD00BFB8A80010BF
:1030E00080B483B000AF0346FB71FB79012B01D0A4
:1030F000022300E0012318460C37BD4680BC704710
:1031000080B582B000AF78607868FFF7C7FF0346EC
:10311000103B18460837BD4680BD80B582B000AF71
:1031200078607868FFF7ECFF0346083B23F007035D
:1031300018460837BD4680BD80B582B000AF7860C4
:103140007868FFF7EAFF0346083B18460837BD4694
:1031500080BD80B582B000AF78607868FFF7ECFF83
:103160000346083B18460837BD4680BD80B483B08F
:1031700000AF03460A46FB711346BB71FB79042B73
:1031800002D0052B02D008E001230DE0BB79012B12
:1031900014BF01230023DBB206E0FA79BB799A421F
:1031A0000CBF01230023DBB218460C37BD4680BCA0
:1031B000704780B588B000AFF860B9607A60BB68CE
:1031C000002B02D07B68002B01D100231AE0F868A5
:1031D000FDF787FE0346FB760023FB61BB687B613E
:1031E0000BE07A69FB6913441B78FA7E9A4201D09E
:1031F000002307E0FB690133FB61FA697B689A42AF
:10320000EFD3012318462037BD4680BD80B586B078
:1032100000AFF860B9607A600123BA687968F8682D
:10322000FDF7EEF878617B69002B01DA012315E0E8
:103230000122B968F868FFF7BCFF0346002B03D0F2
:10324000BB6803221A7008E0BB681B781846FFF7BA
:1032500047FF0346DAB2BB681A70002318461837D6
:10326000BD4680BD80B582B000AF786039607868B7
:10327000FFF762FF03461A4639687868FFF7C6FF12
:10328000034618460837BD4680BD80B58AB000AFFA
:10329000786039607868FFF733FF786207F11002D1
:1032A0001023796A7868FDF7ABF838623B6A002B27
:1032B00001DA012359E007F110031022194678685A
:1032C000FFF777FF0346002B03D03B6803221A70F9
:1032D00008E007F110031846FFF7ECFE0346DAB2E8
:1032E0003B681A707868FFF734FF786207F10F02C5
:1032F0000123796A7868FDF783F838623B6A002B0E
:1033000001DA012331E0FB7B03F00F03DAB23B6803
:103310005A70FB7B1B09DAB23B681A7107F10F0385
:10332000012219467868FFF744FF0346002B03D1BA
:103330003B685B78042B05D93B6801225A703B68D7
:1033400000221A713B68023319467868FFF78AFF3A
:1033500038623B6A002B01D0012306E03B6803334F
:103360001946786800F027F8034618462837BD4606
:1033700080BD80B584B000AF786039607B68DBB217
:1033800007F1080211461846FCF7FCFFF860FB68DD
:10339000002B01D001230AE0BB6839681846FFF70B
:1033A00074FFF860BB681846FDF720F8FB68184604
:1033B0001037BD4680BD80B582B000AF78603960FF
:1033C0007868FFF7AAFE03461A4639687868FFF75F
:1033D0001DFF034618460837BD4680BD80B58AB03C
:1033E00000AF786001237B627B6A012B11D17B687F
:1033F000002B06D07B68012B01D1022302E0FF23C2
:1034000000E0012307F1140211461846FFF7B1FF4F
:1034100078627B6A002B01D0FF2395E07B68002B4C
:1034200006D07B68012B01D1042302E0FF2300E0DA
:10343000032307F10C0211461846FFF79AFF786242
:103440007B6A012B0ED17968414806F049F90323C4
:103450003B7301237B730323BB730323FB730023A1
:103460003B7404E07B6A002B01D0FF236CE0002357
:103470003B6262E03A6A13465B0013445B001A4603
:10348000344B1344FB61FB691B783A7D11461846A7
:10349000FFF76CFE0346002B4CD0FB695B783A7B50
:1034A00011461846FFF762FE0346002B42D0FB6927
:1034B0009B78042B04D0FB699A78FB7D9A4239D122
:1034C000FB69DB78042B04D0FB69DA78FB7B9A423A
:1034D00030D1FB691B79042B04D0FB691A79BB7DC1
:1034E0009A4227D1FB695B79022B0DD0FB695B798E
:1034F000032B07D0FB695B79042B01D1164B04E049
:10350000164B02E0164B00E0164B1946164806F023
:10351000E7F8FB695B79022B09D0FB695B79032B28
:1035200005D0FB695B79042B01D0FF230CE0FB691C
:103530005B7909E03B6A01333B623B6A022B99D914
:103540000A4806F0CDF8012318462837BD4680BD4D
:1035500068A90010C8A80010B8A90010C0A90010E0
:10356000D4A90010DCA90010E4A90010FCA90010E7
:1035700080B582B000AF7860786804F0BBFD0021B0
:10358000786804F0BBFD00BF0837BD4680BD80B43D
:1035900083B000AF786000BF0C37BD4680BC704779
:1035A00080B584B000AFF860B9607A607A68B968B5
:1035B000F86805F0FFF9034618461037BD4680BD90
:1035C00080B582B000AF786039603968786805F0FE
:1035D000F7F9034618460837BD4680BD80B5A6B04A
:1035E00000AFF860B9607A603B6007F114031846D9
:1035F000FFF7BEFFD7F8AC30002B0CD0D7F8B030B7
:10360000002B08DDD7F8B02007F11403D7F8AC1071
:103610001846FFF7C5FF7B681B89A7F88E30B7F8FF
:103620008E30C7F888307B68DB68D7F88820134471
:10363000C7F88830D7F88830C7F884307B685B8952
:103640001A46D7F888301344C7F888300023C7F8E3
:10365000903037E0D7F88820D7F89030D31AC7F8E1
:103660009430D7F89420D7F8A4309A4203D9D7F8E9
:10367000A430C7F89430D7F89430D7F8A020D7F802
:1036800090103868FCF7BCFEC7F88000D7F880308F
:10369000002B07D007F114031846FFF778FFD7F87F
:1036A000803022E007F11403D7F89420D7F8A01057
:1036B0001846FFF775FFD7F89020D7F894301344D9
:1036C000C7F89030D7F89020D7F888309A42C1D305
:1036D00007F11403D7F8A8101846FFF771FF07F198
:1036E00014031846FFF753FF002318469837BD46CA
:1036F00080BD000080B5B2B000AF03463960FB71F9
:103700001346BB802023BB6007F14C031846FFF72C
:103710002FFFBA8807F14C0339681846FFF740FFBE
:1037200007F12C0207F14C0311461846FFF748FF3A
:1037300007F14C031846FFF72AFF07F1080207F1CB
:103740000C01FB791846FDF787FBC7F8C000D7F8D6
:10375000C030002B02D0D7F8C0302DE0184B1B68CA
:10376000C7F8C4300123002B09D0BA6807F10C0157
:1037700007F12C031846FFF781FCC7F8C400114B72
:103780001B68D7F8C420C7F8BC20C7F8B830D7F8F2
:10379000BC20D7F8B8309A420CBF01230023DBB21B
:1037A000002B07D0084A3B681360BB88074A1360A8
:1037B000002301E04FF0FF331846C837BD4680BDF7
:1037C00008040030E024003000040030D824003029
:1037D00080B590B002AFF860B9607A60FB68002BEA
:1037E00005D0BB68002B02D07B68002B01D10723DA
:1037F00036E0FB685B89002B01D1032330E007F141
:103800001C00012300935023BA68F968FFF746FBB8
:1038100078637B6B002B01D07B6B21E007F11602F4
:1038200007F1180107F11C000023FFF7B2FB7863D2
:103830007B6B002B02D04FF0FF3311E0FB8A042B8F
:1038400001D003230CE0B969FB8A7A68B868FCF7F9
:10385000D7FD78637B6B002B01D0012300E00023B0
:1038600018463837BD4680BD90B5ADF5797D06AFB9
:1038700007F57274A4F56F74206007F57270A0F5F7
:103880007070016007F57271A1F571710A6007F53A
:103890007272A2F5727213600023C7F8C433B54B7D
:1038A0001B68C7F8C0334FF0FF33C7F8BC330023A1
:1038B000C7F8B833AF4B1B68C7F8B4336FF0004399
:1038C000C7F8AC33D7F8AC2307F57273A3F56C7364
:1038D0001A6007F57273A3F56D7300221A60A54B89
:1038E0001B68C7F8B03307F57273A3F5727307F559
:1038F0007272A2F5717207F57271A1F5707107F518
:103900007270A0F56F70D7F8E4430494D7F8E043E1
:10391000039407F11C040294D7F8DC430194D7F810
:10392000D84300941B68126809680068FFF756FEC8
:10393000C7F8B803D7F8B833002B40F0DC81D7F8CC
:10394000E833002B07D007F11C0320221946D7F8D3
:10395000E80305F0CFFA07F57273A3F5727207F565
:103960007273A3F5717107F5DE70002300934FF6B3
:10397000FF7312680968FFF791FAC7F8B803D7F820
:10398000B833002B40F0B98107F55B7307F26E3254
:1039900007F55C7107F5DE70FFF7FBFAC7F8B803AF
:1039A000D7F8B833002BC0F2AA81D7F8B833002B70
:1039B00000F35D81B7F86C33102B44D1B7F86E3348
:1039C000202B04D04FF0FF33C7F8B833AAE1D7F863
:1039D000701307F13C0207F57273A3F57270202390
:1039E0000068FCF70DFDC7F8B803D7F8B833002B13
:1039F00040F087815F4B1B68C7F8B4330123002B6D
:103A000009D007F13C0107F11C0320221846FFF7FB
:103A100035FBC7F8B403584B1B68D7F8B423C7F875
:103A2000A823C7F8A433D7F8A823D7F8A4339A4219
:103A300014BF01230023DBB2002B40F0648101237B
:103A4000C7F8C433A0E7B7F86C33022B2FD1B7F80F
:103A50006E33B3F5CC7F04D94FF0FF33C7F8B833DA
:103A600060E1D7F87013B7F86E331C4607F5EA72B9
:103A700007F57273A3F5727023460068FCF7C0FC6B
:103A8000C7F8B803D7F8B833002B40F03E8107F5EC
:103A90007273A3F570731B68DBB2B7F86E2307F57A
:103AA000EA711846FFF726FEC7F8BC036CE7B7F8C3
:103AB0006C33232B50D1D7F8BC33002B05DB2F4BB5
:103AC0001B68D7F8BC239A4204DB4FF0FF33C7F8DA
:103AD000BC33CBE0B7F86E33B3F5C07F04D1B7F891
:103AE0006E33B3F5C07F04D94FF0FF33C7F8B83356
:103AF00018E1D7F87013B7F86E331C4607F13C0293
:103B000007F57273A3F5727023460068FCF778FC22
:103B1000C7F8B803D7F8B833002B40F0F880154B3E
:103B20001B68C7F8C0330123002B10D0B7F86E33E1
:103B30001946D7F8BC33DBB207F13C0207F11C0091
:103B400000930B46202100F027FBC7F8C0034FF07D
:103B5000FF33C7F8BC3317E7B7F86C33502B7FF44B
:103B600013AFB7F86E33042B0AD04FF0FF33C7F80A
:103B7000B833D7E008040030E024003048A3001038
:103B8000D7F87013B7F86E331C4607F1140207F527
:103B90007273A3F5727023460068FCF731FCC7F816
:103BA000B803D7F8B833002B40F0B380674B1B68DD
:103BB000C7F8B4330123002B0CD007F57273A3F5BB
:103BC00070731B6807F1180211461846FCF7EAFEED
:103BD000C7F8B4035E4B1B68D7F8B423C7F8A0231B
:103BE000C7F89C33D7F8A023D7F89C339A4214BF68
:103BF00001230023DBB2002B40F08D8007F57273A8
:103C0000A3F56C731B68C7F88C33D7F88C331A464E
:103C100007F57273A3F56D731B689A428CBF01237D
:103C20000023DBB2C7F89033D7F89033002B02D0D3
:103C3000464B1B6801E0464B1B68C7F8B433444B46
:103C40001B68D7F8B423C7F89823C7F89433D7F87C
:103C50009823D7F894339A4214BF01230023DBB290
:103C6000002B5AD1D7F8B433C7F8B0338CE600BF75
:103C7000D7F8C433002B0CBF01230023DBB2C7F8F5
:103C8000B833D7F8B833002B49D1314B1B68D7F87C
:103C9000C023C7F87C23C7F87833D7F87C23D7F83C
:103CA00078339A4214BF01230023DBB2C7F8803374
:103CB000D7F88033002B02D0244B1B6801E0244B43
:103CC0001B68C7F8B433224B1B68D7F8B023C7F87A
:103CD0008823C7F88433D7F88823D7F884339A42E7
:103CE00014BF01230023DBB2002B1AD04FF0FF33A7
:103CF000C7F8B83316E000BF14E000BF12E000BF01
:103D000010E000BF0EE000BF0CE000BF0AE000BF03
:103D100008E000BF06E000BF04E000BF02E000BF13
:103D200000E000BFD7F8B833002B07D0D7F8B8337E
:103D3000C7F87433D7F87433C7F8B433D7F8B4334B
:103D4000184607F57377BD4690BD00BF08040030E4
:103D5000E024003080B582B000AF7860786804F06D
:103D6000C9F90021786804F0C9F900BF0837BD46D9
:103D700080BD80B483B000AF786000BF0C37BD4613
:103D800080BC704780B584B000AFF860B9607A60DD
:103D90007A68B968F86804F00DFE034618461037D3
:103DA000BD4680BD80B582B000AF786039603968AB
:103DB000786804F005FE034618460837BD4680BD06
:103DC00080B588B002AFF860B9607A6007F1100280
:103DD00030237968B86802F079F978617B69002B43
:103DE00002D04FF0FF3359E0BB681A683B691344B7
:103DF0007A689A4202D06FF001034FE0FB68083303
:103E00001A467968B86802F079F978617B69002B05
:103E10000AD1FB6814331A467968B86802F06EF963
:103E200078617B69002B02D06FF0020336E0FB68FB
:103E30000833184602F09AFC0246FB685A60BB68D9
:103E40001B687A689A4202D06FF0030326E0FB6891
:103E500003F10801FB68143301930023009300234E
:103E60000022F86804F08EF878617B69002B02D09C
:103E70006FF0040312E0F86804F0C4F878617B691D
:103E8000002B02D06FF0050308E0FB6808331846EA
:103E900002F06CFC0246FB685A6000231846183793
:103EA000BD4680BD80B5A8B000AF78603960002302
:103EB000BB6240F25F13C7F89C3042E007F12C036D
:103EC0001846FFF747FF07F12C03202239681846F0
:103ED000FFF758FF07F1280107F12C0304221846C9
:103EE000FFF750FF07F1080207F12C0311461846AF
:103EF000FFF758FF97F82B300133DBB287F82B30F0
:103F00002023C7F89830D7F89820D7F89C309A42E9
:103F100003DDD7F89C30C7F89830D7F8982007F120
:103F200008031946786804F0E5FFD7F898307A68F6
:103F300013447B60D7F89C20D7F89830D31AC7F881
:103F40009C30D7F89C30002BB8DC07F12C031846C6
:103F5000FFF70FFF00BFA037BD4680BD90B5ADF5A0
:103F6000657D00AF07F56474A4F56174206007F502
:103F70006470A0F56270016007F56471A1F563716A
:103F80000A6007F56472A2F5647213600023C7F833
:103F900088337F4B1B68C7F8843307F56473A3F538
:103FA00061731B685B68B3F5C07F04D04FF0FF33CB
:103FB000C7F88833D8E007F56473A3F563731B680B
:103FC000202B04D04FF0FF33C7F88833CCE007F53F
:103FD000CA7207F56473A3F5647107F56473A3F5FA
:103FE00061730968186804F033F80346002B04D0A5
:103FF0004FF0FF33C7F88833B6E007F56473A3F5D5
:10400000FE7393F87F31BC2B04D04FF0FF33C7F819
:104010008833A9E007F5CA7303F25F1207F134038E
:1040200011461846FFF73EFF0023C7F88C331FE008
:1040300007F56473A3F55772D7F88C3313441A78D5
:1040400007F56473A3F5FE71D7F88C330B441B7826
:104050005340D9B207F56473A3F55772D7F88C3380
:1040600013440A461A70D7F88C330133C7F88C33DF
:10407000D7F88C33B3F5AF7FDADD07F56473A3F5BA
:1040800057731B7803F07F03DAB207F56473A3F567
:1040900057731A700023C7F88C3313E007F5647365
:1040A000A3F55772D7F88C3313441B78002B04D038
:1040B0004FF0FF33C7F8883356E0D7F88C3301331D
:1040C000C7F88C33D7F88C33B3F59F7FE6DB07F561
:1040D0006473A3F5577393F83E31012B04D04FF06E
:1040E000FF33C7F888333FE007F545731846FFF7FD
:1040F00031FE07F54573082226491846FFF742FEB0
:1041000007F56473A3F5627307F5457020221968FB
:10411000FFF738FE07F1340303F23F1107F545734B
:1041200020221846FFF72EFE07F1140207F545730B
:1041300011461846FFF736FE07F545731846FFF798
:1041400018FE134B1B68C7F884330123002B0BD0D8
:1041500007F5CA7303F25F1107F114032022184612
:10416000FEF78CFFC7F88403D7F88833002B07D0FD
:10417000D7F88833C7F88033D7F88033C7F884334B
:10418000D7F88433184607F56577BD4690BD00BF64
:104190000804003018AA001080B5B4B000AFF86071
:1041A000B9607A603B60274B1B68C7F8CC3007F1D9
:1041B0001803184603F01CFF97F8D830224A52F82B
:1041C00033307B617A6997F8D8301F49DB000B44A4
:1041D0005B681B681344C7F8C83007F1140107F186
:1041E0001803D7F8C8201846FFF7EAFDC7F8C4003F
:1041F000D7F8C430002B03D1FB693A689A4205D046
:1042000007F11803184603F071FF0FE00D4B1B6810
:10421000C7F8CC300123002B08D007F118007B68C9
:10422000BA68F968FFF79AFEC7F8CC0007F11803DF
:10423000184603F05BFFD7F8CC301846D037BD46A0
:1042400080BD00BF080400300004003080B483B09B
:1042500000AF074B1B687B600023BA8862F30F0333
:10426000FA8862F31F4318460C37BD4680BC70477E
:104270002CAA001080B400AF002343F008031846B6
:10428000BD4680BC7047000080B483B000AF78604A
:10429000074B1B7803F00603DBB2062B02D14FF06D
:1042A000FF3300E0002318460C37BD4680BC704742
:1042B00030AA001080B400AF00231846BD4680BC71
:1042C000704780B483B000AF0346FB71FB79022BCB
:1042D00001D1002301E06FF0030318460C37BD46FF
:1042E00080BC704780B586B000AFF860B9607A6076
:1042F00000231A46144B53F822207B6802FB03F379
:104300007B60124B18687B68BA68F96800F0E3F9C3
:104310000346FB75FB7D002B0AD100231A460A4B8E
:1043200053F822307A68B2FBF3F37B607B6807E0D6
:10433000FB7D012B02D16FF0040301E04FF0FF334E
:1043400018461837BD4680BD20AA0010140400305E
:1043500080B586B000AFF860B9607A6000231A4675
:10436000174B53F822207B6802FB03F37B60154B4D
:1043700018687B68BA68F96800F0D3F90346FB75E2
:10438000FB7D002B0AD100231A460D4B53F8223037
:104390007A68B2FBF3F37B607B680DE0FB7D012B59
:1043A00002D16FF0040307E0FB7D022B02D14FF036
:1043B000FF3301E04FF0FF3318461837BD4680BD8C
:1043C00020AA00101404003080B584B000AF7860DB
:1043D0000C4B1B687968184600F0E4F90346FB7340
:1043E000FB7B002B01D1002307E0FB7B012B02D1DB
:1043F0006FF0040301E04FF0FF3318461037BD465D
:1044000080BD00BF1404003080B500AF034B1B68B3
:10441000184600F0F7F90023184680BD1404003058
:1044200080B400AF024B1846BD4680BC704700BF49
:1044300034AA001080B400AF024B1B681846BD467A
:1044400080BC7047A036003080B586B000AFF86001
:10445000B9607A6000231A46144B53F822207B6817
:1044600002FB03F37B60124B18687B68BA68F9683B
:1044700000F031F90346FB75FB7D002B0AD10023C8
:104480001A460A4B53F822307A68B2FBF3F37B608A
:104490007B6807E0FB7D012B02D16FF0040301E094
:1044A0004FF0FF3318461837BD4680BD20AA0010D4
:1044B0002004003080B586B000AFF860B9607A6043
:1044C00000231A46174B53F822207B6802FB03F3A4
:1044D0007B60154B18687B68BA68F96800F021F9B1
:1044E0000346FB75FB7D002B0AD100231A460D4BBA
:1044F00053F822307A68B2FBF3F37B607B680DE0FF
:10450000FB7D012B02D16FF0040307E0FB7D022B42
:1045100002D14FF0FF3301E04FF0FF331846183758
:10452000BD4680BD20AA00102004003080B584B0B4
:1045300000AF78600C4B1B687968184600F032F9C0
:104540000346FB73FB7B002B01D1002307E0FB7BC1
:10455000012B02D16FF0040301E04FF0FF33184646
:104560001037BD4680BD00BF2004003080B500AFCD
:10457000034B1B68184600F045F90023184680BD20
:104580002004003080B400AF024B1846BD4680BC0A
:10459000704700BF78AA001080B400AF024B1B68C0
:1045A0001846BD4680BC7047A436003080B400AFCA
:1045B0000A4B0B4A9A60094B5B69084A43F4002393
:1045C0005361BFF36F8F00BF064B1B68054A23F092
:1045D000FF03136000BFBD4680BC704700ED00E0E4
:1045E0000000001000E301E080B485B000AF786007
:1045F00039600023BB600023FB607B685B685B68FD
:104600007A685268926802FB03F3013BBB603A6828
:10461000BB689A4202D94FF0FF33FB60FB68184633
:104620001437BD4680BC704780B485B000AF786059
:1046300039600023FB607B685B681A693B68B3FBE9
:10464000F2F101FB02F29B1A002B02D04FF0FF3374
:10465000FB60FB6818461437BD4680BC704780B4C9
:1046600085B000AF786039600023FB607B685B68D1
:104670009A683B68B3FBF2F101FB02F29B1A002B34
:1046800002D04FF0FF33FB60FB6818461437BD467D
:1046900080BC704780B485B000AF7860396000237B
:1046A000FB600023BB600CE07A68BB6813441B7896
:1046B000FF2B03D04FF0FF33FB6006E0BB680133F4
:1046C000BB60BA683B689A42EED3FB681846143761
:1046D000BD4680BC704780B586B000AFF860B96059
:1046E0007A603B60FB681B68BA6813447B610023F7
:1046F0003B61BA683B6813441946F868FFF774FFDA
:1047000038613B69002B01D0012306E07B693A68E0
:104710001946786804F0EEFB002318461837BD46AA
:1047200080BD80B586B000AFF860B9607A603B604C
:10473000FB681B68BA6813447B6100233B61BA685D
:104740003B6813441946F868FFF74EFF3861B968B3
:10475000F868FFF769FF02463B6913433B6139681C
:10476000F868FFF761FF02463B6913433B613B6911
:10477000002B01D0012311E07B6939681846FFF74F
:1047800089FF38613B69002B01D0022306E07B6979
:104790003A687968184604F0ADFB002318461837CC
:1047A000BD4680BD80B584B000AF786039607B685D
:1047B0001B683A681344FB600023BB603968786863
:1047C000FFF712FF0346BB6039687868FFF747FFC1
:1047D00003461A46BB681343BB60BB68002B01D07D
:1047E00001230BE0F8687B685B681B7D19467B68DA
:1047F0005B689B681A4604F08AFB00231846103752
:10480000BD4680BD80B584B000AF78607B681B6812
:10481000BB600023FB6013E0B8687B685B681B7DAE
:1048200019467B685B689B681A4604F070FB7B68DE
:104830005B689B68BA681344BB60FB680133FB602C
:104840007B685B685B68FA689A42E5D300BF00BF8B
:104850001037BD4680BD000080B483B000AF034672
:104860003960FB71FB79662B04D13B684FF08852AD
:104870001A601FE0FB79662B04D13B684FF0885229
:104880001A6017E0FB79672B03D13B680C4A1A606A
:1048900010E0FB79672B03D13B68094A1A6009E0F5
:1048A000FB79672B03D13B68054A1A6002E04FF0A1
:1048B000FF3300E0002318460C37BD4680BC70472C
:1048C0000000103180B584B000AF104BFB60FB6876
:1048D0007B607B6883F30A8800BF0D4B9B680020D8
:1048E0009847B860BB68002B01D001230AE0084B51
:1048F0009B6800209847B860BB68002B01D001235B
:1049000000E0002318461037BD4680BD60370030F8
:104910004CAA001080B586B000AF7860154BDB68FC
:10492000984778617B69002B00D0FEE7114BDB686C
:10493000984778617B69002B00D0FEE70E4A7B68C0
:1049400013600023FB60FB6883F30A8800BF7B6869
:104950001B683B613B6983F3088800BFBFF34F8F3F
:1049600000BFBFF36F8F00BF034B1B685B68184627
:1049700000F012F84CAA0010A836003000200449BC
:10498000044A521A043A01DB8850FBE7704700BF23
:1049900000040030605F00300746FFF7EFFF0020A3
:1049A00001460246034604460546064680468146C1
:1049B0008246834684468646384700BF80B400AFAF
:1049C00000231846BD4680BC7047000080B584B007
:1049D00000AF786039600F4B5B6939687868984739
:1049E000F860FB68002B01D000230EE000BF094BEC
:1049F000DB6A98470346DBB203F00103DBB2002B0E
:104A0000F5D1044B1B6A9847034618461037BD463C
:104A100080BD00BF48AB001080B584B000AFF86027
:104A2000B9607A607B681946B868FFF7CFFF034624
:104A300018461037BD4680BD80B582B000AF1A4B16
:104A40009B680020984778607B68002B05D0174B47
:104A5000174A5B21174804F0C5F9134B1B69022064
:104A6000984778607B68002B05D0104B104A5E2178
:104A7000104804F0B7F90C4B9B6A4FF4E131012068
:104A8000984778607B68002B05D0084B084A622164
:104A9000084804F0A7F9044B9B6A012115209847A8
:104AA00000BF0837BD4680BD48AB0010BCAA00104F
:104AB0001CAB0010D4AA001080B582B000AF0A4B26
:104AC0001B6900209847084BDB68984778607B6833
:104AD000002B05D0054B064A6F21064804F082F9E9
:104AE00000BF0837BD4680BD48AB0010BCAA00100F
:104AF00028AB0010D4AA001080B500AF00F0EEF98A
:104B00000346184680BD80B5AAB000AFF860B96012
:104B10007A6007F198031946F86800F061FFC7F85A
:104B20009C00D7F89C30002B02D0D7F89C304DE089
:104B3000D7F89830802B28BF8023C7F89830D7F853
:104B4000983007F118021946F86800F0F1FCC7F830
:104B50009C00D7F89C30002B02D0D7F89C3035E071
:104B600000237B610023C7F8A43021E0002387F8ED
:104B7000A33014E007F11802D7F8A43013441B78CF
:104B80001A4697F8A33042FA03F303F001027B6957
:104B900013447B6197F8A330013387F8A33097F86B
:104BA000A330072BE6D9D7F8A4300133C7F8A430D7
:104BB000D7F89830D7F8A4209A42D7D307F1140336
:104BC00004221946786804F095F900231846A8379E
:104BD000BD4680BD80B584B000AFF860B9607A6032
:104BE000BB68042B02D043F65C2323E0FB68052B53
:104BF00017D0FB68052B1BD8FB68032B03D0FB6881
:104C0000042B07D014E07A68B9680E20FFF77BFF09
:104C100003460FE07A68B9680F20FFF774FF034678
:104C200008E07A68B9681020FFF76DFF034601E0DD
:104C30004CF25A3318461037BD4680BD80B5A6B039
:104C400000AF7860396007F18C031946786800F08E
:104C5000C7FEC7F89000D7F89030002B02D0D7F8E5
:104C600090304EE0D7F88C30802B28BF8023C7F8D7
:104C70008C30D7F88C30DB003A689A4202D945F282
:104C8000A3533EE007F10C0380220021184604F0F4
:104C90003EF90023C7F894300BE007F10C02D7F877
:104CA00094301344FF221A70D7F894300133C7F8B8
:104CB00094303B68DB08D7F894209A42EDD33B68E8
:104CC00003F00703012202FA03F3DBB2013BD9B27E
:104CD00007F10C02D7F8943013440A461A70D7F83B
:104CE0008C3007F10C021946786800F093FDC7F884
:104CF0009000D7F89030002B02D0D7F8903000E029
:104D0000002318469837BD4680BD80B582B000AFFD
:104D1000786039607B68052B15D07B68052B18D827
:104D20007B68032B03D07B68042B06D011E0396825
:104D30000E20FFF783FF03460DE039680F20FFF7D1
:104D40007DFF034607E039681020FFF777FF034631
:104D500001E04CF25A3318460837BD4680BD80B595
:104D600086B000AFF860B9607A607B681B68BA688B
:104D70001946F86800F0DCFB78617B69002B01D0F4
:104D80007B690FE007F110031946F86800F028FE70
:104D900078617B69002B01D07B6903E03A697B680D
:104DA0001A60002318461837BD4680BD80B584B010
:104DB00000AF0346B9607A60FB73FB7B022B14D013
:104DC000022B19DC002B02D0012B07D014E07A68EB
:104DD000B9680B20FFF7C3FF03460FE07A68B96894
:104DE0000C20FFF7BCFF034608E07A68B9680D2085
:104DF000FFF7B5FF034601E04AF2C5331846103706
:104E0000BD4680BD80B58AB000AFF860B9607A60F9
:104E100000237B622F4B5B68984703467B613B7D99
:104E2000C3F34103DBB21A462B4B53F8223087F809
:104E3000233097F82320FB68B3FBF2F101FB02F269
:104E40009B1A002B02D04AF2C5333EE07B68FB611F
:104E50000023BB61FB69002B0DD01E4B5B69FA6818
:104E600002F5792097F823207968B1FBF2F2B9684E
:104E7000984703467B6297F823307A68B2FBF3F3D6
:104E800097F8232002FB03F3BA691344BB61FA6964
:104E9000BB69D31AFB61FB69002B15D00D4B5B6915
:104EA000F968BA690A4402F5792007F11001012274
:104EB000984703467B62BA68BB69134407F1100147
:104EC000FA69184604F016F8002318462837BD463C
:104ED00080BD00BF90AA001038AB001080B584B030
:104EE00000AF0023FB60284B9B68002098470346D7
:104EF000FB60FB68002B02D043F65C233FE007F128
:104F00000803042219460020FFF77CFFF860FB68C5
:104F1000002B01D0FB6832E03B1D042219464FF400
:104F20002770FFF76FFFF860FB68002B01D0FB686C
:104F300025E0BB68154A934203D17B68144A93422B
:104F400003D000F015FAF86018E03B1D0422194662
:104F500041F29C20FFF756FFF860FB68002B01D060
:104F6000FB680CE07B680A4A934207D000F0C8F85F
:104F7000F860FB68002B01D0FB6800E0FB68184676
:104F80001037BD4680BD00BF90AA00101281DEC060
:104F9000DEC0723080B483B000AF786039607B6867
:104FA0003A68B3FBF2F2396801FB02F29B1A7A68A5
:104FB000D31A18460C37BD4680BC704780B483B006
:104FC00000AF786039607A683B681A4479683B685A
:104FD0000B44013B3968B3FBF1F1386800FB01F188
:104FE0005B1AD31A013B18460C37BD4680BC70478C
:104FF00080B584B000AF786039600023FB607B68C7
:10500000C3F30B03002B02D04AF2C5331DE04FF46B
:1050100080517868FFF7BEFFB8600FE00D4BDB6989
:10502000B86898470346FB60FB68002B02D043F644
:105030005C230AE0BB6803F58053BB607A683B6879
:105040001344BA689A42E9D3FB6818461037BD4644
:1050500080BD00BF90AA001080B58AB000AFF86094
:10506000B9607A6000233B627B68FB61214B5B681F
:10507000984703463B613B7CC3F34103DBB21A46CE
:105080001D4B53F82230FB7600237B6228E07B6ABD
:105090008033FA699A4203D2FA697B6AD31A00E034
:1050A00080237B61134B5B69F9687A6A8818FA7E02
:1050B0007969B1FBF2F21149984703463B620D4B07
:1050C0009B69B9687A6A8818FA7E7969B1FBF2F24D
:1050D0000A49984703463B627A6A7B6913447B62BC
:1050E0007A6AFB699A42D2D3002318462837BD4614
:1050F00080BD00BF90AA001038AB0010AC36003065
:1051000080B582B000AF00237B604FF480514FF434
:105110007A20FFF76DFF78607B68002B01D07B68F9
:1051200009E04FF480524FF47A214FF47920FFF7D1
:1051300093FF78607B6818460837BD4680BD000045
:1051400090B58FB000AFF860B9607A600023BB62A1
:1051500000233B634FF48051F868FFF71BFF786230
:10516000FA687B6813444FF480511846FFF726FF16
:1051700038626A4B5B68984703467B613B7DC3F3AB
:105180004103DBB21A46664B53F82230FB773B6A89
:10519000B3F5277F10D24FF480516248FFF7FAFE33
:1051A00003464FF480511846FFF722FFB862BB6AEE
:1051B000002B01D0BB6AACE0FB6803F579234FF408
:1051C00080511846FFF7E6FE04464FF48051786898
:1051D000FFF7F4FE034619462046FFF709FFB862C1
:1051E000BB6A002B01D0BB6A93E07B6A7B6367E0FC
:1051F0007B6B80333A6A9A4203D23A6A7B6BD31A4A
:1052000000E08023BB61454B5B697A6B02F57A2035
:10521000FA7FB969B1FBF2F2434998470346BB6292
:105220007A6BBB691344FA689A4229D8FA687B689A
:1052300013447A6B9A4223D2FA683B6B134403F00F
:105240007F03C3F18003FB623A6BFB6A13447A6805
:105250009A4203D27A683B6BD31AFB62FA683B6BC3
:10526000134403F07F03304A9818BA683B6B134429
:10527000FA6A194603F03EFE3A6BFB6A13443B633D
:10528000264B9B697A6B02F57920FA7FB969B1FBED
:10529000F2F2254998470346BB627A6BFB689A4253
:1052A0000AD3FA687B6813447A6B9A4204D280224C
:1052B00000211D4803F02BFE7A6BBB6913447B630E
:1052C0007A6B3B6A9A4293D33B6AB3F5277F17D236
:1052D0004FF480511548FFF75DFE04464FF48051AE
:1052E0001048FFF757FE03464FF4805219462046F8
:1052F000FFF7B2FEB862BB6A002B01D0BB6A08E0C0
:10530000FFF7FEFEB862BB6A002B01D0BB6A00E06B
:10531000BB6A18463C37BD4690BD00BF90AA00103E
:1053200038AB00109C920F00AC3600309CA20F00EE
:1053300080B582B000AF00237B604FF480514FF402
:105340007920FFF755FE78607B68002B01D07B68E1
:1053500009E04FF480524FF479214FF47A20FFF79F
:105360007BFE78607B6818460837BD4680BD00002C
:1053700080B58AB000AF00237B624F4B5B689847D3
:1053800003463B603B78C3F34103DBB21A464B4B09
:1053900053F82230FB7707F10803042219464FF433
:1053A0008050FFF72FFD78627B6A002B01D07B6A6B
:1053B0007DE03B1D0422194641F29C20FFF722FDAF
:1053C00078627B6A002B01D07B6A70E0BB683C4A44
:1053D00093420BD17B683B4A934207D1FFF7A8FF6A
:1053E00078627B6A002B61D07B6A60E04FF4805169
:1053F0004FF47920FFF7FCFD78627B6A002B01D027
:105400007B6A54E0802200212F4803F080FD4FF496
:105410008053BB6100233B621BE03B6A8033BA6967
:105420009A4203D2BA693B6AD31A00E080237B61B7
:10543000214B9B693A6A02F57920FA7F7969B1FBC1
:10544000F2F22149984703467B623A6A7B6913442A
:105450003B623A6ABB699A42DFD3FFF751FE78623A
:105460007B6A002B01D07B6A21E0154B3B6107F181
:105470001003042219460020FFF762FE78627B6A5F
:10548000002B02D043F65C2311E00E4BFB6007F1CA
:105490000C03042219464FF42770FFF751FE78627F
:1054A0007B6A002B02D043F65C2300E07B6A18463F
:1054B0002837BD4680BD00BF90AA001038AB001051
:1054C0001281DEC0DEC07230AC36003080B500AF75
:1054D000FFF704FD0346184680BD80B588B000AFD5
:1054E000F860B9607A603B600023FB6107F1140348
:1054F0001946F86800F074FAF861FB69002B01D0D6
:10550000FB6911E07B697A68934228BF1346BB614F
:10551000BA693968B868FFF775FCF861FB69002B58
:1055200001D0FB6900E0002318462037BD4680BD4E
:1055300080B584B000AFF860B9607A60FB68182B62
:1055400000F2D68001A252F823F000BFB15500103E
:10555000C1550010D1550010E1550010F155001053
:10556000015600101156001021560010315600103F
:10557000415600105156001061560010735600102D
:105580008556001097560010A9560010BB56001003
:10559000F1560010F1560010F1560010F1560010AF
:1055A000F1560010F1560010CD560010DF560010D5
:1055B0007B68BA680421F868FFF78FFF034699E01B
:1055C0007B68BA682421F868FFF787FF034691E0FB
:1055D0007B68BA684421F868FFF77FFF034689E0DB
:1055E0007B68BA684821F868FFF777FF034681E0D7
:1055F0007B68BA684C21F868FFF76FFF034679E0D3
:105600007B68BA686C21F868FFF767FF034671E0B2
:105610007B68BA688C21F868FFF75FFF034669E092
:105620007B68BA689021F868FFF757FF034661E08E
:105630007B68BA68B021F868FFF74FFF034659E06E
:105640007B68BA68D021F868FFF747FF034651E04E
:105650007B68BA68F021F868FFF73FFF034649E02E
:105660007B68BA684FF48871F868FFF736FF034625
:1056700040E07B68BA684FF49871F868FFF72DFF37
:10568000034637E07B68BA684FF40471F868FFF7A7
:1056900024FF03462EE07B68BA684FF4A871F868CF
:1056A000FFF71BFF034625E07B68BA684FF4C8711B
:1056B000F868FFF712FF03461CE07B68BA684FF4F6
:1056C000E871F868FFF709FF034613E07B68BA68E2
:1056D0004FF40C71F868FFF700FF03460AE07B689F
:1056E000BA684FF41C71F868FFF7F7FE034601E053
:1056F0004CF25A3318461037BD4680BD2DE9F043B1
:105700008BB000AFF860B9607A603B606B461E46B4
:1057100000233B6279680B46013BFB61002388460E
:1057200099464FF000024FF000034FEAC90343EAE5
:1057300058734FEAC80200230C461D464FF0000282
:105740004FF00003EB0043EA5473E200CB1DDB088B
:10575000DB00ADEB030D6B460033BB6107F11403B7
:105760001946F86800F03CF938623B6A002B01D01A
:105770003B6A49E07B697A689A4202D94AF2C533AA
:1057800042E07A68B969B868FFF73CFB38623B6A67
:10579000002B01D03B6A37E000237B6224E0BA692A
:1057A0007B6A13441A7839687B6A0B441B7813436D
:1057B000DAB239687B6A0B441B789A4202D04AF20B
:1057C000C53321E0BA697B6A13441A7839687B6A69
:1057D0000B441B781343D9B2BA697B6A13440A4657
:1057E0001A707B6A01337B627A6A7B689A42D6D3ED
:1057F0007A68B969B868FFF7A3FC38623B6A002B86
:1058000001D03B6A00E00023B54618462C37BD4660
:10581000BDE8F08380B584B000AFF860B9607A600D
:10582000FB68182B00F2D68001A252F823F000BFCB
:1058300095580010A5580010B5580010C558001014
:10584000D5580010E5580010F55800100559001003
:1058500015590010255900103559001045590010F0
:1058600057590010695900107B5900108D590010CC
:105870009F590010D5590010D5590010D559001066
:10588000D5590010D5590010D5590010B159001044
:10589000C35900107B68BA680421F868FFF72EFF2F
:1058A000034699E07B68BA682421F868FFF726FF71
:1058B000034691E07B68BA684421F868FFF71EFF51
:1058C000034689E07B68BA684821F868FFF716FF4D
:1058D000034681E07B68BA684C21F868FFF70EFF49
:1058E000034679E07B68BA686C21F868FFF706FF29
:1058F000034671E07B68BA688C21F868FFF7FEFE0A
:10590000034669E07B68BA689021F868FFF7F6FE05
:10591000034661E07B68BA68B021F868FFF7EEFEE5
:10592000034659E07B68BA68D021F868FFF7E6FEC5
:10593000034651E07B68BA68F021F868FFF7DEFEA5
:10594000034649E07B68BA684FF48871F868FFF74E
:10595000D5FE034640E07B68BA684FF49871F8685A
:10596000FFF7CCFE034637E07B68BA684FF404715A
:10597000F868FFF7C3FE03462EE07B68BA684FF471
:10598000A871F868FFF7BAFE034625E07B68BA689D
:105990004FF4C871F868FFF7B1FE03461CE07B685E
:1059A000BA684FF4E871F868FFF7A8FE034613E001
:1059B0007B68BA684FF40C71F868FFF79FFE0346E6
:1059C0000AE07B68BA684FF41C71F868FFF796FE2E
:1059D000034601E04CF25A3318461037BD4680BDED
:1059E00080B483B000AF786039607B68182B00F218
:1059F000818001A252F823F05D5A0010655A001010
:105A00006D5A0010755A00107D5A0010855A00100A
:105A10008D5A0010955A00109D5A0010A55A00107A
:105A2000AD5A0010B55A0010BD5A0010C55A0010EA
:105A3000CD5A0010D55A0010DD5A0010F55A00104A
:105A4000F55A0010F55A0010F55A0010F55A0010DA
:105A5000F55A0010E55A0010ED5A00103B6820225C
:105A60001A604AE03B6820221A6046E03B68042244
:105A70001A6042E03B6804221A603EE03B68202244
:105A80001A603AE03B6820221A6036E03B68042244
:105A90001A6032E03B6820221A602EE03B68202228
:105AA0001A602AE03B6820221A6026E03B68202228
:105AB0001A6022E03B6820221A601EE03B68202228
:105AC0001A601AE03B6820221A6016E03B68402208
:105AD0001A6012E03B6840221A600EE03B684022E8
