:020000040C01ED
:102000004200DEC04200DEC0000000000000000010
:1020100000000000000000000000000000000000C0
:1040000048550330A954010CBDD9010C65C5020CFB
:1040100065C5020C65C5020C65C5020C65C5020CC0
:10402000000000000000000000000000A151010C91
:10403000A751010C00000000AD51010CB351010C5F
:10404000B951010CBF51010CC551010CCB51010CF0
:10405000D151010CD751010CDD51010CE351010C80
:10406000E951010CEF51010CF551010CFB51010C10
:104070000152010C0752010C0D52010C1352010C9C
:104080001952010C1F52010C2552010C2B52010C2C
:104090003152010C3752010C3D52010C4352010CBC
:1040A0004952010C4F52010C5552010C5B52010C4C
:1040B0006152010C6752010C6D52010C7352010CDC
:1040C0007952010C7F52010C8552010C8B52010C6C
:1040D0009152010C9752010C9D52010CA352010CFC
:1040E000A952010CAF52010CB552010CBB52010C8C
:1040F000C152010CC752010CCD52010CD352010C1C
:10410000D952010CDF52010CE552010CEB52010CAB
:10411000F152010CF752010CFD52010C0353010C3A
:104120000953010C0F53010C1553010C1B53010CC7
:104130002153010C2753010C2D53010C3353010C57
:104140003953010C3F53010C4553010C4B53010CE7
:104150005153010C5753010C5D53010C6353010C77
:104160006953010C6F53010C7553010C7B53010C07
:104170008153010C8753010C8D53010C9353010C97
:104180009953010C9F53010CA553010CAB53010C27
:10419000B153010CB753010CBD53010CC353010CB7
:1041A000C953010CCF53010CD553010CDB53010C47
:1041B000E153010CE753010CED53010CF353010CD7
:1041C000F953010CFF53010C0554010C0B54010C65
:1041D0001154010C1754010C1D54010C2354010CF3
:1041E0002954010C2F54010C3554010C3B54010C83
:1041F0004154010C4754010C4D54010C5354010C13
:104200005954010C5F54010C6554010C6B54010CA2
:104210007154010C7754010C7D54010C8354010C32
:104220008954010C8F54010C9554010C9B54010CC2
:10423000A154010C10B5054C237833B9044B13B1CC
:10424000044800E000BF0123237010BD24010330A7
:10425000000000003C85020C08B5034B1BB103496C
:10426000034800E000BF08BD000000002801033043
:104270003C85020CA3F5803A704700BF174B002B1A
:1042800008BF134B9D46FFF7F5FF00218B460F46F5
:104290001348144A121A11F0F4FC0E4B002B00D0F4
:1042A00098470D4B002B00D09847002000210400B8
:1042B0000D000D48002802D00C4800E000BF11F0AE
:1042C00097FC2000290000F017FD11F06BFC00BFE7
:1042D0000000080000000000000000004855033006
:1042E00024010330483503300000000000000000C6
:1042F00080B485B000AFF860B9607A607B68DB435A
:10430000BA689A4201D9002305E0BA687B681A446A
:10431000FB681A60012318461437BD4680BC7047FD
:1043200080B586B000AFF860B9607A60FB68002B9A
:1043300001D1002316E007F114037A68B968184622
:10434000FFF7D6FF034683F00103DBB2002B01D059
:10435000002307E0FB68DA687B699A4201D20023F8
:1043600000E0012318461837BD4680BD80B485B0F3
:1043700000AF03463960FB710023FB600AE0134A7B
:10438000FB681B0113441B78FA799A4208D0FB683A
:104390000133FB600E4B1B68FA689A42EFDB00E0CA
:1043A00000BF0B4B1B68FA689A4202D14FF0FF33F3
:1043B00006E0FB681B01054A1A443B681A600023AB
:1043C00018461437BD4680BC704700BF346D020CE0
:1043D000846D020C80B483B000AF786000BF0C37EE
:1043E000BD4680BC7047000080B58EB000AFF8605D
:1043F000B9607A603B60002387F82F300023BB62EE
:104400003A68B968F868FFF78BFF034683F0010349
:10441000DBB2002B02D04FF0FF33CFE03B687B6371
:10442000FB685B685B68984703467B613B7DC3F331
:104430004103DBB21A46634B53F8223087F827302A
:1044400097F827305B421A46BB6813403B623A6AD2
:10445000BB689A4243D0FB685B685B69FA68916805
:104460003A6A881807F1180101229847B862BB6AB6
:10447000002B01DABB6AA1E0BA683B6AD21A3B683A
:104480001A4497F827309A4206D397F82720396ABA
:10449000BB68CB1A134400E03B68FB61002387F83C
:1044A0002F3013E097F82F20BB681A443B6AD21ACA
:1044B00097F82F3079680B4438323A4412F8202CA0
:1044C0001A7097F82F30013387F82F3097F82F3074
:1044D000FA699A42E6D87A6BFB69D31A7B637B6BE5
:1044E000002B26D097F827307A6BB2FBF3F33B63AF
:1044F0003B6B002B1DD0FB685B685B69FA689168B9
:10450000BA68114497F82F20881897F82F207968F7
:1045100011443A6B9847B862BB6A002B01DABB6A58
:104520004CE097F827303A6B02FB03F37A6BD31A0F
:104530007B637B6B002B3BD0FB685B685B69FA6835
:104540009168BA68114497F82F20114497F82720F2
:10455000386B00FB02F2881807F118010122984716
:10456000B862BB6A002B01DABB6A27E0002387F838
:104570002E3018E097F82E2097F82F1097F8273054
:10458000386B00FB03F3194497F82E300B4479681D
:104590000B4438323A4412F8202C1A7097F82E3017
:1045A000013387F82E3097F82E307A6B9A42E1D893
:1045B000BB6A002B01DABB6A00E0002318463837DB
:1045C000BD4680BD286D020C80B598B000AFF86084
:1045D000B9607A603B6000237B65BB6823F00F0302
:1045E0003B65BA683B6DD31AFB643A68B968F868F2
:1045F000FFF796FE034683F00103DBB2002B02D0E7
:104600004FF0FF333AE1FB685B685B68984703460D
:104610007B613B7DC3F34103DBB21A46994B53F8F0
:10462000223087F84B3007F12802FB6C396DF868AF
:10463000FFF7DAFE0346002B02D04FF0FF331DE1F7
:104640003A68FB6C13440F3323F00F037B647A6CDE
:104650003B68D21AFB6CD31A3B647A6C396DF868EC
:10466000FFF75EFE034683F00103DBB2002B02D0AE
:104670004FF0FF3302E1BA683B68D11807F1180226
:104680003B6CF868FFF7B0FE0346002B02D04FF0FA
:10469000FF33F3E0FB6C002B5CD0FB6CFB6500236D
:1046A0007B650FE07A687B6D1344197807F1280267
:1046B000FB6D13440A461A70FB6D0133FB657B6D7D
:1046C00001337B65FB6D0F2B03D87A6D3B689A42F3
:1046D000E8D37A6D3B689A4221D10023BB6510E094
:1046E00007F11802BB6D1344197807F12802FB6D1E
:1046F00013440A461A70FB6D0133FB65BB6D013331
:10470000BB65FB6D0F2B03D8BA6D3B6C9A42E7D3A8
:10471000BA6D3B6C9A4202D04FF0FF33AEE0FB6DB6
:10472000102B02D04FF0FF33A8E0FB685B689B6959
:10473000FA6891683A6D881897F84B20102191FB20
:10474000F2F207F1280198470346002B02DA4FF0F6
:10475000FF3393E07A6D3B689A4280F08E803A682E
:104760007B6DD31A23F00F03FB63FB6B002B19D077
:10477000FB685B689B69FA689168BA6811447A6D56
:10478000881897F84B20F96BB1FBF2F279689847DB
:104790000346002B02DA4FF0FF336FE07A6DFB6BBC
:1047A00013447B657B6DBB633B6C002B65D00023A2
:1047B000FB650FE07A687B6D1344197807F12802D6
:1047C000FB6D13440A461A70FB6D0133FB657B6D6C
:1047D00001337B65FB6D0F2B03D87A6D3B689A42E2
:1047E000E8D37A6D3B689A4202D04FF0FF3345E040
:1047F0000023BB6510E007F11802BB6D1344197864
:1048000007F12802FB6D13440A461A70FB6D013351
:10481000FB65BB6D0133BB65FB6D0F2B03D8BA6D18
:104820003B6C9A42E7D3FA6CBB6B13441033FB63C7
:10483000FB6D102B07D1BA6D3B6C9A4203D17A6C99
:10484000FB6B9A4202D04FF0FF3317E0FB685B68C6
:104850009B69FA689168BA681144BA6B881897F82E
:104860004B20102191FBF2F207F1280198470346F3
:10487000002B02DA4FF0FF3300E0002318466037C8
:10488000BD4680BD286D020C80B588B000AFF860D1
:10489000B9607A600023FB610023BB617A68B96864
:1048A000F868FFF73DFD034683F00103DBB2002B00
:1048B00002D04FF0FF3327E0FB685B689B6A9847A4
:1048C00078617B691B68002B1DD116E0FB685B6873
:1048D000DB69FA689168BA680A4410469847B8617B
:1048E000BB69002B0ED17B699B68FA691344FB619D
:1048F0007B699B68BA681344BB60FA697B689A421B
:10490000E4D300E000BFBB6918462037BD4680BD38
:1049100080B584B000AF78607B685B689B6A98471D
:10492000F860FB681B6918461037BD4680BD80B42F
:1049300085B000AF78607B6813F1040F01D90623BE
:1049400008E07B680333FB60FB68052B01D9062375
:1049500000E0FB6818461437BD4680BC7047000075
:1049600080B582B000AF0B4B1B687B600EF06AFA1B
:1049700003463B603B68002B02D0064B1B6801E0FE
:10498000054B1B687B6000F0E9FF7B681846083721
:10499000BD4680BD0C0003300800033080B588B0F0
:1049A00000AF786039601A4B1B68FB613B68002BD5
:1049B00004D100F0D3FF164B1B6825E07868FFF7A1
:1049C000B6FFB861BB69052B04D900F0C7FF104BD7
:1049D0001B6819E007F10C031A460421B8690EF0B0
:1049E000CFFA03463B613B69002B02D0084B1B68A2
:1049F00001E0084B1B68FB61FB687B617A693B68DF
:104A00001A6000F0ABFFFB6918462037BD4680BD39
:104A10000C0003300800033080B584B000AF78602C
:104A200039607868FFF783FFF860FB68052B02D9CF
:104A30004FF0FF330BE03968F8680EF0EDFAB8601C
:104A4000BB68002B02D04FF0FF3300E00023184674
:104A50001037BD4680BD80B586B000AF7860396044
:104A60000023FB757B68002B02D03B68002B02D132
:104A70004FF0FF3343E00023BB7520E0BB7D002BEC
:104A800006D0BB7D012B01D1022302E0FF2300E011
:104A9000012307F1080211461846FFF767FC034699
:104AA000002B02D04FF0FF3329E0BB683A689A42EE
:104AB00002D1BB7DFB7505E0BB7D0133BB75BB7DC2
:104AC000012BDBD9BB7D022B02D14FF0FF3316E067
:104AD0007A6807F10C03143292E8030083E80300BC
:104AE000FB7D9BB29B019BB203F47C63BB8207F10D
:104AF0000C03B98A0822022000F0A0FD03461846E4
:104B00001837BD4680BD000080B584B002AF3B467B
:104B10001A46082101200EF05DFCD7E900230C485D
:104B20000C498B4208BF824207D10B4B00930B4BC1
:104B30000B4A0C490C4811F08DFC3B460822002121
:104B4000184611F09EF800BF0837BD4680BD00BF73
:104B5000A9B454B26D6F90A4586E020CEC6D020CA7
:104B60000C6E020C3C6E020C446E020C80B582B0DE
:104B700000AF3B461A46042106200EF02BFC78605D
:104B80007B68002B01D07B6808E03B68002B02D0DB
:104B90003B68012B01D1012300E0002318460837B0
:104BA000BD4680BD80B582B000AF1A4A20210B20DF
:104BB0000EF0F6FC78607B68002B06D07B684CF228
:104BC0005A32934201D07B6820E0134A20210C2006
:104BD0000EF0E6FC78607B68002B06D07B684CF218
:104BE0005A32934201D07B6810E00C4A20210D20FC
:104BF0000EF0D6FC78607B68002B06D07B684CF208
:104C00005A32934201D07B6800E07B68184608372F
:104C1000BD4680BD8C6D020CAC6D020CCC6D020CDF
:104C200080B582B000AF3B461A46042106200EF044
:104C3000D1FB78607B68002B01D07B6818E00E48C0
:104C400011F008FC3B68002B11D100220B4B9A425B
:104C500005D00B4811F0FEFB4AF2C53308E0FFF720
:104C6000A1FF78607B68002B01D07B6800E0002307
:104C700018460837BD4680BD606E020CEDFEDEC0F2
:104C8000846E020C80B586B000AF78607B681B79BB
:104C900007F10C021146184600F0F8F838613B693C
:104CA000002B05D0114B124A4021124810F054FF3E
:104CB0007B681B681B6903F02003002B08D07B680E
:104CC0001B685B687A681268128913447B6108E08C
:104CD0007B689A68FB6813447A68126812891344E7
:104CE0007B610EF0D1FA786917F0B2F9C06E020C50
:104CF0008C70020CC86E020C80B58CB000AF4D4BAE
:104D00001B68FB624FF400514B4806F079FF0EF030
:104D10007BFA07F087FE0346002B04D0474811F0CA
:104D200099FB00F02FFE464811F094FB0EF01FFB9C
:104D3000B862BB6A002B04D0424811F08BFB00F034
:104D400021FEFFF713FF0346002B0BD0FFF768FF90
:104D5000B862BB6A002B07D03B4811F07BFB00F028
:104D600011FE01E0FFF7D0FE00F0CCFD7862314B80
:104D70001B68FB620123002B02D0FFF7F1FDF862F4
:104D8000786A00F0D5FD314B1B68FA6AFA61BB61A5
:104D9000FA69BB699A4214BF01230023DBB2002BDE
:104DA00004D02B4811F056FB00F0ECFD0EF0E6F9B4
:104DB0000346002B04D0274811F04CFB00F0E2FD25
:104DC00000F0A0FD38621B4B1B68FB620123002B27
:104DD00004D03B1D184602F065FAF862386A00F00C
:104DE000A7FD1A4B1B68FA6A7A613B617A693B69D5
:104DF0009A4214BF01230023DBB2002B04D01648D3
:104E000011F028FB00F0BEFDFB681946134811F0B5
:104E100021FB134811F01EFB3B1D1846FFF732FF24
:104E2000104811F017FB00F0ADFD00231846303795
:104E3000BD4680BD0C00033040010330086F020CFA
:104E4000286F020C446F020C706F020C08000330D4
:104E50008C6F020CC46F020CE86F020C1070020C15
:104E60004470020C6C70020C80B584B000AF034635
:104E7000B9607A60FB73FB7B7A68B96818460EF0FC
:104E80004AFA034618461037BD4680BD80B582B049
:104E900000AF03463960FB71FB79642B08D0FB79C6
:104EA00064221946074811F0D5FA4FF0FF3304E0A9
:104EB0003B684FF040621A60002318460837BD4631
:104EC00080BD00BF9870020C80B483B000AF7860E2
:104ED00039603B68022B21D03B68022B20DC3B6809
:104EE000002B03D03B68012B0CD019E07B68002B12
:104EF00006D07B68012B01D1022313E0FF2311E0D0
:104F000001230FE07B68002B06D07B68012B01D1C9
:104F1000042307E0FF2305E0032303E0052301E06A
:104F20004FF0FF3318460C37BD4680BC704780B544
:104F300082B000AF78607B685B689B6A98470346E5
:104F40001B7D18460837BD4680BD000080B588B07F
:104F500000AFF860B9607A60BB681B687B614FF096
:104F6000FF33BB61FB68DBB207F110021146184644
:104F7000FFF7FCF90346002B4CD1BB681B68002BE4
:104F800042D03B69DB68FB61BB6800221A6026E007
:104F9000FB69B3F5005F08D23B69DA684FF4005350
:104FA000F9681F4811F056FA2FE0BB681A68BB6811
:104FB0001B68DB0079680B4452031A60BB681B68EE
:104FC000DB007A6813444FF400525A60BB681B68D8
:104FD0005A1CBB681A60FB69A3F50053FB61FB69AF
:104FE000002B04D0BB681B687A699A42D0D8BB6892
:104FF0001B687A699A4204D2F9680A4811F02AFAC1
:1050000003E00023BB6100E000BF3B691846FFF7E7
:10501000E1F900E000BFBB6918462037BD4680BDFE
:10502000E470020C2071020C80B485B000AF78608F
:10503000094B1B68FB60094AFB68013B5360074B47
:1050400000229A60054B05221A6000231846143787
:10505000BD4680BC704700BF2000033010E000E078
:1050600080B483B000AF1D4B9B687B601C4B1B68FA
:105070007A689A4209D81A4B1A687B68D21A194B77
:105080001B681344174A13600BE0144B5A68144B07
:105090001B681A447B68D21A124B1B681344114ACE
:1050A0001360114B1B68114AA2FB03239A090D4B95
:1050B0001B689A4207D20B4B00221A600C4B1B68EC
:1050C00001330B4A1360064A7B681360084B1B6868
:1050D00018460C37BD4680BC704700BF10E000E0AA
:1050E000442103304821033020000330D34D6210A7
:1050F0004C21033080B584B000AF7860254BD3F8E5
:105100009430244A43F00403C2F89430214BD3F87E
:10511000943003F00403FB60FB6809F057FC1D4B5F
:10512000D3F8F0301B4A43F01803C2F8F0301A48A5
:1051300009F05AFC0346002B01D017F013FA174868
:105140000AF0B2FC0346002B01D017F00BFA114B0A
:10515000D3F8F0300F4A43F40043C2F8F0300D4B5F
:10516000D3F8A8300B4A43F40013C2F8A830094B17
:10517000D3F8A83003F40013BB60BB6800220421FD
:1051800004200DF07AF804200DF091F800BF1037DC
:10519000BD4680BD000C02564C71020CAC71020C75
:1051A00080B400AFFEE780B400AFFEE780B400AF8C
:1051B000FEE780B400AFFEE780B400AFFEE780B446
:1051C00000AFFEE780B400AFFEE780B400AFFEE7BB
:1051D00080B400AFFEE780B400AFFEE780B400AF5C
:1051E000FEE780B400AFFEE780B400AFFEE780B416
:1051F00000AFFEE780B400AFFEE780B400AFFEE78B
:1052000080B400AFFEE780B400AFFEE780B400AF2B
:10521000FEE780B400AFFEE780B400AFFEE780B4E5
:1052200000AFFEE780B400AFFEE780B400AFFEE75A
:1052300080B400AFFEE780B400AFFEE780B400AFFB
:10524000FEE780B400AFFEE780B400AFFEE780B4B5
:1052500000AFFEE780B400AFFEE780B400AFFEE72A
:1052600080B400AFFEE780B400AFFEE780B400AFCB
:10527000FEE780B400AFFEE780B400AFFEE780B485
:1052800000AFFEE780B400AFFEE780B400AFFEE7FA
:1052900080B400AFFEE780B400AFFEE780B400AF9B
:1052A000FEE780B400AFFEE780B400AFFEE780B455
:1052B00000AFFEE780B400AFFEE780B400AFFEE7CA
:1052C00080B400AFFEE780B400AFFEE780B400AF6B
:1052D000FEE780B400AFFEE780B400AFFEE780B425
:1052E00000AFFEE780B400AFFEE780B400AFFEE79A
:1052F00080B400AFFEE780B400AFFEE780B400AF3B
:10530000FEE780B400AFFEE780B400AFFEE780B4F4
:1053100000AFFEE780B400AFFEE780B400AFFEE769
:1053200080B400AFFEE780B400AFFEE780B400AF0A
:10533000FEE780B400AFFEE780B400AFFEE780B4C4
:1053400000AFFEE780B400AFFEE780B400AFFEE739
:1053500080B400AFFEE780B400AFFEE780B400AFDA
:10536000FEE780B400AFFEE780B400AFFEE780B494
:1053700000AFFEE780B400AFFEE780B400AFFEE709
:1053800080B400AFFEE780B400AFFEE780B400AFAA
:10539000FEE780B400AFFEE780B400AFFEE780B464
:1053A00000AFFEE780B400AFFEE780B400AFFEE7D9
:1053B00080B400AFFEE780B400AFFEE780B400AF7A
:1053C000FEE780B400AFFEE780B400AFFEE780B434
:1053D00000AFFEE780B400AFFEE780B400AFFEE7A9
:1053E00080B400AFFEE780B400AFFEE780B400AF4A
:1053F000FEE780B400AFFEE780B400AFFEE780B404
:1054000000AFFEE780B400AFFEE780B400AFFEE778
:1054100080B400AFFEE780B400AFFEE780B400AF19
:10542000FEE780B400AFFEE780B400AFFEE780B4D3
:1054300000AFFEE780B400AFFEE780B400AFFEE748
:1054400080B400AFFEE780B400AFFEE780B400AFE9
:10545000FEE780B400AFFEE780B400AFFEE780B4A3
:1054600000AFFEE780B400AFFEE780B400AFFEE718
:1054700080B400AFFEE780B400AFFEE780B400AFB9
:10548000FEE780B400AFFEE780B400AFFEE780B473
:1054900000AFFEE780B400AFFEE780B400AFFEE7E8
:1054A00080B400AFFEE7000080B588B000AF464B87
:1054B000FB61FB6983F30A8800BF07F033FA434BB3
:1054C000D3F89430414A43F00403C2F894303F4B80
:1054D000D3F8943003F00403BB60BB6809F076FA9C
:1054E0003A4BD3F8F030394A43F40043C2F8F03075
:1054F000364BD3F8A830354A43F40013C2F8A8302D
:10550000324BD3F8A83003F400137B607B68304B38
:105510001B6B002B17D02D4BD3F8F0302B4A43F4E4
:105520008033C2F8F030294BD3F8F030274A23F407
:105530008033C2F8F03000BF254B1B6B002BFBD132
:10554000244B01221A60244BBB611AE000237B61CB
:105550000EE0BB691A687B699B001A44BB695968F5
:105560007B699B000B4412681A607B6901337B6185
:10557000BB699B689B087A699A42EAD3BB690C3382
:10558000BB61BB69154A9342E0D3154B3B6115E003
:105590000023FB6009E03B691A68FB689B00134429
:1055A00000221A60FB680133FB603B695B689B0863
:1055B000FA689A42EFD33B6908333B613B69094A79
:1055C0009342E5D3FEF75AFE48350330000C0256ED
:1055D000007C0056502103304885020C6085020C87
:1055E0006085020C7085020C80B400AF0023184661
:1055F000BD4680BC704780B400AF00231846BD464E
:1056000080BC704780B485B000AF78600B467B806B
:1056100013463B807A883B881344FB60FB68B3F5F4
:10562000803F01D3002304E0FB689AB27B681A80B4
:10563000012318461437BD4680BC704780B58AB038
:1056400000AFBA607B600346FB730B46BB8100234F
:10565000BB617B68002B01D1032387E0454B3B6294
:10566000454B1B7883F00103DBB2002B0FD04FF4C6
:10567000806200213F4810F004FB3B6A42F21602B0
:105680001A803B6A04225A803B4B01221A703B6A03
:105690005B8803F1405303F57F33FB61374B7B623B
:1056A0001BE0796A07F118030422184610F0DCFAAF
:1056B0003B8B1B0B9AB2FB7B9BB29A4207D13B8B75
:1056C000C3F30B02BB899A4201D102234EE07B8BCC
:1056D0001A467B6A134404337B627A6AFB699A42F6
:1056E000DFD3FB7B1B031AB2B7F90C30C3F30B03F8
:1056F0001BB213431BB29BB23B83BB689BB27B8341
:105700003B6A5988BB689BB204339AB207F116030F
:105710001846FFF777FF034683F00103DBB2002B47
:1057200001D0032322E0FB8AB3F5806F01D9012366
:105730001CE0FB697B627B6A07F1180104221846B2
:1057400010F092FA7B6A04337B627B6ABA687968EC
:10575000184610F089FA3B6A5A88BB689BB213441A
:105760009BB204339AB23B6A5A800023184628370A
:10577000BD4680BD00FC03305421033004FC0330DF
:1057800080B5B4B002AF0346B9607A60FB73002302
:10579000C7F8C430002387F8C330002387F8C2302D
:1057A00007F1A000002300934FF6FF737A68B968F1
:1057B00002F06AFEC7F8BC00D7F8BC30002B02D05C
:1057C0004FF0FF3399E007F1980307F19A0207F1D0
:1057D0009C0107F1A00002F0D2FEC7F8BC00D7F888
:1057E000BC30002B02DA4FF0FF3386E0D7F8BC3034
:1057F000002B45DCB7F89830602B20D1B7F89A30F1
:10580000642B02D94FF0FF3377E0D7F89C10B7F83C
:105810009A3007F114027868FEF7E6FDC7F8BC007D
:10582000D7F8BC30002B02D04FF0FF3365E0B7F85B
:105830009A30C7F8C430012387F8C330C3E7B7F8FC
:105840009830102BBFD1B7F89A30202B02D94FF0E7
:10585000FF3352E0D7F89C10B7F89A3007F178027E
:105860007868FEF7C1FDC7F8BC00D7F8BC30002B44
:1058700002D04FF0FF3340E0012387F8C23000E050
:1058800000BF97F8C33083F00103DBB2002B06D1D1
:1058900097F8C23083F00103DBB2002B02D04FF047
:1058A000FF332AE0D7F8C430203BC7F89C30D7F844
:1058B0009C3007F11402134407F1780120221846A6
:1058C00010F0D2F9FB7B9B011BB243F03F031BB2EC
:1058D000A7F8BA3007F11403B7F8BA10D7F8C42004
:1058E0000120FFF7ABFEC7F8BC00D7F8BC30002B97
:1058F00002D0D7F8BC3000E000231846C837BD46B8
:1059000080BD000080B485B000AF084B1B68FB6011
:10591000FB687B607B680133BB60BB68034A136034
:10592000FB6818461437BD4680BC704758210330C9
:1059300080B584B000AF78607B68BB60BA68064B06
:105940001B68FB60FB689A4201D000F01BF800BFA7
:105950001037BD4680BD00BF5821033080B483B0EE
:1059600000AF074B1B683B603B68013B7B607B687B
:10597000034A136000BF0C37BD4680BC704700BFB0
:105980005821033080B400AFFFF7FCBFFFF7FABF28
:10599000FFF7F8BFFFF7F6BFFFF7F4BFFFF7F2BF5F
:1059A000FFF7F0BFFFF7EEBFFFF7ECBF00BFBD464C
:1059B00080BC704780B483B000AF78607B685B7850
:1059C00018460C37BD4680BC704780B483B000AF2A
:1059D00078607B689B6818460C37BD4680BC704772
:1059E00080B483B000AF78607B68DB6818460C3702
:1059F000BD4680BC704780B485B000AFF860B96028
:105A00007A607B68DB43BA689A4201D9002305E0DB
:105A1000BA687B681A44FB681A6001231846143779
:105A2000BD4680BC704780B483B000AF78603960F9
:105A30007B6893F8C43019463B682C2203FB02F2C2
:105A4000582301FB03F313447A68134418460C37B8
:105A5000BD4680BC704780B582B000AF78603960C9
:105A60007B6893F8C43018467A683B682C2103FBA6
:105A700001F1582300FB03F30B44134420331B684C
:105A80001846FFF7A2FF034618460837BD4680BDFB
:105A900080B586B000AFF8600B467A60FB720023D9
:105AA0003B6123E001237B617B69012B0BD13B69C7
:105AB0001946F868FFF7B7FF02467B683969F8684E
:105AC00001F03CFF78617B69002B0CD03B69002B17
:105AD00007DDFB7A83F00103DBB2002B01D000234A
:105AE00008E07B6906E03B6901333B613B69012BC0
:105AF000D8DD002318461837BD4680BDB0B584B048
:105B000000AF786039607B6893F8C4403968786882
:105B1000FFF789FF7B6893F8C4301D467A683B68BD
:105B20002C2103FB01F1582305FB03F30B44134421
:105B300020331B681A4601462046FFF721FEF86015
:105B4000FB68002B04D0154810F084FCFB6820E0B3
:105B500039687868FFF767FF7B6893F8C4301C46A4
:105B60007A683B682C2103FB01F1582304FB03F303
:105B70000B44134420331B681946FEF76CFFF86092
:105B8000FB68002B04D0064810F064FCFB6800E0C2
:105B9000002318461037BD46B0BD00BF6C72020C22
:105BA0009C72020C80B584B000AF786039607B686D
:105BB000002283F8C4207B68002283F8C42014E00C
:105BC0007B6893F8C4301A467B68134493F8C53059
:105BD00083F00103DBB2002B0DD17B6893F8C43056
:105BE0000133DAB27B6883F8C4207B6893F8C43051
:105BF000012BE5D900E000BF0023FB607B6893F830
:105C0000C43018467A68FB682C2103FB01F1582345
:105C100000FB03F30B44134420331B681846FFF7C3
:105C2000C9FE03461A463B681A71F9687868FFF79F
:105C300012FF02463B689A60F9687868FFF7F3FE46
:105C400002463B681A6000BF1037BD4680BD80B574
:105C500084B000AF78607B68002283F8C42037E00E
:105C60007B6893F8C4301A467B68134493F8C530B8
:105C7000002B24D17B68D3F8B0301846FEF7AAFB7E
:105C80000023FB6017E07B6893F8C4301846FB687C
:105C9000C3F101037A682C2103FB01F1582300FBB7
:105CA00003F30B44134420331B681846FEF792FBA2
:105CB000FB680133FB60FB68012BE4D900E000BF07
:105CC0007B6893F8C4300133DAB27B6883F8C42070
:105CD0007B6893F8C430012BC2D900BF00BF1037D6
:105CE000BD4680BD90B58BB000AFF860B9607A60FA
:105CF000FB6893F8C430B9681846FFF7E5F83862D6
:105D00003B6ADBB207F1140211461846FEF72EFB80
:105D100078627B6A002B02D001237B6259E0BB686A
:105D20001946F868FFF77FFE03461B891C46BB68CF
:105D30001946F868FFF777FE0346DB682344FB61EA
:105D4000786907F110020423F969FEF74DFB034659
:105D5000002B02D001237B623BE0BB681946F86848
:105D6000FFF761FE03465B89BB613B8A46F608127A
:105D7000934217D17B8A1A46BB69934202D0032310
:105D80007B6226E078697B8A1A46FB69D11807F1A5
:105D900010020423FEF728FB0346002B08D0012342
:105DA0007B6216E0BB69002B02D003237B6210E00C
:105DB0003B8A46F60712934202D003237B6208E037
:105DC000FA69BB6913447A8A1A447B681A60002313
:105DD0007B627B691846FEF7FDFA7B6A18462C3712
:105DE000BD4690BD80B584B000AF78607B6893F805
:105DF000C43019467A68582301FB03F31344203357
:105E00001B681846FEF784FDF8607B68D3F8B03055
:105E10001846FEF77DFDB860BA68FB689A4201D962
:105E2000BB68FB60FB6818461037BD4680BD80B577
:105E300086B000AF786039605023BB605023BB60F0
:105E40007B6893F8C430002B08D07B6893F8C4308B
:105E5000012B01D1022302E0FF2300E001233A6875
:105E6000934217D17B6893F8C43019467A68582357
:105E700001FB03F3134424331B687B617B6893F8B5
:105E8000C4301A46582302FB03F328337A681344BC
:105E90003B6136E07B6893F8C430002B08D07B6808
:105EA00093F8C430012B01D1042302E0FF2300E06A
:105EB00003233A68934217D17B6893F8C43019469C
:105EC0007A68582301FB03F3134450331B687B614A
:105ED0007B6893F8C4301A46582302FB03F354330B
:105EE0007A6813443B610CE03B68052B07D17B6863
:105EF000D3F8B4307B617B68B8333B6101E00123A8
:105F000010E007F108037A6919463868FFF71EF8B0
:105F1000F860FB68002B01D0FB6803E0BA683B69BE
:105F20001A60002318461837BD4680BD80B584B07E
:105F300000AF78607B6893F8C430FB73FB7B002B69
:105F400006D0FB7B012B01D1022302E0FF2300E0FE
:105F5000012319467868FFF76AFFB860BB68002B19
:105F600001D0012326E0FB7B002B06D0FB7B012B1D
:105F700001D1042302E0FF2300E0032319467868DF
:105F8000FFF755FFB860BB68002B01D0092311E073
:105F900005217868FFF74BFFB860BB68002B01D084
:105FA000012307E07868FFF71DFF02467B68C3F80E
:105FB000C020002318461037BD4680BD80B483B092
:105FC00000AF78607B6800229A717B6800229A603B
:105FD0007B680022DA607B6801225A717B680122AB
:105FE0001A607B6801221A717B680122DA7100BF96
:105FF0000C37BD4680BC704780B483B000AF78607A
:106000007B685B79012B09D17B681B68012B05D16B
:106010007B681B79012B01D1012300E0002303F0F1
:106020000103DBB218460C37BD4680BC704790B503
:106030008DB000AF786039600023BB623B689B790C
:10604000002B02D00523FB620FE07B6893F8C4307D
:10605000002B08D07B6893F8C430012B01D10223B8
:1060600002E0FF2300E00123FB62FB6ADBB207F1E1
:10607000180211461846FEF779F9B862BB6A002B80
:1060800001D0012335E0BB69184602F0C5FB044688
:106090007B68D3F8C0301946386801F00BFD034621
:1060A00023447B62BB691846FEF732FC3862BB6949
:1060B0001846FEF73CFF0346FB77F97F07F108031C
:1060C000102218460FF0DDFD3B681B793B72B86962
:1060D00007F108023B6A796AFEF776FAB862BB6A92
:1060E000002B01D00123BB62BB691846FEF772F991
:1060F000BB6A18463437BD4690BD000080B58EB0EF
:1061000006AFF860B9607A603B60164B1B68FB61B4
:10611000FB6893F8C430FB76FFF7F4FB7861114B12
:106120001B68FB610123002B11D0F97E002304932F
:1061300000230393002302934FF4807301930A4BCF
:1061400000937B68BA68002003F082F9F8617869EF
:10615000FFF7EEFBFFF702FCFB6918462037BD4650
:1061600080BD00BF0C0003302422033080B584B012
:1061700000AF786039607B681B68124A934201D097
:1061800000231BE07B68D9687B681B891A4607F1EE
:106190000C031846FFF72FFC034683F00103DBB224
:1061A000002B01D0002309E03868FFF719FC0246F4
:1061B000FB689A4201D8002300E0012318461037FB
:1061C000BD4680BD3DB8F39680B487B000AF0346AE
:1061D000B9607A60FB73BB683B610023FB750BE021
:1061E000FB7D3A6913441B78FA7B9A4201D0002365
:1061F00007E0FB7D0133FB75FB7D7A689A42EFD89F
:10620000012318461C37BD4680BC704780B588B056
:1062100000AF786039607B6893F8C43039681846FD
:10622000FEF752FEF861FB69DBB207F10C02114682
:106230001846FEF79BF8B861BB69002B02D04FF0FF
:10624000FF331FE0FB681846FEF771FE0346FB753F
:10625000FB681846FEF7BEF83B6819467868FFF7FA
:10626000E2FB38613969FB7D04221846FFF7ACFF79
:10627000034683F00103DBB2002B02D04FF0FF3363
:1062800000E0002318462037BD4680BD80B483B0AF
:1062900000AF786039607B681A783B681B789A4257
:1062A00001D901232BE07B681A783B681B789A425E
:1062B00002D24FF0FF3322E07B685A783B685B786C
:1062C0009A4201D901231AE07B685A783B685B78CF
:1062D0009A4202D24FF0FF3311E07B685A883B6844
:1062E0005B889A4201D9012309E07B685A883B68A0
:1062F0005B889A4202D24FF0FF3300E00023184639
:106300000C37BD4680BC704790B593B000AFF860C5
:10631000B9607A60514B1B687B64FB6893F8C430AA
:10632000B9681846FEF7D0FD38643B6CDBB207F164
:10633000100211461846FEF719F8F863FB6B002BA4
:1063400003D0FFF70BFB7B6C83E0BB681946F86852
:10635000FFF769FBB863B968F868FFF757FF0346B2
:10636000002B05D0BB6B1B6903F01003002B0CD076
:10637000BB68002B04D03B691946F86801F062F84D
:1063800001233B633B6B7B645CE001233B623B6A24
:106390007B6401237B627B6A7A6CFA62BB62FA6A75
:1063A000BB6A9A420CBF01230023DBB2002B12D040
:1063B000FFF7A8FA7863294B1B687B640123002B45
:1063C00006D03A697B68B96BF868FFF797FE786486
:1063D000786BFFF7ADFA3B691946B86BFFF7C6FE5D
:1063E000034683F00103DBB2002B0DD11C4B1B686D
:1063F0007A6CFA61BB61FA69BB699A4214BF0123E6
:106400000023DBB2002B1CD0BB68002B0AD03C69F8
:106410003B691846FFF7E4FA03461A460021204676
:10642000FEF732FABB68002B01D10E4B00E00E4B99
:1064300019460E4810F00EF801237B617B697B64DE
:1064400000E000BF3B691846FDF7C4FFFFF786FA7E
:106450007B6C18464C37BD4690BD00BF0C00033026
:1064600008000330D072020CD872020CE472020CE5
:1064700080B588B000AF0346B9607A60FB73002333
:10648000BB61FB7BB9681846FEF71EFD0346DBB215
:1064900007F1180211461846FDF768FFF861FB691D
:1064A000002B02D00123FB6115E0BB6907F1140248
:1064B0001946786802F080FFF861FB69002B09D16A
:1064C000FB7B7A6911461846FEF7A6FAF861FB696C
:1064D000002B00E000BFBB691846FDF77BFFFB699E
:1064E00018462037BD4680BD80B58AB000AF7860C1
:1064F0003960264B1B683B627B6893F8C4301846B2
:1065000002F058FD78627B6A022B05D07B6A042B6F
:1065100002D07B6A032B33D1FFF7F4F9F8611B4BF0
:106520001B683B620123002B05D03A680121786883
:10653000FFF7EAFE3862F869FFF7FAF9144B1B68B7
:106540003A6ABA617B61BA697B699A4214BF0123D6
:106550000023DBB2002B13D00123BB60BB683A6A77
:106560003A61FB603A69FB689A420CBF0123002341
:10657000DBB2002B02D001237B6201E005237B62AA
:106580007B6A18462837BD4680BD00BF0C0003302B
:106590000800033080B584B000AFF860B9607A605D
:1065A0007A68B968F868FEF76FF90346184610373D
:1065B000BD4680BD80B588B000AFF860B9607A6034
:1065C0003B600023FB612DE0FA6AFB69D31AB3F547
:1065D000806F03D94FF48063BB6103E0FA6AFB6903
:1065E000D31ABB613A68FB69D118BB69124AB86813
:1065F000FDF7FAFE78617B69002B01D0012316E0DC
:10660000BA6AFB69D118BB690B4A7868FDF7DCFFF1
:1066100078617B69002B01D0012308E0BB69FA692E
:106620001344FB61FA69FB6A9A42CDD300231846F2
:106630002037BD4680BD00BF2423033080B588B01D
:1066400000AF786039600023FB60FB683B617B68CA
:1066500093F8C430FB773868FFF7CEFC0346002B75
:1066600041D000217868FFF7DEF978617B691B680B
:10667000324A934211D107F10C031A46002178687F
:10668000FFF730FBB861BB69002B06D02C4B2D4ABD
:106690004FF49C612C480FF05FFA01217868FFF7F6
:1066A000C2F978617B691B68244A934211D107F1D2
:1066B00010031A4601217868FFF714FBB861BB6923
:1066C000002B06D01E4B1F4A40F2F7411E480FF028
:1066D00043FA3A69FB689A4201D93B69FB60FA6860
:1066E0003B689A6014E0FA7F3B680833194610460D
:1066F00002F064F9B861BB69002B06D0104B114A57
:1067000040F2175110480FF027FA3B689B68FB6076
:10671000FB681A463968786801F046FE0B4B1B6827
:10672000002B05DD094B1B68194609480FF092FE46
:10673000002318462037BD4680BD00BF3DB8F39604
:106740001073020CDC74020C1873020CA4330330B7
:106750007073020C80B586B000AF786039603B681A
:106760001B781A467B68134493F8BC30FB74FB7C9F
:10677000022B05D0FB7C042B02D0FB7C032B01D128
:10678000012300E00023FB603B681B781946FB688F
:106790002C2203FB02F2582301FB03F313441033B2
:1067A0007A6813440433BB603B6804331946B86805
:1067B000FFF76CFD78617B69002B22DA7B6893F828
:1067C000C4301A467B68134493F8BC30012B0ED0BA
:1067D000002B19DD023B012B16D87B6893F8C430DF
:1067E0001A467B681344012283F8BC200DE07B68C5
:1067F00093F8C4301A467B681344042283F8BC2003
:1068000003E000237B6100E000BF7B691846183776
:10681000BD4680BD80B592B002AF786039607B68BC
:1068200093F8C4301A463B6819461046FEF74CFBF5
:10683000B863BB6BDBB207F1340211461846FDF7B3
:1068400095FDF863FB6B002B02D00123FB634EE048
:1068500039687868FFF7E7F801467A6B07F11C00A2
:1068600001230093402301F00FFEF863FB6B002B24
:106870003AD107F10A0207F10C0107F11C000023CD
:1068800001F07DFEF863FB6B002B02DA4FF0FF3363
:1068900032E0FB6B002B02DD0023FB6327E07B89EA
:1068A0000C2B02D00323FB6321E0786BF9687B8912
:1068B00007F11002FDF798FDF863FB6B002B02D087
:1068C0000123FB6313E03B7C012B02D90723FB630D
:1068D0000DE007F1100319467868FFF73BFFF863F6
:1068E000FB6B002B02D1C4E700BF00E000BF7B6B55
:1068F0001846FDF76FFDFB6B18464037BD4680BD5F
:1069000080B586B000AF78604FF0FF337B617B6865
:10691000002283F8C42055E07B6893F8C4301A46FF
:106920007B68134493F8C530002B08D07B6893F83C
:10693000C4300133DAB27B6883F8C42042E07B685C
:1069400093F8C4301A467B68134493F8BC30012B8B
:106950000CD07B6893F8C4301A467B68134493F8D4
:10696000BC30052B02D00123FB7401E00023FB7433
:10697000FB7C19467868FFF74DFF78617B69002B37
:1069800008D17B6893F8C4300133DAB27B6883F8AE
:10699000C42017E00023FB6010E0FB68DAB27B68DC
:1069A00083F8C4207B6893F8C4301A467B6813448C
:1069B000012283F8BC20FB680133FB60FB68012BDC
:1069C000EBDD04E07B6893F8C430012BA4D97B692C
:1069D00018461837BD4680BD90B585B000AF7860C9
:1069E000396039687868FFF729FEF860FB68002B8A
:1069F00006D0364B364A40F2016136480FF0ACF80B
:106A00007B6893F8C4301A467B68134493F8BC3013
:106A1000FB72FB7A042B02D0FB7A032B14D17B6828
:106A200093F8C430184600F0ABFEF860FB68002B0A
:106A30000AD0FF23FB727B6893F8C4301A467B6848
:106A40001344FA7A83F8BC20FB7A032B1CD17B68B1
:106A500093F8C44001217868FEF7E5FF03461A4623
:106A600000212046FFF704FDF860FB68002B0BD0E7
:106A700019480FF0EFFC7B6893F8C4301A467B6826
:106A80001344FF2283F8BC20FB7A022B05D0FB7A4B
:106A9000042B02D0FB7A032B12D17B6893F8C4300D
:106AA000184600F043FEF860FB68002B08D07B68B6
:106AB00093F8C4301A467B681344FF2283F8BC2045
:106AC000FB6818461437BD4690BD00BF1073020C1A
:106AD000EC74020C1873020CA473020C80B584B021
:106AE00000AF7860396039687868FFF7A7FDF86013
:106AF000FB68002B06D0324B324A40F244613248E8
:106B00000FF02AF87B6893F8C43019463B68DA79AD
:106B10007B680B4483F8BC203B68DB79042B03D0F3
:106B20003B68DB79032B12D17B6893F8C43018469D
:106B300000F026FEF860FB68002B08D07B6893F815
:106B4000C4301A467B681344FF2283F8BC203B689C
:106B5000DB79022B07D03B68DB79042B03D03B6841
:106B6000DB79032B12D17B6893F8C430184600F010
:106B7000DDFDF860FB68002B08D07B6893F8C4301B
:106B80001A467B681344FF2283F8BC207B6893F885
:106B9000C4301A467B68134493F8BC30FF2B09D1EC
:106BA0000A480FF057FC0A4B064A40F25C6106485F
:106BB0000EF0D2FFFB6818461037BD4680BD00BFFF
:106BC0001073020C0075020C1873020CE073020CB7
:106BD000F073020C80B485B000AF78600B46FB7098
:106BE0007B6893F8C430002B33D0FB7883F001032B
:106BF000DBB2002B13D07B6893F8C4301A467B6855
:106C0000134493F8BC30012B25D07B6893F8C43033
:106C10001A467B68134493F8BC30042B1BD0002326
:106C2000FB730FE0FB7B7A68134493F8BC30042BB2
:106C300005D1FB7B7A681344012283F8BC20FB7BDF
:106C40000133FB737B6893F8C430FA7B9A42E9D333
:106C500002E000BF00E000BF1437BD4680BC7047B3
:106C600080B588B000AF78603960744B1B68FB61F9
:106C70007868FFF75BF9B861BB69002B10D0502131
:106C80006F480FF0E7FB7B6893F8C4301A467B68C7
:106C90001344012283F8BC20BB69012B00F0C9809A
:106CA000002200217868FEF7F3FEB861BB69002B73
:106CB00010D07B6893F8C430194662480FF0CAFBC5
:106CC0007B6893F8C4301A467B681344012283F82A
:106CD000BC20AFE0786800F009FF0346002B00F00D
:106CE0009E803868FFF76AF93968786800F09CFC84
:106CF000B861BB69002B10D07B6893F8C43019468B
:106D000051480FF0A7FB7B6893F8C4301A467B68A4
:106D10001344012283F8BC208CE03868FFF76CF93B
:106D2000034683F00103DBB2002B2CD001217868ED
:106D3000FFF750FF39687868FFF7D0FEB861BB698C
:106D4000002B06D0414B424A40F2057141480EF0FB
:106D500003FF3A6800217868FEF79AFEB861BB69C4
:106D6000002B06D0394B3A4A40F20B7139480EF0ED
:106D7000F3FE7B6893F8C4301A467B681344012203
:106D800083F8BC2056E03B68DB79012B0ED13968D3
:106D90007868FFF7A9FB02467B6893F8C430194670
:106DA000D2B27B680B4483F8BC2033E0FEF7AAFD27
:106DB0007861224B1B68FB610123002B05D03A68E8
:106DC00001217868FFF7A0FAF8617869FEF7B0FD55
:106DD000214B1B68FA693A61FB603A69FB689A4289
:106DE00014BF01230023DBB2002B09D07B6893F88A
:106DF000C4301A467B681344052283F8BC2009E09E
:106E00007B6893F8C43019463B68DA797B680B4499
:106E100083F8BC2000217868FFF7DCFE0AE07B687D
:106E200093F8C4301A467B681344012283F8BC20CF
:106E300000E000BF2037BD4680BD00BF0C0003301E
:106E4000F473020C3C74020C6C74020C1073020C90
:106E50001C75020C1873020C0800033090B585B045
:106E600000AF78607B6893F8C4301A467B6813449F
:106E700093F8BC30012B15D17B6893F8C4400021F6
:106E80007868FEF7D0FD03461A4600212046FFF73A
:106E9000EFFAF860FB68002B04D005480FF0DAFA2F
:106EA000FB6800E0002318461437BD4690BD00BFC4
:106EB0009C74020C80B590B000AF786039604FF0E0
:106EC000FF33BB63AA4B1B687B63002387F8333017
:106ED0007B68002283F8C420A6E07B6893F8C43066
:106EE0001A467B68134493F8C530002B40F093801A
:106EF0007B6893F8C430BB627B6893F8C430184653
:106F0000BA6A13469B001344DB019A4A1A44796813
:106F1000582300FB03F30B4424331A607B6893F877
:106F2000C4301846BA6A13469B001344DB01924AE8
:106F30001A447968582300FB03F30B4450331A605A
:106F40007B688E4AC3F8B4200023FB6327E0FB6B09
:106F50001946B86AFDF7B8FF78627B6AD8B27B68D9
:106F600093F8C4301946FB6B2C2203FB02F2582322
:106F700001FB03F3134420337A6813441946FDF7E9
:106F8000F5F9B863BB6B002B06D07D4B7D4A40F210
:106F9000AF717D480EF0E0FDFB6B0133FB63FB6BD3
:106FA000012BD4D97B68B03319460520FDF7DEF9F3
:106FB000B863BB6B002B06D0714B724A40F2B471C0
:106FC00071480EF0C9FD07F1080319467868FFF70C
:106FD00047FE7B6893F8C4301A467B68134493F8E5
:106FE000BC30022B13D07B6893F8C4301A467B6800
:106FF000134493F8BC30042B09D07B6893F8C43059
:107000001A467B68134493F8BC30032B04D1012348
:1070100087F8333000E000BF7B6893F8C430013359
:10702000DAB27B6883F8C4207B6893F8C430012B04
:107030007FF653AF97F83330002B08D07868FFF70E
:107040005FFCB863BB6B002B01D00023BB637B6884
:10705000002283F8C42080E07B6893F8C4301A468D
:107060007B68134493F8C530002B6DD107F10803FA
:107070001846FEF7A3FF7B6893F8C4301A467B6876
:10708000134493F8BC30FB737B6893F8C4301A4602
:107090007B68134493F8BC30052B1ED0052B30DCE5
:1070A000012B38D0002B2CDD023B022B29D80123E9
:1070B000BB63BB6B012B06D107F108031946786847
:1070C000FFF78AFCB863BB6B002B26D02C4B2D4AF4
:1070D0004FF4FF612C480EF03FFD7B6893F8C430FD
:1070E000184600F04DFBB863BB6B002B17D07B68D4
:1070F00093F8C4301A467B681344FF2283F8BC20FF
:107100000DE07B6893F8C4301A467B681344FF2275
:1071100083F8BC2004E000BF02E000BF00E000BF35
:107120007B6893F8C4301A467B68134493F8BC30EC
:10713000FF2B0AD115480FF08DF9154B114A40F677
:107140000F0111480EF008FD00BF7B6893F8C430B2
:107150000133DAB27B6883F8C4207B6893F8C430CB
:10716000012B7FF679AF7B68002283F8C42069E0A9
:107170000C00033024270330242C03302431033047
:107180001073020C3C75020C1873020CE073020CB5
:10719000F073020C7B6893F8C4301A467B68134482
:1071A00093F8C530002B44D17B6893F8C4301A465D
:1071B0007B68134493F8BC30012B0AD007F1080315
:1071C0001A4600217868FEF763FCB863BB6B002B9E
:1071D0004CD1FEF797FBF862304B1B687B630123B1
:1071E000002B05D0002200217868FFF78DF8786326
:1071F000F86AFEF79DFB2A4B1B687A6B3A62FB61CB
:107200003A6AFB699A4214BF01230023DBB2002BC8
:107210002ED17868FFF722FEB863BB6B002B29D113
:1072200000217868FEF76AFCB863BB6B002B23D1A2
:1072300000E000BF7B6893F8C4300133DAB27B68AA
:1072400083F8C4207B6893F8C430012BA2D907F1DE
:1072500008031022002118460EF013FD39687868E3
:10726000FEF7A0FC0E4B1B687B6306E000BF04E04A
:1072700000BF02E000BF00E000BF7868FEF7E7FC57
:10728000BB6B002B03D0BB6BBB61BB697B63FEF7A1
:1072900065FB7B6B18464037BD4680BD0C00033054
:1072A0000800033080B584B000AF78600E4B1B68D7
:1072B000FB60002000F01CF8FEF724FBB8600A4BCE
:1072C0001B68FB600123002B04D079680748FFF797
:1072D000F1FDF860B868FEF72BFBFEF73FFBFB689B
:1072E00018461037BD4680BD0C0003305C210330CA
:1072F00080B582B000AF78607B68002B05D0C822D3
:10730000002178680EF0BDFC04E0C822002103488B
:107310000EF0B7FC00BF0837BD4680BD5C210330CE
:1073200080B483B000AF78607B681B7818460C3758
:10733000BD4680BC704780B483B000AF78607B6886
:107340001B6818460C37BD4680BC704780B483B0BC
:1073500000AF78607B685B6818460C37BD4680BC20
:10736000704780B483B000AF786039607B6893F871
:10737000C43018467A683B682C2103FB01F158237E
:1073800000FB03F30B44134428331B6818460C37E7
:10739000BD4680BC704780B584B000AFF860B9606E
:1073A0007A60FB6893F8C4301846FA68BB682C21F1
:1073B00003FB01F1582300FB03F30B441344243374
:1073C0001A687B68DB0013441846FFF7BFFF0346CB
:1073D00018461037BD4680BD90B585B000AFF86047
:1073E000B9607A60FB6893F8C4301846FA68BB68E5
:1073F0002C2103FB01F1582300FB03F30B4413443E
:1074000024331A687B68DB0013441846FFF793FFA8
:107410000446FB6893F8C4301846FA68BB682C2110
:1074200003FB01F1582300FB03F30B441344243303
:107430001B681846FFF77FFF0346E31A1846143708
:10744000BD4690BD80B58CB000AF786039603868BB
:10745000FFF766FF7B6893F8C43087F8233097F80E
:10746000233000211846FDF72FFDF86197F82330EF
:1074700001211846FDF728FDB8613868FFF750FF75
:1074800003461A46FB69934203D1002387F82F3045
:107490000DE03868FFF744FF03461A46BB69934284
:1074A00003D1012387F82F3001E001233CE097F856
:1074B0002F3019467868FFF754FF0346013BBB6243
:1074C0007B68D3F8C030184601F04CF9786100238E
:1074D0007B6297F82F30BA6A19467868FFF75BFF2E
:1074E000386197F82F30BA6A19467868FFF774FF49
:1074F000F8603A69F9683868FFF74CF8B860BB681B
:10750000002B05D00A4B0B4A49210B480EF024FBF7
:10751000BB6A013BBB627A6A3B6913447B627A6A4D
:107520007B699A42D5D3BB6818463037BD4680BDCB
:107530004C75020CB475020C5475020C80B588B001
:1075400000AFF860B9607A60FB6893F8C430FB77ED
:10755000B868FFF7E5FEFB7F002B06D0FB7F012B11
:1075600001D1042302E0FF2300E0032307F110020E
:107570001146184601F0F9FBB861BB69002B05D034
:10758000264B274A652127480EF0E6FA7B68DB790F
:10759000012B10D07B68DB79FA7F1946B86801F0BF
:1075A000C5FCB861BB69002B05D01C4B1C4A692186
:1075B0001C480EF0D1FAFB7C012B0CD1B86801F00D
:1075C0008AFCB861BB69002B05D0144B144A6E21AC
:1075D00014480EF0C1FA7B689B681946B86801F040
:1075E00029FAB861BB69002B05D00C4B0C4A7221FB
:1075F0000C480EF0B1FAB86801F0DAFBB861BB696B
:10760000002B05D0054B064A7D2106480EF0A4FA52
:10761000002318462037BD4680BD00BF4C75020CC4
:10762000D075020C5475020C80B588B000AF78603C
:107630003960786800F01CFB02463B68DA603B6802
:10764000DB68022B0BD0022B1ADC002B02D0012BA3
:1076500002D015E000235FE00523FB6116E07B68A4
:1076600093F8C430002B08D07B6893F8C430012B0A
:1076700001D1022302E0FF2300E00123FB6105E0CA
:10768000274B284A9B2128480EF066FAFB69DBB29B
:1076900007F1100211461846FCF768FEB861BB6995
:1076A000002B01D0012337E03B693A68796818461E
:1076B00000F076F9B861BB69002B27D13B69184609
:1076C00001F043FA7861386907F10F020123796903
:1076D000FCF78AFEB861BB69002B02D00123BB61B5
:1076E00015E03B6907F10F010122184601F05DFA30
:1076F0000346002B03D00123FB730023BB61FB7BFC
:1077000003F00F03DAB23B68DA7100E000BF3B69B7
:107710001846FCF75FFEBB6918462037BD4680BDA2
:10772000B075020CE475020C5475020C80B584B07F
:1077300000AF0346FB71FB79002B06D0FB79012BD0
:1077400001D1022302E0FF2300E0012307F1080238
:1077500011461846FCF70AFEF860FB68002B01D0C2
:10776000012309E0BB68184601F04CF9F860BB68DA
:107770001846FCF72FFEFB6818461037BD4680BD43
:1077800080B586B000AF0346FB71FB79002B06D0B5
:10779000FB79012B01D1022302E0FF2300E001234A
:1077A00007F1100211461846FCF7E0FD78617B698D
:1077B000002B01D001231CE03B6907F108021146B0
:1077C000184601F05EFA78617B69002B02D0012334
:1077D0007B6109E0FB7A032B05D13B69184601F078
:1077E0007AFB786100E000BF3B691846FCF7F2FDC8
:1077F0007B6918461837BD4680BD80B483B000AFA2
:1078000078607B68DB6818460C37BD4680BC7047E3
:1078100080B483B000AF78607B681B6818460C3773
:10782000BD4680BC704780B483B000AF78607B6891
:107830005B6818460C37BD4680BC704780B483B087
:1078400000AF786039607B6893F8C43018467A6876
:107850003B682C2103FB01F1582300FB03F30B448D
:10786000134428331B6818460C37BD4680BC70474C
:1078700080B584B000AFF860B9607A60FB6893F8B7
:10788000C4301846FA68BB682C2103FB01F1582369
:1078900000FB03F30B44134424331A687B68DB00BA
:1078A00013441846FFF7BFFF034618461037BD467E
:1078B00080BD90B585B000AFF860B9607A60FB68B4
:1078C00093F8C4301846FA68BB682C2103FB01F119
:1078D000582300FB03F30B44134424331A687B68DA
:1078E000DB0013441846FFF793FF0446FB6893F848
:1078F000C4301846FA68BB682C2103FB01F15823F9
:1079000000FB03F30B44134424331B681846FFF7B2
:107910007FFF0346E31A18461437BD4690BD80B575
:1079200082B000AF78607B68D3F8B0301846FFF7BC
:1079300064FF034618460837BD4680BD80B588B051
:1079400000AFF860B9607A603B600023FB61FB68C0
:1079500093F8C430B9681846FDF7B6FAB861BB6948
:10796000DBB207F1140211461846FCF7FFFCF86180
:10797000FB69002B0AD1786920237A680021FCF783
:1079800033FDF8617B691846FCF724FDFB69002B89
:1079900001D00123FB61FB6918462037BD4680BD3D
:1079A00080B58CB000AFF860B9607A60F86800F01C
:1079B00033FFF861BB6893F8C430F968184600F0EB
:1079C000F1FEB861BB69002B01DA07236AE00023EE
:1079D000FB620023BB6200237B6200233B6235E035
:1079E000BB68D3F8C0303A6A03FB02F2FB69D118D6
:1079F00007F113020123F868FCF7F6FC78617B6954
:107A0000002B01DA01234DE007F11303012219468F
:107A1000F86801F0CAF80346002B08D0FB6A002B77
:107A200011D0BB6A002B0ED13B6ABB620BE0FB6A34
:107A3000002B02D10123FB6205E0BB6A002B02D0C0
:107A400001237B6206E03B6A01333B623A6ABB6911
:107A50009A42C5DB7B6A002B02D014480EF0FAFC78
:107A6000FB6A002B1DD0BB6A002B01D13B6ABB62B5
:107A7000BB6A0F4A82FB0312DB17D31A01331A4683
:107A80007B681A60BA6A0A4B83FB0231D317C91AA2
:107A90000B465B000B44D11ACBB20133DAB27B68E0
:107AA0001A71002318463037BD4680BDF875020CA8
:107AB0005655555580B485B000AF786039603A6846
:107AC00013465B001344FB607B681B68013BFA684C
:107AD00002FB03F37A681279013A396801FB02F27A
:107AE000134418461437BD4680BC704780B58CB02F
:107AF00000AF786000217868FFF7A0FE38610121AF
:107B00007868FFF79BFEF8603B69502B02D8FB6852
:107B1000502B04D952480EF09DFC00239BE078685E
:107B2000FFF7FDFEB86000237B627B6AFB62FB6AA5
:107B3000FB6100233B623B6ABB62BB6ABB61002303
:107B4000FB756EE0FA6ABB6A9A4218D1FA690021A5
:107B50007868FFF78DFE0246FB6A1344FB62BA6940
:107B600001217868FFF784FE0246BB6A1344BB62BA
:107B7000FB690133FB61BB690133BB6132E0FA6A27
:107B8000BB6A9A4217D2FA6900217868FFF770FE43
:107B90000246FB6A1344FB6297F91730022B04D1AB
:107BA00030480EF057FC002355E00123FB75FB69BC
:107BB0000133FB6116E0BA6901217868FFF758FECE
:107BC0000246BB6A1344BB6297F91730012B04D1FC
:107BD00024480EF03FFC00233DE00223FB75BB6907
:107BE0000133BB61FA6ABB6A9A421AD17A6AFB6AAC
:107BF00013447B623A6ABB6A13443B62FA6ABB680D
:107C00009A4203D8BA6ABB689A4204D916480EF061
:107C100021FC00231FE00023BB62BB6AFB62FB6AFE
:107C2000FB75FA693B699A428CD3BA69FB689A4240
:107C300088D3FA693B699A4207D1BA69FB689A42CC
:107C400003D17A6A3B6A9A4204D008480EF002FCDB
:107C5000002300E0012318463037BD4680BD00BF39
:107C60002076020C5476020C9076020CCC76020C34
:107C700080B58CB002AF78607B6893F8C43087F829
:107C8000223097F82230002B07D097F82230012BB2
:107C900001D1022302E0FF2300E0012307F10802E3
:107CA0001146184601F061F8F861FB69002B06D017
:107CB000504B514A4FF4BD7150480DF04DFF07F144
:107CC00010031946052001F050F8F861FB69002BFC
:107CD00006D0484B484A4FF4BF7148480DF03CFF6E
:107CE0003B7A012B06D03B7A032B01D1444A02E0B8
:107CF000444A00E0444A7B7A1846BB7AF97A0191FB
:107D000000930346414942480EF0A4FB3B7C012B03
:107D100006D03B7C032B01D1394A02E0394A00E00E
:107D2000394A7B7C1846BB7CF97C01910093034661
:107D3000384937480EF08EFB00237B624FE07B6AA8
:107D40009B00354A1344BB61BB691B783A7A1146E4
:107D5000184600F007FF0346002B3DD0BB695B7857
:107D60003A7C1146184600F0FDFE0346002B33D046
:107D7000BB699B78042B04D0BB699A78BB7A9A4282
:107D80002AD1BB69DB7887F8233097F82330012BA1
:107D900008D13A7D7B6893F8C4309A4202D0002320
:107DA00087F8233097F82330002B0DD097F8233035
:107DB000012B07D097F82330022B01D1174B04E099
:107DC000174B02E0174B00E0174B194617480EF00F
:107DD00041FB97F8233009E07B6A01337B627B6AC1
:107DE000032BACD912480EF035FB00231846283778
:107DF000BD4680BD0077020C8078020C0877020C2B
:107E00006877020C7077020C7477020C7C77020C96
:107E10008C77020CD077020C7078020CD877020CA9
:107E2000E877020CFC77020C0478020C0C78020C48
:107E30002478020C80B588B000AFF860B9607A6031
:107E40000023FB61F868FFF76AFD7861BB68BB61DE
:107E500012E0BB691A460021F868FFF709FD0246E7
:107E6000FB6913443B613A697B699A4208D83B69D4
:107E7000FB61BB69013BBB61BB69002BE9DA00E038
:107E800000BFBB695A1C7B681A60FB691846203723
:107E9000BD4680BD90B597B002AFF860B9607A601A
:107EA0003B60FB681A4600217868FFF702FD3864E2
:107EB000BB68FB647B68D3F8C030184600F052FC06
:107EC000F86300217868FFF7B9FC0346013BBB6407
:107ED000BA6C00217868FFF7CBFCB863BA6BFB6B18
:107EE0009A4213D2BB6B7B640CE0BB6C013BBB645E
:107EF000BA6C00217868FFF7BBFCB8637A6CBB6B87
:107F000013447B647A6CFB6B9A42EED33A6CBB6889
:107F1000D418BA6C00217868FFF7CBFC03469C426A
:107F200003D9FA6CFB6BD31AFB643B681B68012B0B
:107F300005D1FA6CBB689A4201D0012300E000230E
:107F4000DAB23B689A717B6893F8C43087F83730AF
:107F500097F83730002B07D097F83730012B01D135
:107F6000022302E0FF2300E0012307F1240211466F
:107F70001846FCF7FBF938633B6B002B06D0974B98
:107F8000974A4FF4087197480DF0E6FD97F837309F
:107F9000002B07D097F83730012B01D1042302E0E2
:107FA000FF2300E0032307F1200211461846FCF7E7
:107FB000DDF938633B6B002B06D0884B884A4FF4C1
:107FC000097188480DF0C8FD07F11C03194605200A
:107FD000FCF7CCF938633B6B002B06D07F4B804A13
:107FE00040F227217F480DF0B7FD3B681B79012B3C
:107FF00040F08B80FC69FB691846FFF7FEFB0346E7
:108000001A4600212046FEF7C5FA38633B6B002B69
:1080100006D0724B724A4FF40B7172480DF09CFD02
:108020003B681B68012B4BD1FB693A68194678689D
:10803000FFF784FA38633B6B002B06D0674B684A26
:108040004FF40D7167480DF087FD3B689B79002B5D
:1080500036D17B6A19467868FFF7F4F938633B6BD1
:10806000002B06D05D4B5E4A4FF40F715D480DF05A
:1080700073FD7B6A3A6819467868FFF75FFA3863E0
:108080003B6B002B06D0554B554A40F23F215548DB
:108090000DF062FDFC69FB691846FFF7AEFB034675
:1080A0001A4600212046FEF775FA38633B6B002B19
:1080B00006D04A4B4A4A4FF411714A480DF04CFD24
:1080C000396AFA69FB6C0193002300933B6C786872
:1080D000FEF770FA38633B6B002B06D03F4B404AEB
:1080E00040F24A213F480DF037FD39687868FDF7C6
:1080F0009EFF38633B6802221A713B6B002B04D051
:10810000394B1B680133384A13603B681B79022BDB
:108110004DD13B6ABA68396C1846FEF73BFA3863B2
:108120003B6B002B06D02D4B2D4A40F253212D489E
:108130000DF012FD796A3A6AFB6C01933B6C009377
:108140003B6C7868FEF736FA38633B6B002B06D041
:10815000224B234A40F2572122480DF0FDFC3B6898
:108160001B68012B13D13B689B79002B0FD13B6A15
:1081700019467868FFF766F938633B6B002B06D029
:10818000164B174A40F25E2116480DF0E5FC39689F
:108190007868FDF74CFF38633B6803221A713B6B2C
:1081A000002B04D0104B1B6801330F4A13603B684F
:1081B0001B79032B40F0E0807B6ABA68396C184663
:1081C000FEF7E8F938633B6B002B0FD0034B044AF2
:1081D0004FF41A7103480DF0BFFC00BF0077020C8A
:1081E0009478020C0877020CA4330330F9697A6A98
:1081F000FB6C01933B6C009300237868FEF7DAF97F
:1082000038633B6B002B06D0634B644A40F26F210E
:1082100063480DF0A1FC3B689B79002B77D0FB698C
:10822000184600F0F9FAF862F969786A3A6CFB6C62
:1082300013447A68D2F8C020520001920093FB6A7E
:1082400002467868FEF7B6F938633B6B002B04D022
:10825000544B1B680133534A1360FB6907F1140246
:108260001146184600F00DFD38633B6B002B06D01D
:10827000494B4A4A40F27B2149480DF06DFCFB7D99
:10828000012B0ED17B6A184600F025FE38633B6B4C
:10829000002B06D0404B414A40F27F2140480DF070
:1082A0005BFC7B7D012B11D07B6A797D97F83720B1
:1082B000184600F03BFE38633B6B002B06D0364B74
:1082C000364A40F2852136480DF046FC7A6A3B6812
:1082D0009B681946104600F0ADFB38633B6B002BE2
:1082E00006D02D4B2D4A40F289212D480DF034FC4B
:1082F0007B6A184600F05CFD38633B6B002B06D0B0
:10830000254B264A40F2932125480DF025FC3B6879
:108310009B79002B14BF0123002387F82B303B6887
:1083200000229A7139687868FDF781FE38633B68EE
:108330001B685A1C3B681A603B6801221A713B6B30
:10834000002B04D0174B1B680133164A136097F8B3
:108350002B30002B10D0FB69BA6800211846FEF7BD
:1083600019F938633B6B002B06D00B4B0B4A40F2DC
:10837000A5210B480DF0F0FB7B6A1846FCF72AF8A4
:108380003B6A1846FCF726F8FB691846FCF722F80A
:1083900000BF5437BD4690BD0077020C9478020CA4
:1083A0000877020CA433033080B58CB000AFF860BE
:1083B000B9607A6000233B620023FB610023FB620B
:1083C00000237B622F480EF045F83A6A7B689A4298
:1083D00003D33A6AFB699A4209D2FB6A1A46002122
:1083E000F868FFF745FA02463B6A13443B62FA69B4
:1083F0007B689A4203D3FA693B6A9A4209D27B6A44
:108400001A460121F868FFF733FA0246FB69134464
:10841000FB613A6A7B689A4207D3FA697B689A42A1
:1084200003D33A6AFB699A4206D0FB6A0133FB62C6
:108430007B6A01337B62C8E700BF0023BB6219E09F
:1084400007F114031A46F96AF868FFF7F3FCB861FC
:10845000BB681B68013BBA6A9A4205D37869BB685E
:10846000FA68B969FFF716FD7B69013BFB62BB6ADD
:108470000133BB62FB6A002BE2DA00BF00BF30377A
:10848000BD4680BD4078020C80B586B000AFF86074
:10849000B9607A607B80FB68002B05D0BB68002B3D
:1084A00002D07B68002B02D14FF0FF3363E0BB6842
:1084B0001B891A46BB68DB6813447B6107F1100215
:1084C000042379697868FBF78FFF0346002B02D0FD
:1084D0004FF0FF334FE03B8A46F60812934217D124
:1084E000BB685A897B8A9A4202D04FF0FF3342E040
:1084F0007B8A1A467B69D11807F110020423786839
:10850000FBF772FF0346002B09D04FF0FF3332E038
:10851000BB685B89002B02D04FF0FF332BE03B8A16
:1085200046F60712934202D04FF0FF3323E0FB6878
:10853000BA681A60FB687A685A60FB687A881A81A0
:10854000FB6897F820209A72FB681B685B891A46C3
:108550007B691A44FB68DA60FB681B685B891A4612
:108560007B6913447A8A1A44FB685A617B691A1D35
:10857000FB681A61002318461837BD4680BD80B5D8
:1085800086B000AFF860B9607A603B60FB68002B92
:1085900007D0FB681B68002B03D0FB685B68002BCF
:1085A00057D14FF0FF335BE0FB681B685B89002B02
:1085B0000AD0FB681A69FB68DB689A4204D1FB6841
:1085C0001B691A1DFB681A61FB685868FB6819690A
:1085D00007F110020423FBF707FF78617B69002B8A
:1085E00002D04FF0FF333BE0FB689B7A002B07D0B3
:1085F000FB681A69FB68DB689A4201D301232FE00C
:10860000FB681B894FF6FF72934204D03A8AFB68DD
:108610001B899A4216D13B68002B02D03A8A3B68EC
:108620001A80FB681B691A1DBB681A607A8A7B680E
:108630001A80FB681B697A8A13441A1DFB681A6149
:1086400000230DE0FB681B697A8A13441A1DFB683E
:108650001A61FB681A69FB685B699A42A4D301231B
:1086600018461837BD4680BD80B483B000AF78602F
:108670007B681B7818460C37BD4680BC704780B4B9
:1086800083B000AF78607B689B6818460C37BD46A6
:1086900080BC704780B483B000AF78607B68DB68D3
:1086A00018460C37BD4680BC7047000080B588B0C6
:1086B00000AFF860B9607A60FB687B61BB683B61C2
:1086C000144B1B68BB610023FB610CE07A69FB69FA
:1086D00013441A783969FB690B441B789A420ED10E
:1086E000FB690133FB61FA697B689A42EED3FA6950
:1086F0007B689A4205D1084B1B68BB6102E000BF52
:1087000000E000BFFDF72AF9BB6918462037BD46D7
:1087100080BD00BF0C0003300800033080B400AF00
:1087200050231846BD4680BC704780B483B000AF6C
:1087300078607A6813465B00134418460C37BD46D0
:1087400080BC704780B582B000AF78607868FFF772
:10875000ECFF024613469B0013441B0118460837E2
:10876000BD4680BD90B583B000AF78607868FFF7F4
:10877000E9FF0446FFF7D2FF0346234418460C37AF
:10878000BD4690BD90B583B000AF78607868FFF7C4
:10879000CCFF0446FFF7C2FF0346234418460C37BC
:1087A000BD4690BD80B582B000AF78603960386852
:1087B000FFF75AFF0346052B01D1032327E0386852
:1087C000FFF752FF03461A467B68002B06D07B68F2
:1087D000012B01D1022302E0FF2300E00123934299
:1087E00011D03868FFF740FF03461A467B68002B1C
:1087F00006D07B68012B01D1042302E0FF2300E0B7
:108800000323934201D1F02301E04FF0FF331846D8
:108810000837BD4680BD000080B584B000AF7860E9
:108820007868FCF775F8B8607B681B78052B04D175
:10883000B868FFF7A7FFF86003E0B868FFF792FF9A
:10884000F8607868FFF726FF0246FB68934205D977
:10885000074B084AB82108480DF07EF97868FFF701
:1088600019FF0246FB68D31A18461037BD4680BD73
:10887000A878020C3479020CD478020C80B582B04E
:1088800000AF78601022074978680DF0DDF90346E3
:10889000002B01D1012300E0022318460837BD4612
:1088A00080BD00BF4479020C80B582B000AF786013
:1088B0007868FFF7EFFE0346103B18460837BD46C1
:1088C00080BD80B582B000AF78607868FFF7ECFFBC
:1088D0000346103B23F00F0318460837BD4680BD02
:1088E00080B582B000AF78607868FFF7EAFF034692
:1088F000103B18460837BD4680BD80B582B000AF3A
:108900007860786800F021F90346103B1846083774
:10891000BD4680BD80B58AB000AF78603960052360
:108920003B727B68002B06D07B68012B01D10223B0
:1089300002E0FF2300E001237B7200237B6234E02E
:1089400007F108027B6A13441B7839681846FBF765
:108950000DFD38623B6A002B01D03B6A2AE03B6880
:108960001B681846FFF7A0FFF8613B68186807F11D
:108970000C021023F969FBF737FD38623B681B686E
:108980001846FBF727FD3B6A002B01D03B6A11E03C
:1089900007F10C031846FFF771FF0346012B01D1C5
:1089A000002307E07B6A01337B627B6A012BC7D916
:1089B0004FF0FF3318462837BD4680BD80B586B0DE
:1089C00000AF7860396007F10C0319467868FFF74B
:1089D000A1FF78617B69002B0FD1FB681846FFF778
:1089E0008CFF3861F86804233A683969FBF7FCFCAE
:1089F0007861FB681846FBF7EDFC7B691846183771
:108A0000BD4680BD80B584B000AF78607868FFF760
:108A100067FFF8607868FFF727FE7868FFF72FFE9A
:108A20000122F968786800F041FA034618461037C9
:108A3000BD4680BD80B584B000AF7860396078688D
:108A4000FFF75BFFF8607868FFF70EFE7868FFF7C6
:108A500016FE3A460423F968786800F0E3F9034605
:108A600018461037BD4680BD80B483B000AF786033
:108A70007B681B7818460C37BD4680BC704780B4B5
:108A800083B000AF78607B689B6818460C37BD46A2
:108A900080BC704780B483B000AF78607B68DB68CF
:108AA00018460C37BD4680BC7047000080B582B0C8
:108AB00000AF78601022074978680DF0C5F80346CA
:108AC000002B01D1012300E0022318460837BD46E0
:108AD00080BD00BF4479020C80B483B000AF034670
:108AE000FB71FB79012B01D0022300E00123184622
:108AF0000C37BD4680BC704780B582B000AF78604F
:108B00007868FFF7C7FF0346103B18460837BD4695
:108B100080BD80B582B000AF78607868FFF7ECFF69
:108B20000346103B23F00F0318460837BD4680BDAF
:108B300080B582B000AF78607868FFF7EAFF03463F
:108B4000103B18460837BD4680BD80B582B000AFE7
:108B500078607868FFF7ECFF0346103B184608374B
:108B6000BD4680BD80B483B000AF03460A46FB71AA
:108B70001346BB71FB79042B02D0052B02D008E011
:108B800001230DE0BB79012B14BF01230023DBB2CD
:108B900006E0FA79BB799A420CBF01230023DBB2CD
:108BA00018460C37BD4680BC704780B588B000AF12
:108BB000F860B9607A60BB68002B02D07B68002B3C
:108BC00001D100231AE0F868FCF7B1F90346FB76FF
:108BD0000023FB61BB687B610BE07A69FB6913448E
:108BE0001B78FA7E9A4201D0002307E0FB6901332B
:108BF000FB61FA697B689A42EFD30123184620375C
:108C0000BD4680BD80B586B000AFF860B9607A60BF
:108C10000123BA687968F868FBF7E6FB78617B693D
:108C2000002B01DA012315E00122B968F868FFF78B
:108C3000BCFF0346002B03D0BB6803221A7008E078
:108C4000BB681B781846FFF747FF0346DAB2BB68DC
:108C50001A70002318461837BD4680BD80B582B013
:108C600000AF786039607868FFF762FF03461A4604
:108C700039687868FFF7C6FF034618460837BD46CF
:108C800080BD80B58AB000AF786039607868FFF742
:108C900033FF786207F110021023796A7868FBF7D6
:108CA000A3FB38623B6A002B01DA012359E007F18C
:108CB0001003102219467868FFF777FF0346002B50
:108CC00003D03B6803221A7008E007F1100318462E
:108CD000FFF7ECFE0346DAB23B681A707868FFF7DC
:108CE00034FF786207F10F020123796A7868FBF795
:108CF0007BFB38623B6A002B01DA012331E0FB7B0E
:108D000003F00F03DAB23B685A70FB7B1B09DAB23F
:108D10003B681A7107F10F03012219467868FFF7C3
:108D200044FF0346002B03D13B685B78042B05D935
:108D30003B6801225A703B6800221A713B6802337B
:108D400019467868FFF78AFF38623B6A002B01D02A
:108D5000012306E03B6803331946786800F0D3F836
:108D6000034618462837BD4680BD80B584B000AFA5
:108D7000786039607B68DBB207F10802114618465B
:108D8000FBF7F4FAF860FB68002B01D001230AE03E
:108D9000BB6839681846FFF774FFF860BB6818466F
:108DA000FBF718FBFB6818461037BD4680BD000076
:108DB00080B58AB000AF78607868FFF79DFE786272
:108DC0007B6A23F00F033B627868FCF7B0F8034638
:108DD000FB77F97F07F10803102218460CF051FFCA
:108DE00007F1080310220E4918460CF03DFF786881
:108DF000FFF73AFE7868FFF742FE07F108021023FA
:108E0000396A7868FBF7E0FBB861BB69002B01D0D9
:108E1000012300E0002318462837BD4680BD00BF6F
:108E20004479020C80B58CB000AFF860B9607A600C
:108E3000FB70F868FBF76CFDF862FA78FB6A134484
:108E40005A1EFB6A5B421340FB62FB6A102B02D97D
:108E50004FF0FF3326E0F868FCF769F8034687F81F
:108E60002B30FA7807F11403796818460CF0FCFEF1
:108E7000FB7807F11402D01897F82B10FB78FA6AE8
:108E8000D31A1A460CF0FDFE07F11402FB6AB9680A
:108E9000F868FBF799FB78627B6A002B01D001230D
:108EA00000E0002318463037BD4680BD80B586B04F
:108EB00000AFF860B9601346FB71FB793B7507F1B1
:108EC00014020123B968F868FFF7ACFF034618469F
:108ED0001837BD4680BD80B584B000AF7860786833
:108EE000FFF717FEF8607868FFF7BEFD7868FFF7B8
:108EF000C6FD0122F9687868FFF7D8FF03461846D7
:108F00001037BD4680BD80B582B000AF7860396053
:108F10007868FFF7FEFD03461A4639687868FFF760
:108F200071FE034618460837BD4680BD80B584B043
:108F300000AF78600B46FB701346BB70BB780E2BFE
:108F400006D9184B184A40F2B11118480CF004FE2B
:108F5000FB780E2B06D9164B134A40F2B111134879
:108F60000CF0FAFDBB781B015AB297F9033013439A
:108F70005BB2DBB2FB727868FFF7E7FDF8607868F8
:108F8000FFF772FD7868FFF77AFD07F10B02012306
:108F9000F9687868FFF746FF034618461037BD4664
:108FA00080BD00BF6879020CA47A020C7C79020CA7
:108FB000E079020C80B58AB000AF786001237B6253
:108FC0007B6A012B11D17B68002B06D07B68012BBB
:108FD00001D1022302E0FF2300E0012307F1140284
:108FE00011461846FFF7C1FE78627B6A002B01D05C
:108FF000FF2395E07B68002B06D07B68012B01D115
:10900000042302E0FF2300E0032307F10C021146D2
:109010001846FFF7AAFE78627B6A012B0ED17968A9
:1090200041480DF017FA03233B7301237B7303239D
:10903000BB730323FB7300233B7404E07B6A002BA8
:1090400001D0FF236CE000233B6262E03A6A1346E2
:109050005B0013445B001A46344B1344FB61FB690D
:109060001B783A7D11461846FFF77CFD0346002B1E
:109070004CD0FB695B783A7B11461846FFF772FDCE
:109080000346002B42D0FB699B78042B04D0FB697C
:109090009A78FB7D9A4239D1FB69DB78042B04D0A6
:1090A000FB69DA78FB7B9A4230D1FB691B79042B90
:1090B00004D0FB691A79BB7D9A4227D1FB695B79A1
:1090C000022B0DD0FB695B79032B07D0FB695B7921
:1090D000042B01D1164B04E0164B02E0164B00E0C6
:1090E000164B194616480DF0B5F9FB695B79022B52
:1090F00009D0FB695B79032B05D0FB695B79042BF5
:1091000001D0FF230CE0FB695B7909E03B6A013386
:109110003B623B6A022B99D90A480DF09BF9012367
:1091200018462837BD4680BDF479020C5479020CEC
:10913000447A020C4C7A020C607A020C687A020CB7
:10914000707A020C887A020C80B582B000AF786029
:10915000786802F0FDFE0021786802F0FDFE00BF95
:109160000837BD4680BD80B483B000AF786000BFD3
:109170000C37BD4680BC704780B584B000AFF86046
:10918000B9607A607A68B968F86803F041FB034611
:1091900018461037BD4680BD80B582B000AF7860FC
:1091A00039603968786803F039FB03461846083798
:1091B000BD4680BD80B5A6B000AFF860B9607A60EA
:1091C0003B6007F114031846FFF7BEFFD7F8AC3039
:1091D000002B0CD0D7F8B030002B08DDD7F8B0202A
:1091E00007F11403D7F8AC101846FFF7C5FF7B68EA
:1091F0001B89A7F88E30B7F88E30C7F888307B68A7
:10920000DB68D7F888201344C7F88830D7F888304F
:10921000C7F884307B685B891A46D7F888301344D6
:10922000C7F888300023C7F8903037E0D7F8882097
:10923000D7F89030D31AC7F89430D7F89420D7F8DD
:10924000A4309A4203D9D7F8A430C7F89430D7F89D
:109250009430D7F8A020D7F890103868FBF7C4F8FE
:10926000C7F88000D7F88030002B07D007F114032F
:109270001846FFF778FFD7F8803022E007F1140393
:10928000D7F89420D7F8A0101846FFF775FFD7F845
:109290009020D7F894301344C7F89030D7F8902036
:1092A000D7F888309A42C1D307F11403D7F8A81031
:1092B0001846FFF771FF07F114031846FFF753FF35
:1092C000002318469837BD4680BD000080B5B4B075
:1092D00000AF03463960FB711346BB802023FB605F
:1092E00007F150031846FFF72FFFBA8807F1500324
:1092F00039681846FFF740FF07F1300207F15003C5
:1093000011461846FFF748FF07F150031846FFF7CC
:109310002AFF07F10C0207F11001FB791846FBF751
:10932000A3FDC7F8C800D7F8C830002B02D0D7F883
:10933000C83035E0FCF7E6FAC7F8C4001A4B1B68E2
:10934000C7F8CC300123002B09D0FA6807F11001CF
:1093500007F130031846FFF7A9F9C7F8CC00D7F892
:10936000C400FCF7E5FA114B1B68D7F8CC20C7F80E
:10937000C020C7F8BC30D7F8C020D7F8BC309A421C
:109380000CBF01230023DBB2002B07D0084A3B6847
:109390001360BB88074A1360002301E04FF0FF33DE
:1093A0001846D037BD4680BD0C000330080003309E
:1093B000000003304021033080B590B002AFF86068
:1093C000B9607A60FB68002B05D0BB68002B02D027
:1093D0007B68002B01D1072336E0FB685B89002BFB
:1093E00001D1032330E007F11C0001230093502337
:1093F000BA68F968FFF748F878637B6B002B01D0F7
:109400007B6B21E007F1160207F1180107F11C0040
:109410000023FFF7B4F878637B6B002B02D04FF08A
:10942000FF3311E0FB8A042B01D003230CE0B96960
:10943000FB8A7A68B868FAF7D7FF78637B6B002BF2
:1094400001D0012300E0002318463837BD4680BD17
:1094500090B5ADF57B7D06AF07F57474A4F5717416
:10946000206007F57470A0F57270016007F57471E3
:10947000A1F573710A6007F57472A2F57472136036
:109480000023C7F8CC33BD4B1B68C7F8C8334FF077
:10949000FF33C7F8C4330023C7F8C033B74B1B688A
:1094A000C7F8BC336FF00043C7F8A833D7F8A82338
:1094B00007F57473A3F56F731A6007F57473A3F55A
:1094C000707300221A60AD4B1B68C7F8B83307F5FC
:1094D0007473A3F5747307F57472A2F5737207F5CC
:1094E0007471A1F5727107F57470A0F57170D7F8F9
:1094F000EC430494D7F8E843039407F1180402946A
:10950000D7F8E4430194D7F8E04300941B6812684D
:1095100009680068FFF74EFEC7F8C003D7F8C033EC
:10952000002B40F0F481D7F8F033002B07D007F17F
:10953000180320221946D7F8F0030CF095FB07F525
:109540007473A3F5747207F57473A3F5737107F55B
:10955000DC70002300934FF6FF7312680968FEF772
:1095600093FFC7F8C003D7F8C033002B40F0D18178
:1095700007F55A7307F26A3207F55B7107F5DC707D
:10958000FEF7FDFFC7F8C003D7F8C033002BC0F2C9
:10959000C281D7F8C033002B00F37581B7F8683368
:1095A000102B4CD1B7F86A33202B04D04FF0FF3387
:1095B000C7F8C033C2E1D7F86C1307F1380207F5DA
:1095C0007473A3F5747020230068FAF70DFFC7F8D1
:1095D000C003D7F8C033002B40F09F81FCF792F90D
:1095E000C7F8AC03654B1B68C7F8BC330123002BDD
:1095F00009D007F1380107F1180320221846FFF7B8
:1096000055F8C7F8BC03D7F8AC03FCF791F95C4BED
:109610001B68D7F8BC23C7F8A423C7F8A033D7F832
:10962000A423D7F8A0339A4214BF01230023DBB24E
:10963000002B40F074810123C7F8CC3398E7B7F8CA
:109640006833022B2FD1B7F86A33B3F5CC7F04D936
:109650004FF0FF33C7F8C03370E1D7F86C13B7F899
:109660006A331C4607F5E87207F57473A3F5747046
:1096700023460068FAF7B8FEC7F8C003D7F8C0332E
:10968000002B40F04E8107F57473A3F572731B68CD
:10969000DBB2B7F86A2307F5E8711846FFF716FE44
:1096A000C7F8C40364E7B7F86833232B58D1D7F859
:1096B000C433002B05DB334B1B68D7F8C4239A4215
:1096C00004DB4FF0FF33C7F8C433DBE0B7F86A338D
:1096D000B3F5C07F04D1B7F86A33B3F5C07F04D9BE
:1096E0004FF0FF33C7F8C03328E1D7F86C13B7F851
:1096F0006A331C4607F1380207F57473A3F57470DA
:1097000023460068FAF770FEC7F8C003D7F8C033E5
:10971000002B40F00881FCF7F5F8C7F8B003174BB1
:109720001B68C7F8C8330123002B10D0B7F86A3381
:109730001946D7F8C433DBB207F1380207F1180035
:1097400000930B46202100F03FFBC7F8C803D7F871
:10975000B003FCF7EDF84FF0FF33C7F8C43307E769
:10976000B7F86833502B7FF403AFB7F86A33042B94
:109770000AD04FF0FF33C7F8C033DFE00C000330EE
:10978000080003309470020CD7F86C13B7F86A33F2
:109790001C4607F1100207F57473A3F57470234695
:1097A0000068FAF721FEC7F8C003D7F8C033002BD2
:1097B00040F0BB80FCF7A6F8C7F8B4036A4B1B68FF
:1097C000C7F8BC330123002B0CD007F57473A3F545
:1097D00072731B6807F1140211461846FBF7DEF896
:1097E000C7F8BC03D7F8B403FCF7A2F85F4B1B68BB
:1097F000D7F8BC23C7F89C23C7F89833D7F89C2325
:10980000D7F898339A4214BF01230023DBB2002B10
:1098100040F08D8007F57473A3F56F731B68C7F86C
:109820008833D7F888331A4607F57473A3F5707335
:109830001B689A428CBF01230023DBB2C7F88C332C
:10984000D7F88C33002B02D0474B1B6801E0474B05
:109850001B68C7F8BC33454B1B68D7F8BC23C7F857
:109860009423C7F89033D7F89423D7F890339A42CB
:1098700014BF01230023DBB2002B5AD1D7F8BC332D
:10988000C7F8B83374E600BFD7F8CC33002B0CBF51
:1098900001230023DBB2C7F8C033D7F8C033002B55
:1098A00049D1324B1B68D7F8C823C7F87823C7F8CB
:1098B0007433D7F87823D7F874339A4214BF01234E
:1098C0000023DBB2C7F87C33D7F87C33002B02D0FF
:1098D000254B1B6801E0254B1B68C7F8BC33234BA5
:1098E0001B68D7F8B823C7F88423C7F88033D7F8A4
:1098F0008423D7F880339A4214BF01230023DBB2BC
:10990000002B1AD04FF0FF33C7F8C03316E000BF6A
:1099100014E000BF12E000BF10E000BF0EE000BF87
:109920000CE000BF0AE000BF08E000BF06E000BF97
:1099300004E000BF02E000BF00E000BFD7F8C03382
:10994000002B07D0D7F8C033C7F87033D7F870337F
:10995000C7F8BC33FCF702F8D7F8BC33184607F554
:109960007577BD4690BD00BF0C0003300800033082
:1099700080B582B000AF7860786802F0E9FA002123
:10998000786802F0E9FA00BF0837BD4680BD80B4B0
:1099900083B000AF786000BF0C37BD4680BC704715
:1099A00080B584B000AFF860B9607A607A68B96851
:1099B000F86802F02DFF034618461037BD4680BDFB
:1099C00080B582B000AF786039603968786802F09D
:1099D00025FF034618460837BD4680BD80B588B0D0
:1099E00002AFF860B9607A6007F11002302379683D
:1099F000B86800F099FA78617B69002B02D04FF0CB
:109A0000FF3359E0BB681A683B6913447A689A428D
:109A100002D06FF001034FE0FB6808331A46796803
:109A2000B86800F099FA78617B69002B0AD1FB686D
:109A300014331A467968B86800F08EFA78617B6949
:109A4000002B02D06FF0020336E0FB6808331846A3
:109A500000F0BAFD0246FB685A60BB681B687A6872
:109A60009A4202D06FF0030326E0FB6803F108017D
:109A7000FB68143301930023009300230022F8684D
:109A800002F0AEF978617B69002B02D06FF004031D
:109A900012E0F86802F0E4F978617B69002B02D0EB
:109AA0006FF0050308E0FB680833184600F08CFDF2
:109AB0000246FB685A60002318461837BD4680BD31
