:020000040C03EB
:10A000003DB8F3960000000000047B00C0D80300B8
:10A010000000000001060000000000000000000039
:10A02000FFFFFFFFFFFFFFFFFFFFFFFFFFFFFFFF40
:10A03000FFFFFFFFFFFFFFFFFFFFFFFFFFFFFFFF30
:10A04000FFFFFFFFFFFFFFFFFFFFFFFFFFFFFFFF20
:10A05000FFFFFFFFFFFFFFFFFFFFFFFFFFFFFFFF10
:10A4000000240230C1A9030C196E040C795D040C00
:10A41000795D040C795D040CC1A6030CC7A6030C7E
:10A42000000000000000000000000000ADD6040C99
:10A43000CDA6030C000000006DD6040CD3A6030CBF
:10A44000D9A6030CDFA6030CE5A6030CEBA6030CB0
:10A45000795D040CF1A6030CF7A6030CFDA6030C12
:10A4600003A7030C09A7030C0FA7030C15A7030CE4
:10A470001BA7030C21A7030C27A7030C2DA7030C74
:10A4800033A7030C39A7030C3FA7030C45A7030C04
:10A490004BA7030C51A7030C57A7030C5DA7030C94
:10A4A00063A7030C69A7030C6FA7030C75A7030C24
:10A4B0007BA7030C81A7030C87A7030C8DA7030CB4
:10A4C00093A7030C99A7030C9FA7030CA5A7030C44
:10A4D000ABA7030CB1A7030CB7A7030CBDA7030CD4
:10A4E000C3A7030CC9A7030CCFA7030CD5A7030C64
:10A4F000DBA7030CE1A7030CE7A7030CEDA7030CF4
:10A50000F3A7030CF9A7030CFFA7030C05A8030C82
:10A510000BA8030C11A8030C17A8030C1DA8030C0F
:10A5200023A8030C29A8030C2FA8030C35A8030C9F
:10A530003BA8030C41A8030C47A8030C4DA8030C2F
:10A5400053A8030C59A8030C5FA8030C65A8030CBF
:10A550006BA8030C71A8030C77A8030C7DA8030C4F
:10A5600083A8030C89A8030C8FA8030C95A8030CDF
:10A570009BA8030CA1A8030CA7A8030CADA8030C6F
:10A58000B3A8030CB9A8030CBFA8030CC5A8030CFF
:10A59000CBA8030CD1A8030CD7A8030CDDA8030C8F
:10A5A000E3A8030CE9A8030CEFA8030CF5A8030C1F
:10A5B000FBA8030C01A9030C07A9030C0DA9030CAC
:10A5C00013A9030C19A9030C1FA9030C25A9030C3B
:10A5D0002BA9030C31A9030C37A9030C3DA9030CCB
:10A5E00043A9030C49A9030C4FA9030C55A9030C5B
:10A5F0005BA9030C61A9030C67A9030C6DA9030CEB
:10A6000073A9030C79A9030C7FA9030C85A9030C7A
:10A610008BA9030C91A9030C97A9030C9DA9030C0A
:10A62000A3A9030CA9A9030CAFA9030CB5A9030C9A
:10A63000BBA9030C80B483B000AF0346FB7197F94C
:10A640000730002B0BDBFB7903F01F02064997F95B
:10A6500007305B09012000FA02F241F8232000BF15
:10A660000C37BD4680BC704700E100E080B483B089
:10A6700000AF03463960FB7197F90730002B0ADB06
:10A680003B68DAB20C4997F907301201D2B20B4499
:10A6900083F800230AE03B68DAB20849FB7903F04B
:10A6A0000F03043B1201D2B20B441A7600BF0C37E1
:10A6B000BD4680BC704700BF00E100E000ED00E057
:10A6C00080B400AFFEE780B400AFFEE780B400AF17
:10A6D000FEE780B400AFFEE780B400AFFEE780B4D1
:10A6E00000AFFEE780B400AFFEE780B400AFFEE746
:10A6F00080B400AFFEE780B400AFFEE780B400AFE7
:10A70000FEE780B400AFFEE780B400AFFEE780B4A0
:10A7100000AFFEE780B400AFFEE780B400AFFEE715
:10A7200080B400AFFEE780B400AFFEE780B400AFB6
:10A73000FEE780B400AFFEE780B400AFFEE780B470
:10A7400000AFFEE780B400AFFEE780B400AFFEE7E5
:10A7500080B400AFFEE780B400AFFEE780B400AF86
:10A76000FEE780B400AFFEE780B400AFFEE780B440
:10A7700000AFFEE780B400AFFEE780B400AFFEE7B5
:10A7800080B400AFFEE780B400AFFEE780B400AF56
:10A79000FEE780B400AFFEE780B400AFFEE780B410
:10A7A00000AFFEE780B400AFFEE780B400AFFEE785
:10A7B00080B400AFFEE780B400AFFEE780B400AF26
:10A7C000FEE780B400AFFEE780B400AFFEE780B4E0
:10A7D00000AFFEE780B400AFFEE780B400AFFEE755
:10A7E00080B400AFFEE780B400AFFEE780B400AFF6
:10A7F000FEE780B400AFFEE780B400AFFEE780B4B0
:10A8000000AFFEE780B400AFFEE780B400AFFEE724
:10A8100080B400AFFEE780B400AFFEE780B400AFC5
:10A82000FEE780B400AFFEE780B400AFFEE780B47F
:10A8300000AFFEE780B400AFFEE780B400AFFEE7F4
:10A8400080B400AFFEE780B400AFFEE780B400AF95
:10A85000FEE780B400AFFEE780B400AFFEE780B44F
:10A8600000AFFEE780B400AFFEE780B400AFFEE7C4
:10A8700080B400AFFEE780B400AFFEE780B400AF65
:10A88000FEE780B400AFFEE780B400AFFEE780B41F
:10A8900000AFFEE780B400AFFEE780B400AFFEE794
:10A8A00080B400AFFEE780B400AFFEE780B400AF35
:10A8B000FEE780B400AFFEE780B400AFFEE780B4EF
:10A8C00000AFFEE780B400AFFEE780B400AFFEE764
:10A8D00080B400AFFEE780B400AFFEE780B400AF05
:10A8E000FEE780B400AFFEE780B400AFFEE780B4BF
:10A8F00000AFFEE780B400AFFEE780B400AFFEE734
:10A9000080B400AFFEE780B400AFFEE780B400AFD4
:10A91000FEE780B400AFFEE780B400AFFEE780B48E
:10A9200000AFFEE780B400AFFEE780B400AFFEE703
:10A9300080B400AFFEE780B400AFFEE780B400AFA4
:10A94000FEE780B400AFFEE780B400AFFEE780B45E
:10A9500000AFFEE780B400AFFEE780B400AFFEE7D3
:10A9600080B400AFFEE780B400AFFEE780B400AF74
:10A97000FEE780B400AFFEE780B400AFFEE780B42E
:10A9800000AFFEE780B400AFFEE780B400AFFEE7A3
:10A9900080B400AFFEE780B400AFFEE780B400AF44
:10A9A000FEE780B400AFFEE780B400AFFEE780B4FE
:10A9B00000AFFEE780B400AFFEE780B400AFFEE773
:10A9C00080B586B000AF00210420FFF74FFE0420C1
:10A9D000FFF730FE364B7B607B6883F30A8800BF4D
:10A9E000344B354A9A60334BDB683B603B68DB4352
:10A9F0001B0C1B043A6892B213432E4A43F4804363
:10AA0000D3602E4BD3F8A8302C4A43F00203C2F88F
:10AA1000A8302A4BD3F8A8303B603B68284B1B6911
:10AA2000274A43F0010313610BF06EF9254B7B615C
:10AA30001AE000233B610EE07B691A683B699B00CA
:10AA40001A447B6959683B699B000B4412681A6081
:10AA50003B6901333B617B699B689B083A699A4279
:10AA6000EAD37B690C337B617B69174A9342E0D35D
:10AA7000164BFB6015E00023BB6009E0FB681A6819
:10AA8000BB689B00134400221A60BB680133BB60A3
:10AA9000FB685B689B08BA689A42EFD3FB6808338F
:10AAA000FB60FB680A4A9342E5D317F023FB00BF23
:10AAB0000020023000ED00E000A4030C000C025660
:10AAC00000040056D4AA030CF8AA030CF8AA030C3D
:10AAD00018AB030C0001050CC0BF02306C01000074
:10AAE000C000050C0034023040000000A000050C3E
:10AAF000200002302000000040C10230783B0000FE
:10AB000040340230808B000040000230C01B000047
:10AB1000000002300400000001015F5F030100003B
:10AB20001F010000ABB1030C00200000000000007A
:10AB30000100000001000000000000000000000013
:10AB4000487A02300000000070000000EC0E070C94
:10AB5000800000000007000001000000CFB1030CDE
:10AB60000100000001015F5F050100001F010000FE
:10AB70007FEC030C800A00000000000001000000D0
:10AB8000010000000000000000000000C89C02302E
:10AB90000000000080000000F80E070C20000000FC
:10ABA000030700000100000041EC030C010000005D
:10ABB00001015F5F000100001F000000A930050CCB
:10ABC0000008000000000000030000000100000079
:10ABD00000000000000000006012023000000000D1
:10ABE000800000007000000042000000100F070C01
:10ABF0006000000001070000010000003130050C7A
:10AC00000100000001015F5F010100001F01000061
:10AC1000FD0C040C80060000000000000000000095
:10AC2000010000000000000000000000B0A9023098
:10AC300000000000300F070C700000000207000049
:10AC4000010000000D0D040C0100000000015F5F19
:10AC5000040100001F0300008135040C0005000002
:10AC600000000000000000000300000000000000E1
:10AC70000000000030B0023000000000580F070C48
:10AC8000400000000005000001000000000000007E
:10AC900010000000780F070C4100000000050000C4
:10ACA000010000000000000020000000900F070CD1
:10ACB000420000000004000001000000000000004D
:10ACC0004000000000015F5F0F0100001F03000053
:10ACD000313B040C000600000000000002000000F0
:10ACE00006000000000000000000000070B9023003
:10ACF000000000008000000040000000AC0F070CC6
:10AD0000A00000000005000001000000000000009D
:10AD100010000000BC0F070CA1000000000500009F
:10AD2000010000000000000020000000CC0F070C14
:10AD3000A20000000005000001000000000000006B
:10AD400040000000DC0F070CA3000000000500001D
:10AD5000010000000000000080000000EC0F070C64
:10AD6000A400000000050000010000000000000039
:10AD7000000100000410070CA50000000005000001
:10AD800001000000000000000002000000015F5F01
:10AD900000000000FE030000C1D7040C0004000006
:10ADA00000000000000000000000000000000000A3
:10ADB00000000000A0C402300000000001015F5F3D
:10ADC00001000000FF030000F9D7040C000100009F
:10ADD0000000000000000000000000000000000073
:10ADE00000000000A0C802300000000000000000C9
:10ADF0000000000000000000000000000000000053
:10AE000080B483B000AF7860064B03F580531A46D8
:10AE10007B68C2F80434002318460C37BD4680BC5A
:10AE2000704700BF4034023080B483B000AF786018
:10AE3000064B03F58053D3F804247B681A60002383
:10AE400018460C37BD4680BC704700BF4034023006
:10AE500080B483B000AF786039607B68033323F03F
:10AE600003037B60134B03F58053D3F80034C3F521
:10AE7000A0537A689A4202D96FF08C0315E00D4B0B
:10AE800003F58053D3F800340A4A1A443B681A6029
:10AE9000084B03F58053D3F800247B681344054A1C
:10AEA00002F58052C2F80034002318460C37BD4624
:10AEB00080BC70474034023080B584B000AF104B86
:10AEC00003F580531A460023C2F804340C4B03F5F3
:10AED0008053D3F800340A4AFA600022BA607B60DB
:10AEE0007A68B968F86817F058FF054B03F5805386
:10AEF0001A460023C2F8003400BF1037BD4680BD9B
:10AF00004034023090B5A5B000AF78600023C7F898
:10AF100080300423C7F88C300423C7F8883007F149
:10AF2000600320220021184617F037FF07F1400385
:10AF300020220021184617F030FF07F10C033422BD
:10AF40000021184617F029FF0023BB6004E0D7F862
:10AF50008C30013BC7F88C30D7F88C30002B08D0F0
:10AF6000D7F88C305A1E7B68043253F82230002BFD
:10AF7000EDD0D7F88C30002B02D16FF08303E5E0E1
:10AF80007B68586807F10C023423002117F066FE35
:10AF90000346342B02D06FF08303D7E0FB68402BCD
:10AFA00002D96FF08303D1E007F10C033B66342331
:10AFB0007B660123C7F8843039E07B68D7F88420AA
:10AFC000043253F8223007F1080211461846FFF701
:10AFD0003FFFC7F88000D7F88030002B04D0FFF780
:10AFE0006BFFD7F88030B1E07B685868B9687B6840
:10AFF000D7F88420043253F822300A46D7F8841058
:10B0000017F02CFE0246D7F88430DB0090333B4427
:10B0100043F82C2CBA68D7F88430DB0090333B44DB
:10B0200043F8302CD7F884300133C7F88430D7F890
:10B030008420D7F88C309A42BFD304E0D7F8883008
:10B04000013BC7F88830D7F88830002B08D0D7F8F4
:10B0500088305A1E7B68083253F82230002BEDD01E
:10B060000023C7F8843030E07B68D7F884200832AA
:10B0700053F8223007F1080211461846FFF7E8FEA0
:10B08000C7F88000D7F88030002B04D0FFF714FFFA
:10B09000D7F880305AE0BA68D7F88430DB009033B4
:10B0A0003B4443F8502C7B68D7F88420083253F88F
:10B0B0002220D7F88430DB0090333B4443F84C2CFB
:10B0C000D7F884300133C7F88430D7F88420D7F814
:10B0D00088309A42C8D37B689B681846FFF790FE79
:10B0E000FB681C4A52F8234007F1400207F1600058
:10B0F000D7F88830D7F88C10A047C7F88000002315
:10B10000C7F8843018E07B685868D7F88430DB00D3
:10B1100090333B4453F8502CD7F88430DB00903305
:10B120003B4453F84C3CD7F8841017F09BFDD7F8FC
:10B1300084300133C7F88430D7F88420D7F88830BA
:10B140009A42E0D3FFF7B8FED7F88030184694371C
:10B15000BD4690BD2858040C80B500AF4FF4025195
:10B1600007481AF0E3F933F0B9FB0346002B02D08D
:10B170006FF0920302E01EF04BFE0346184680BDBE
:10B180004848023080B500AF00F080F8034618460A
:10B1900080BD80B582B000AF78607868FFF744FE6C
:10B1A000034618460837BD4680BD80B582B000AF63
:10B1B000FFF7E8FF78607B68002B01D07B6802E036
:10B1C000FFF7CAFF034618460837BD4680BD80B565
:10B1D00082B000AF78607B681B68002B04D1786870
:10B1E000FFF790FE034601E06FF08503184608372D
:10B1F000BD4680BD80B588B000AF78607B684FF4F5
:10B200000C7202FB03F310331F4A1344BB611E4A46
:10B210007B684FF40C7101FB03F3134408331B6884
:10B22000013B042B1ED801A252F823F041B2030CBB
:10B2300047B2030C4FB2030C55B2030C5DB2030CC2
:10B240005423FB6111E04FF4C073FB610DE0E82370
:10B25000FB610AE04FF40873FB6106E04FF4D8731A
:10B26000FB6102E00023FB6100BFBB697B6100233F
:10B270003B61FB69FB60FA683969786917F08DFDFD
:10B2800000BF2037BD4680BDC868023080B584B09D
:10B2900000AF084BFB600023BB604FF48C537B6016
:10B2A0007A68B968F86817F078FD002318461037F7
:10B2B000BD4680BDC868023080B588B000AFF86078
:10B2C000B9607A600023FB6100237B6107F11403FE
:10B2D0001846FFF75EFFB861BB69002B01D0BB6960
:10B2E00072E0BB681B68002B23D0BB681B68082B6F
:10B2F0001CD8BB681B68013B354A4FF40C7101FB3D
:10B3000003F313441B68012B10D1BB681B68013B7E
:10B310002F4A4FF40C7101FB03F3134404331A68F2
:10B320007B699A4202D16FF088034DE06FF087038A
:10B330004AE07B68002B02D16FF0860344E07B6813
:10B3400000221A600023FB6139E0214AFB694FF4B7
:10B350000C7101FB03F313441B68002B2CD11C4A16
:10B36000FB694FF40C7101FB03F3134401221A60D3
:10B370007A691749FB694FF40C7000FB03F30B4427
:10B3800004331A60124AFB694FF40C7101FB03F39A
:10B3900013440833FA681A60FB695A1CBB681A60C8
:10B3A000FB694FF40C7202FB03F31033084A1A4492
:10B3B0007B681A60002307E0FB690133FB61FB69CE
:10B3C000072BC2D96FF0840318462037BD4680BDD5
:10B3D000C868023080B586B000AF78607B681B68B3
:10B3E0007B610023FB6007F10C031846FFF7D1FED9
:10B3F00038613B69002B01D03B6949E07B69002B38
:10B4000044D07B69082B41D87B69013B224A4FF429
:10B410000C7101FB03F313441B68012B36D17B69CC
:10B42000013B1D4A4FF40C7101FB03F31344043339
:10B430001A68FB689A4229D17B69013B1846FFF7DD
:10B44000D9FE7B69013B144A4FF40C7101FB03F3F5
:10B45000134400221A607B69013B0F4A4FF40C71C0
:10B4600001FB03F31344083300221A607B69013B9C
:10B47000094A4FF40C7101FB03F313440433002217
:10B480001A607B6800221A60002301E06FF08603D7
:10B4900018461837BD4680BDC868023080B586B0F2
:10B4A00000AFF860B9607A6000233B6107F11003D8
:10B4B0001846FFF76EFE78617B69002B01D07B692F
:10B4C00039E0BB68002B34D0BB68082B31D8BB688F
:10B4D000013B1B4A4FF40C7101FB03F313441B683F
:10B4E000012B26D1BB68013B154A4FF40C7101FBBF
:10B4F00003F3134408331B68FA689A4219D1BB68F6
:10B50000013B0F4A4FF40C7101FB03F31344043366
:10B510001A683B699A420CD1BB68013B4FF40C722C
:10B5200002FB03F31033064A1A447B681A600023B7
:10B5300001E06FF0880318461837BD4680BD00BF94
:10B54000C868023080B485B000AFF860B9607A6036
:10B550003B60FA68BB689A420DD3FA687B689A42EE
:10B5600009D83A68BB699A4205D33A68FB699A429E
:10B5700001D8012300E0002318461437BD4680BCE3
:10B58000704780B58EB002AFF860B9607A603B60FA
:10B590000023FB6200237B610223019301230093BC
:10B5A0003B6801220121B868FFF7CCFF034683F016
:10B5B0000103DBB2002B02D06FF0800338E0FB68A0
:10B5C0005B68342B03D17B685B68042B02D06FF07F
:10B5D00080032DE0FB681B68BB62BB6A1B697B6252
:10B5E0007B681B683B627B6808331B68FB617B6878
:10B5F00008335B68BB61BB6A1A693B6A1A6007F172
:10B6000014031A46796A0120FFF748FFF862FB6AC3
:10B61000002B01D0FB6A0BE03B6A7A6A1A607869FA
:10B620007B6808330433BA69F9691EF005F90346EB
:10B6300018463037BD4680BD80B58EB002AFF86089
:10B64000B9607A603B600023FB6200237B610123C9
:10B650000193012300933B6802220121B868FFF7A0
:10B6600071FF034683F00103DBB2002B02D06FF0C1
:10B67000800333E0FB685B68342B03D17B685B6835
:10B68000042B02D06FF0800328E0FB681B68BB62CC
:10B69000BB6A1B697B627B681B683B62FB68083383
:10B6A0001B68FB61FB6808335B68BB61BB6A1A6996
:10B6B0003B6A1A6007F114031A46796A0120FFF702
:10B6C000EDFEF862FB6A002B01D0FB6A06E07B69A5
:10B6D000BA69F96918461CF0F7FE03461846303778
:10B6E000BD4680BD80B590B002AFF860B9607A60A9
:10B6F0003B6000237B6300233B6201230193012312
:10B7000000933B6801220121B868FFF71BFF034645
:10B7100083F00103DBB2002B02D06FF0800348E01E
:10B720007B685B68042B03D1FB685B68342B02D019
:10B730006FF080033DE0FB681B683B633B6B1B695C
:10B74000FB617B681B68FB623B6B9B68BB623B6B6E
:10B75000DB687B6207F1200207F11C031946012018
:10B76000FFF7AAFD78637B6B002B01D07B6B20E099
:10B77000FA69FB6A1A6007F114031946B86A01F006
:10B78000F9F878637B6B002B0CD1386A7B6A07F180
:10B79000140206CA1CF07CFE78637B6B002B03D17D
:10B7A0007B6B06E000BF00E000BFF86AFFF712FE07
:10B7B0007B6B18463837BD4680BD80B590B002AF70
:10B7C000F860B9607A603B6000237B6300233B62D2
:10B7D00001230193012300933B6801220121B868F2
:10B7E000FFF7B0FE034683F00103DBB2002B02D06B
:10B7F0006FF0800348E07B685B68042B03D1FB6833
:10B800005B68342B02D06FF080033DE0FB681B685F
:10B810003B633B6B1B69FB617B681B68FB623B6B9B
:10B820009B68BB623B6BDB687B6207F1200207F120
:10B830001C0319460120FFF73FFD78637B6B002B4B
:10B8400001D07B6B20E0FA69FB6A1A6007F11403F0
:10B850001946B86A01F08EF878637B6B002B0CD127
:10B86000386A7B6A07F1140206CA1CF01FFE78636F
:10B870007B6B002B03D17B6B06E000BF00E000BFB9
:10B88000F86AFFF7A7FD7B6B18463837BD4680BDC9
:10B8900080B590B002AFF860B9607A603B60002379
:10B8A0007B6300237B6102230193012300933B68A8
:10B8B00002220121B868FFF745FE034683F0010329
:10B8C000DBB2002B02D06FF0800345E0FB685B68C1
:10B8D000342B03D17B685B68042B02D06FF08003AC
:10B8E0003AE0FB681B683B633B6B1B69FB627B6850
:10B8F0001B68BB62FB6808331B687B62FB6808330C
:10B900005B683B627B6808331B68FB617B680833BC
:10B910005B68BB613B6B1A69BB6A1A607B68083362
:10B9200000225A6007F114031A46F96A0120FFF752
:10B93000B5FD78637B6B002B01D07B6B0CE07869E5
:10B940007B68083304330193BB690093FB693A6A4F
:10B95000796A1CF0E9FD034618463837BD4680BDBC
:10B9600080B58EB002AFF860B9607A603B600023AA
:10B97000FB6200237B6102230193012300933B6858
:10B9800001220121B868FFF7DDFD034683F00103C2
:10B99000DBB2002B02D06FF0800340E0FB685B68F5
:10B9A000342B03D17B685B68042B02D06FF08003DB
:10B9B00035E0FB681B68BB62BB6A1B697B627B6806
:10B9C0001B683B627B6808331B68FB617B6808333C
:10B9D0005B68BB61BB6A1A693B6A1A607B680833A3
:10B9E00000225A6007F114031A46796A0120FFF712
:10B9F00055FDF862FB6A002B01D0FB6A0FE0786905
:10BA00007B6808330433BA69F9691CF0B5FDF86244
:10BA1000FB6A002B02D1386AFFF7DCFCFB6A184690
:10BA20003037BD4680BD80B58CB002AFF860B960DC
:10BA30007A603B6000237B6200237B6101230193DA
:10BA4000012300933B6801220121B868FFF77AFDCA
:10BA5000034683F00103DBB2002B02D06FF08003BA
:10BA600035E0FB685B68342B03D17B685B68042B93
:10BA700002D06FF080032AE0FB681B683B623B6AE0
:10BA80001B69FB617B681B68BB613B6A1A69BB6908
:10BA90001A6007F114031A46F9690120FFF7FEFC4A
:10BAA00078627B6A002B01D0002310E07B69184686
:10BAB0001CF090FD78627B6A002B04D0B869FFF718
:10BAC00089FC7B6A03E0B869FFF784FC03461846EB
:10BAD0002837BD4680BD80B592B004AFF860B9602C
:10BAE0007A603B6000237B63012301930123009371
:10BAF0003B6802220121B868FFF724FD034683F06A
:10BB00000103DBB2002B02D06FF080033AE0FB6848
:10BB10005B68342B02D06FF0800333E0FB681B6856
:10BB20003B633B6B9B68FB623B6BDB68BB62FB6808
:10BB300008331B687B62FB6808335B683B627B6889
:10BB40001B68FB617B685B68BB6107F110031946EA
:10BB5000F86A00F00FFF78637B6B002B01D07B6BE2
:10BB600010E07B6804330393BB690293FB69019384
:10BB70003B6A00937B6ABA6A07F1100103C91DF0A2
:10BB8000A9FE034618463837BD4680BD80B592B041
:10BB900004AFF860B9607A603B6000237B630123E7
:10BBA0000193012300933B6802220121B868FFF74B
:10BBB000C9FC034683F00103DBB2002B02D06FF017
:10BBC00080033AE0FB685B68342B02D06FF080039F
:10BBD00033E0FB681B683B633B6B9B68FB623B6B22
:10BBE000DB68BB62FB6808331B687B62FB68083359
:10BBF0005B683B627B681B68FB617B685B68BB6161
:10BC000007F110031946F86A00F0B4FE78637B6B05
:10BC1000002B01D07B6B10E07B6804330393BB697E
:10BC20000293FB6901933B6A00937B6ABA6A07F14E
:10BC3000100103C91CF0DEFC034618463837BD4628
:10BC400080BD80B485B000AFF860B9607A603B60B9
:10BC5000FA68BB689A420DD3FA687B689A4209D8A1
:10BC60003A68BB699A4205D33A68FB699A4201D89F
:10BC7000012300E0002318461437BD4680BC7047FE
:10BC800080B58CB002AFF860B9607A603B60002389
:10BC90007B6200237B6101230193012300933B68B6
:10BCA00001220121B868FFF7CCFF034683F00103AE
:10BCB000DBB2002B02D06FF0800338E07B685B685A
:10BCC000042B03D1FB685B68342B02D06FF0800338
:10BCD0002DE0FB681B683B623B6A1B693B617B682C
:10BCE0001B68FB613B6ADB68BB613B6A1A69FB69E5
:10BCF0001A6007F1140207F1100319460320FFF739
:10BD0000DBFA78627B6A002B01D07B6A0FE03A692C
:10BD1000FB691A607B69B96918461BF0BDFD786242
:10BD20007B6A002B02D0F869FFF754FB7B6A184648
:10BD30002837BD4680BD80B58EB002AFF860B960CF
:10BD40007A603B600023FB6200237B610123019347
:10BD5000012300933B6802220121B868FFF771FFBD
:10BD6000034683F00103DBB2002B02D06FF08003A7
:10BD700033E0FB685B68342B03D17B685B68042B82
:10BD800002D06FF0800328E0FB681B68BB62BB6ACF
:10BD90001B697B627B681B683B62FB6808331B681E
:10BDA000FB61FB6808335B68BB61BB6A1A693B6A6D
:10BDB0001A6007F114031A46796A0320FFF76EFB35
:10BDC000F862FB6A002B01D0FB6A06E07B69BA6966
:10BDD000F96918461BF086FD034618463037BD4604
:10BDE00080BD80B58EB002AFF860B9607A603B600C
:10BDF0000023FB6200237B61022301930123009354
:10BE00003B6801220121B868FFF71BFF034683F05E
:10BE10000103DBB2002B02D06FF0800340E0FB682F
:10BE20005B68342B03D17B685B68042B02D06FF016
:10BE3000800335E0FB681B68BB62BB6A1B697B62E1
:10BE40007B681B683B627B6808331B68FB617B680F
:10BE500008335B68BB61BB6A1A693B6A1A607B681E
:10BE6000083300225A6007F114031A46796A032046
:10BE7000FFF714FBF862FB6A002B01D0FB6A0FE0AE
:10BE800078697B6808330433BA69F9691BF046FDA9
:10BE9000F862FB6A002B02D1386AFFF79BFAFB6A53
:10BEA00018463037BD4680BD80B58EB002AFF86011
:10BEB000B9607A603B600023FB6200237B61012351
:10BEC0000193012300933B6802220121B868FFF728
:10BED000B8FE034683F00103DBB2002B02D06FF003
:10BEE00080033AE0FB685B68342B03D17B685B68B6
:10BEF000042B02D06FF080032FE0FB681B68BB624D
:10BF0000BB6A1B697B627B681B683B62FB6808330A
:10BF10001B68FB61FB6808335B68BB61BB6A1A691D
:10BF20003B6A1A6007F114031A46796A0320FFF787
:10BF3000B5FAF862FB6A002B01D0FB6A0DE07B6961
:10BF4000BA69F96918461BF0FDFCF862FB6A002B20
:10BF500002D1386AFFF73EFAFB6A18463037BD4611
:10BF600080BD80B58CB002AFF860B9607A603B608C
:10BF700000237B6200237B61012301930123009353
:10BF80003B6801220121B868FFF75BFE034683F09E
:10BF90000103DBB2002B02D06FF0800335E0FB68B9
:10BFA0005B68342B03D17B685B68042B02D06FF095
:10BFB00080032AE0FB681B683B623B6A1B69FB61EC
:10BFC0007B681B68BB613B6A1A69BB691A6007F131
:10BFD00014031A46F9690320FFF760FA78627B6A56
:10BFE000002B01D0002310E07B6918461BF048FCB1
:10BFF00078627B6A002B04D0B869FFF7EBF97B6AA3
:10C0000003E0B869FFF7E6F9034618462837BD464E
:10C0100080BD80B58CB002AFF860B9607A603B60DB
:10C0200000237B6200237B6100233B61012301939A
:10C03000012300933B6801220121B868FFF701FE4C
:10C04000034683F00103DBB2002B02D06FF08003C4
:10C0500034E0FB685B68342B03D17B685B68042B9E
:10C0600002D06FF0800329E0FB681B683B623B6AEB
:10C070001B69FB617B681B68BB6107F114031A46EF
:10C08000F9690320FFF70AFA78627B6A002B01D076
:10C090007B6A13E007F110031A46B9690320FFF722
:10C0A0000BF978627B6A002B01D07B6A06E07B6922
:10C0B0003A69114618461BF0E5FC03461846283736
:10C0C000BD4680BD80B58CB002AFF860B9607A60C3
:10C0D0003B6001230193002300933B68022201216E
:10C0E000B868FFF7AEFD034683F00103DBB2002B17
:10C0F00002D06FF0800329E0FB685B68342B02D02C
:10C100006FF0800322E0FB681B687B627B6ADB6860
:10C110003B62FB6808331B68FB61FB6808335B68A4
:10C12000BB617B681B687B617B685B683B617B688C
:10C1300000225A607B68043301933B6900937B695A
:10C14000BA69F969386A1BF055FC03461846283766
:10C15000BD4680BD80B58CB002AFF860B9607A6032
:10C160003B6000230193002300933B6803220121DD
:10C17000B868FFF766FD034683F00103DBB2002BCE
:10C1800002D06FF0800325E0FB685B68342B02D09F
:10C190006FF080031EE0FB681B687B627B6ADB68D4
:10C1A0003B62FB6808331B68FB61FB6808335B6814
:10C1B000BB61FB6810331B687B61FB6810335B68F5
:10C1C0003B613B6900937B69BA69F969386A1BF086
:10C1D00021FC034618462837BD4680BD80B485B093
:10C1E00000AFF860B9607A603B60FA68BB689A4259
:10C1F0000DD3FA687B689A4209D83A68BB699A42BB
:10C2000005D33A68FB699A4201D8012300E0002374
:10C2100018461437BD4680BC704780B590B002AF59
:10C22000F860B9607A603B6000237B6300233B6267
:10C2300001230193012300933B6801220121B86887
:10C24000FFF7CCFF034683F00103DBB2002B02D0E3
:10C250006FF080034CE07B685B68042B03D1FB68C4
:10C260005B68342B02D06FF0800341E0FB681B68F1
:10C270003B633B6B1B69FB617B681B68FB623B6B31
:10C280009B68BB623B6BDB687B623B6B1A69FB6A3A
:10C290001A6007F1200207F11C0319460220FFF77C
:10C2A0000BF878637B6B002B01D07B6B20E0FA6985
:10C2B000FB6A1A6007F114031946B86A00F05AFBCA
:10C2C00078637B6B002B0CD1386A7B6A07F1140210
:10C2D00006CA1BF001FC78637B6B002B03D17B6BE0
:10C2E00006E000BF00E000BFF86AFFF773F87B6B61
:10C2F00018463837BD4680BD80B590B002AFF860B3
:10C30000B9607A603B6000237B6300233B620123BA
:10C310000193012300933B6801220121B868FFF7D4
:10C320005DFF034683F00103DBB2002B02D06FF008
:10C3300080034CE07B685B68042B03D1FB685B687F
:10C34000342B02D06FF0800341E0FB681B683B6335
:10C350003B6B1B69FB617B681B68FB623B6B9B68EB
:10C36000BB623B6BDB687B623B6B1A69FB6A1A60E2
:10C3700007F1200207F11C0319460220FEF79CFF7B
:10C3800078637B6B002B01D07B6B20E0FA69FB6A42
:10C390001A6007F114031946B86A00F0EBFA7863E3
:10C3A0007B6B002B0CD1386A7B6A07F1140206CA3A
:10C3B0001BF0A0FB78637B6B002B03D17B6B06E04B
:10C3C00000BF00E000BFF86AFFF704F87B6B184677
:10C3D0003837BD4680BD80B58EB002AFF860B96019
:10C3E0007A603B600023FB6200237B6101230193A1
:10C3F000012300933B6802220121B868FFF7EEFE9B
:10C40000034683F00103DBB2002B02D06FF0800300
:10C4100033E0FB685B68342B03D17B685B68042BDB
:10C4200002D06FF0800328E0FB681B68BB62BB6A28
:10C430001B697B627B681B683B62FB6808331B6877
:10C44000FB61FB6808335B68BB61BB6A1A693B6AC6
:10C450001A6007F114031A46796A0220FFF71EF8E2
:10C46000F862FB6A002B01D0FB6A06E07B69BA69BF
:10C47000F96918461BF04CFB034618463037BD4699
:10C4800080BD80B58EB002AFF860B9607A603B6065
:10C490000023FB6200237B610223019301230093AD
:10C4A0003B6801220121B868FFF798FE034683F03C
:10C4B0000103DBB2002B02D06FF0800340E0FB6889
:10C4C0005B68342B03D17B685B68042B02D06FF070
:10C4D000800335E0FB681B68BB62BB6A1B697B623B
:10C4E0007B681B683B627B6808331B68FB617B6869
:10C4F00008335B68BB61BB6A1A693B6A1A607B6878
:10C50000083300225A6007F114031A46796A0220A0
:10C51000FEF7C4FFF862FB6A002B01D0FB6A0FE054
:10C5200078697B6808330433BA69F9691BF010FB3A
:10C53000F862FB6A002B02D1386AFEF74BFFFB6AF8
:10C5400018463037BD4680BD80B58EB002AFF8606A
:10C55000B9607A603B600023FB6200237B610123AA
:10C560000193012300933B6802220121B868FFF781
:10C5700035FE034683F00103DBB2002B02D06FF0DF
:10C5800080033AE0FB685B68342B03D17B685B680F
:10C59000042B02D06FF080032FE0FB681B68BB62A6
:10C5A000BB6A1B697B627B681B683B62FB68083364
:10C5B0001B68FB61FB6808335B68BB61BB6A1A6977
:10C5C0003B6A1A6007F114031A46796A0220FEF7E3
:10C5D00065FFF862FB6A002B01D0FB6A0DE07B6906
:10C5E000BA69F96918461BF0D1FBF862FB6A002BA7
:10C5F00002D1386AFEF7EEFEFB6A18463037BD46B8
:10C6000080BD80B58CB002AFF860B9607A603B60E5
:10C6100000237B6200237B610123019301230093AC
:10C620003B6801220121B868FFF7D8FD034683F07B
:10C630000103DBB2002B02D06FF0800335E0FB6812
:10C640005B68342B03D17B685B68042B02D06FF0EE
:10C6500080032AE0FB681B683B623B6A1B69FB6145
:10C660007B681B68BB613B6A1A69BB691A6007F18A
:10C6700014031A46F9690220FEF710FF78627B6AFC
:10C68000002B01D0002310E07B6918461BF012FA42
:10C6900078627B6A002B04D0B869FEF79BFE7B6A48
:10C6A00003E0B869FEF796FE034618462837BD46F4
:10C6B00080BD80B592B004AFF860B9607A603B602D
:10C6C00000237B6301230193012300933B68022233
:10C6D0000121B868FFF782FD034683F00103DBB256
:10C6E000002B02D06FF080033AE0FB685B68342BCC
:10C6F00002D06FF0800333E0FB681B683B633B6B49
:10C700009B68FB623B6BDB68BB62FB6808331B68A2
:10C710007B62FB6808335B683B627B681B68FB617C
:10C720007B685B68BB6107F110031946F86A00F08B
:10C7300021F978637B6B002B01D07B6B10E07B6869
:10C7400004330393BB690293FB6901933B6A009333
:10C750007B6ABA6A07F1100103C91BF055FB034657
:10C7600018463837BD4680BD80B592B004AFF8603A
:10C77000B9607A603B6000237B6300230193002350
:10C7800000933B6803220121B868FFF727FD0346A9
:10C7900083F00103DBB2002B02D06FF0800339E09D
:10C7A000FB685B68342B02D06FF0800332E0FB68DB
:10C7B0001B683B633B6B9B68FB623B6BDB68BB624C
:10C7C000FB6808331B687B62FB6808335B683B626D
:10C7D000FB6810331B68FB61FB6810335B68BB614F
:10C7E00007F110031946F86A00F0C4F878637B6B10
:10C7F000002B01D07B6B0DE0BB690293FB690193B9
:10C800003B6A00937B6ABA6A07F1100103C91BF007
:10C8100011FB034618463837BD4680BD80B487B04B
:10C8200000AFF860B9607A60FB687A681A60FB68EC
:10C83000BA685A60F8681C37BD4680BC7047B0B50E
:10C840008EB000AF786007F110032822002118464F
:10C8500016F0A3FA7B681D4607F110040FCC0FC534
:10C860000FCC0FC594E8030085E8030078683837DB
:10C87000BD46B0BDB0B590B000AF78633963FA6221
:10C880007B6B002B02D0FB6A002B02D16FF0800380
:10C890002CE0FC6A3B461846FFF7D1FF25463C4694
:10C8A0000FCC0FC50FCC0FC594E8030085E803003B
:10C8B000FB6AFB637B6B1A88FB6B1A807B6B5A6885
:10C8C000FB6B5A607B6BDA68FB6B1A617B6B1A69D6
:10C8D000FB6B5A617B6B5A88FB6B5A807B6B9A6847
:10C8E000FB6B9A60FB6B3A6BDA60002318464037AB
:10C8F000BD46B0BDB0B491B000AF786039603B6860
:10C90000002B02D07B68002B02D16FF080032CE05B
:10C9100007F12C0300221A605A609A60DA601A61EB
:10C920003B681D4607F12C040FCC0FC523682B6014
:10C930007B6807F10C041D460FCD0FC495E80F006E
:10C9400084E80F00BA893B681A803A693B685A60EC
:10C95000FA693B68DA603A6A3B681A61FA893B68AF
:10C960005A807A693B689A60002318464437BD466E
:10C97000B0BC704790B587B000AFF860B9600023D5
:10C980003B6107F110031846FEF703FC78617B69F1
:10C99000002B01D07B6913E0BB68002B02D16FF044
:10C9A00080030DE03969BC683B46FA681846FFF71A
:10C9B00035FF22463B4693E8030082E8030000234C
:10C9C00018461C37BD4690BD80B485B000AFF860F6
:10C9D000B9607A603B60FA68BB689A420DD3FA6826
:10C9E0007B689A4209D83A68BB699A4205D33A688B
:10C9F000FB699A4201D8012300E00023184614374E
:10CA0000BD4680BC704780B59CB008AFF860B96087
:10CA10007A603B600023FB640123019300230093B1
:10CA20003B6803220121B868FFF7CEFF034683F07D
:10CA30000103DBB2002B02D06FF0800355E0FB68EE
:10CA40005B68342B02D06FF080034EE0FB681B68FC
:10CA5000BB64BB6C20337B64BB6C9B683B64BB6C6E
:10CA6000DB68FB637B6CBB637B6C1B697B63FB6874
:10CA700008331B683B63FB6808335B68FB627B68B9
:10CA80001B68BB627B685B687B62FB6810331B685A
:10CA90003B62FB6810335B68FB617B6800225A6075
:10CAA00007F114031946386CFFF764FFF864FB6C58
:10CAB000002B01D0FB6C18E07B68043307937B6A82
:10CAC0000693BB6A0593FB6A04933B6B0393FB6974
:10CAD00002933B6A01937B6B0093BB6BFA6B07F18C
:10CAE000140103C91BF024FE034618465037BD4607
:10CAF00080BD80B59CB008AFF860B9607A603B60DB
:10CB00000023FB6401230193002300933B6803226D
:10CB10000121B868FFF758FF034683F00103DBB239
:10CB2000002B02D06FF0800355E0FB685B68342B6C
:10CB300002D06FF080034EE0FB681B68BB64BB6CE7
:10CB400020337B64BB6C9B683B64BB6CDB68FB6322
:10CB50007B6CBB637B6C1B697B63FB6808331B6866
:10CB60003B63FB6808335B68FB627B681B68BB62E6
:10CB70007B685B687B62FB6810331B683B62FB6809
:10CB800010335B68FB617B6800225A6007F1140375
:10CB90001946386CFFF7EEFEF864FB6C002B01D0F1
:10CBA000FB6C18E07B68043307937B6A0693BB6ACF
:10CBB0000593FB6A04933B6B0393FB6902933B6A07
:10CBC00001937B6B0093BB6BFA6B07F1140103C9F4
:10CBD0001BF06CFE034618465037BD4680BD80B53D
:10CBE00090B002AFF860B9607A603B6000237B636D
:10CBF00000233B6201230193012300933B68012240
:10CC00000121B868FFF7E0FE034683F00103DBB2C1
:10CC1000002B02D06FF0800348E0FB685B68342B88
:10CC200002D06FF0800341E0FB681B683B633B6B05
:10CC30001B69FB617B681B68FB623B6B9B68BB628B
:10CC40003B6BDB687B623B6B1A69FB6A1A6007F11E
:10CC5000200207F11C0319460520FEF72DFB78631F
:10CC60007B6B002B01D07B6B20E0FA69FB6A1A60BA
:10CC700007F114031946B86AFFF77CFE78637B6BF3
:10CC8000002B0CD1386A7B6A07F1140206CA1BF02C
:10CC9000CBFE78637B6B002B03D17B6B06E000BF80
:10CCA00000E000BFF86AFEF795FB7B6B184638374B
:10CCB000BD4680BD80B590B002AFF860B9607A60C3
:10CCC0003B6000237B6300233B620123019301232C
:10CCD00000933B6801220121B868FFF775FE034607
:10CCE00083F00103DBB2002B02D06FF0800348E039
:10CCF000FB685B68342B02D06FF0800341E0FB6877
:10CD00001B683B633B6B1B69FB617B681B68FB62B9
:10CD10003B6B9B68BB623B6BDB687B623B6B1A695E
:10CD2000FB6A1A6007F1200207F11C03194605206F
:10CD3000FEF7C2FA78637B6B002B01D07B6B20E09F
:10CD4000FA69FB6A1A6007F114031946B86AFFF71B
:10CD500011FE78637B6B002B0CD1386A7B6A07F17C
:10CD6000140206CA1BF06EFE78637B6B002B03D1A6
:10CD70007B6B06E000BF00E000BFF86AFEF72AFB0D
:10CD80007B6B18463837BD4680BD80B58CB002AF8E
:10CD9000F860B9607A603B6000237B6200237B61AE
:10CDA00001230193012300933B6801220121B8680C
:10CDB000FFF70AFE034683F00103DBB2002B02D02B
:10CDC0006FF0800335E0FB685B68342B03D17B6830
:10CDD0005B68042B02D06FF080032AE0FB681B68BD
:10CDE0003B623B6A1B69FB617B681B68BB613B6AFA
:10CDF0001A69BB691A6007F114031A46F96905201C
:10CE0000FEF74CFB78627B6A002B01D0002310E018
:10CE10007B6918461BF0AEFF78627B6A002B04D05A
:10CE2000B869FEF7D7FA7B6A03E0B869FEF7D2FA71
:10CE3000034618462837BD4680BD80B592B004AF82
:10CE4000F860B9607A603B6000237B6300237B61FC
:10CE500003230193022300933B6801220121B86858
:10CE6000FFF7B2FD034683F00103DBB2002B02D0D3
:10CE70006FF0800355E0FB685B68342B03D17B685F
:10CE80005B68042B02D06FF080034AE0FB681B68EC
:10CE90003B633B6B1B69FB627B681B68BB627B6807
:10CEA00010331B687B627B6810335B683B627B6876
:10CEB00008331B68FB617B6808335B68BB613B6BB5
:10CEC0001A69BB6A1A607B68083300225A607B6863
:10CED000103300225A6007F114031A46F96A05203C
:10CEE000FEF7DCFA78637B6B002B01D07B6B18E0DC
:10CEF00078697B6810331A1D7B680833043302930A
:10CF0000BB690193FB69009313463A6A796A1BF087
:10CF1000A7FE78637B6B002B02D1B86AFEF75AFA42
:10CF20007B6B18463837BD4680BD80B58EB002AFEA
:10CF3000F860B9607A603B600023FB6200237B618C
:10CF400002230193022300933B6801220121B86868
:10CF5000FFF73AFD034683F00103DBB2002B02D05A
:10CF60006FF0800339E0FB685B68342B03D17B688A
:10CF70005B68042B02D06FF080032EE0FB681B6817
:10CF8000BB62BB6A1B697B627B681B683B627B6818
:10CF900008331B68FB617B6808335B68BB61BB6A55
:10CFA0001A693B6A1A607B68083300225A6007F1ED
:10CFB00014031A46796A0520FEF770FAF862FB6AD4
:10CFC000002B01D0FB6A08E078697B6808330433E2
:10CFD000BA69F9691CF03EFD034618463037BD4674
:10CFE00080BD80B58EB002AFF860B9607A603B60FA
:10CFF0000023FB6200237B61012301930123009343
:10D000003B6802220121B868FFF7DEFC034683F08B
:10D010000103DBB2002B02D06FF0800333E0FB682A
:10D020005B68342B03D17B685B68042B02D06FF004
:10D03000800328E0FB681B68BB62BB6A1B697B62DC
:10D040007B681B683B62FB6808331B68FB61FB68FD
:10D0500008335B68BB61BB6A1A693B6A1A6007F1F7
:10D0600014031A46796A0520FEF718FAF862FB6A7B
:10D07000002B01D0FB6A06E07B69BA69F9691846A2
:10D080001BF0EEFC034618463037BD4680BD80B528
:10D090008EB002AFF860B9607A603B600023FB623B
:10D0A00000237B6101230193012300933B6801224C
:10D0B0000121B868FFF788FC034683F00103DBB267
:10D0C000002B02D06FF0800331E0FB685B68342BEB
:10D0D00003D17B685B68042B02D06FF0800326E0ED
:10D0E000FB681B68BB62BB6A1B697B627B681B6851
:10D0F0003B62BB6A9B69FB61BB6ADB69BB61BB6A64
:10D100001A693B6A1A6007F114031A46796A052006
:10D11000FEF7C4F9F862FB6A002B01D0FB6A06E057
:10D120007B69BA69F96918461BF0D8FC03461846B2
:10D130003037BD4680BD80B590B002AFF860B960B1
:10D140007A603B6000237B6300237B6102230193B1
:10D15000012300933B6802220121B868FFF734FCE9
:10D16000034683F00103DBB2002B02D06FF0800393
:10D1700041E0FB685B68342B03D17B685B68042B60
:10D1800002D06FF0800336E0FB681B683B633B6BAB
:10D190001B69FB627B681B68BB62FB6808331B680A
:10D1A0007B62FB6808335B683B627B6808331B6803
:10D1B000FB617B6808335B68BB613B6B1A69BB6AC8
:10D1C0001A6007F114031A46F96A0520FEF766F99A
:10D1D00078637B6B002B01D07B6B0CE078697B68FC
:10D1E000083304330193BB690093FB693A6A796A97
:10D1F0001BF0EEFC034618463837BD4680BD80B5AF
:10D200008EB002AFF860B9607A603B600023FB62C9
:10D2100000237B6101230193012300933B680222D9
:10D220000121B868FFF7D0FB034683F00103DBB2AE
:10D23000002B02D06FF0800333E0FB685B68342B77
:10D2400003D17B685B68042B02D06FF0800328E079
:10D25000FB681B68BB62BB6A1B697B627B681B68DF
:10D260003B62FB6808331B68FB61FB6808335B6843
:10D27000BB61BB6A1A693B6A1A6007F114031A465C
:10D28000796A0520FEF70AF9F862FB6A002B01D0E3
:10D29000FB6A06E07B69BA69F96918461BF058FC1D
:10D2A000034618463037BD4680BD80B590B002AF0A
:10D2B000F860B9607A603B6000237B6300237B6188
:10D2C00002230193012300933B6802220221B868E4
:10D2D000FFF77AFB034683F00103DBB2002B02D099
:10D2E0006FF0800349E0FB685B68342B03D17B68F7
:10D2F0005B68042B02D06FF080033EE0FB681B6884
:10D300003B633B6B1B69FB627B681B68BB62FB6812
:10D3100008331B687B62FB6808335B683B627B6891
:10D3200008331B68FB617B6808335B68BB613B6B40
:10D330001A69BB6A1A6007F114031A46F96A0520D4
:10D34000FEF7ACF878637B6B002B01D07B6B14E0AD
:10D3500078697B6808331A1D3B6A01937B6A0093E6
:10D360001346BA69F9691BF0D1FC78637B6B002B1B
:10D3700002D1B86AFEF72EF87B6B18463837BD46E7
:10D3800080BD80B483B000AF78607B681B8818468E
:10D390000C37BD4680BC704780B483B000AF786066
:10D3A0007B685B8818460C37BD4680BC704780B4EC
:10D3B00085B000AFF860B9607A603B60FA68BB681E
:10D3C0009A420DD3FA687B689A4209D83A68BB69D9
:10D3D0009A4205D33A68FB699A4201D8012300E0DA
:10D3E000002318461437BD4680BC704780B592B004
:10D3F00004AFF860B9607A603B60012301930023B9
:10D4000000933B6802220121B868FFF7D0FF034672
:10D4100083F00103DBB2002B02D06FF080033AE00F
:10D42000FB685B68342B02D06FF0800333E0FB684D
:10D430001B687B637B6B9B683B637B6BDB68FB627E
:10D44000FB6808331B68BB62FB6808335B687B6260
:10D450007B681B683B627B685B68FB6107F11003BC
:10D460001946386BFFF786FAB861BB69002B01D00B
:10D47000BB6910E07B6804330393FB6902933B6A4A
:10D4800001937B6A0093BB6AFA6A07F1100103C932
:10D490001AF050FD034618463837BD4680BD80B5AA
:10D4A00092B004AFF860B9607A603B6000230193EA
:10D4B000002300933B6803220121B868FFF777FF40
:10D4C000034683F00103DBB2002B02D06FF0800330
:10D4D00039E0FB685B68342B02D06FF0800332E0E8
:10D4E000FB681B687B637B6B9B683B637B6BDB68C8
:10D4F000FB62FB6808331B68BB62FB6808335B6830
:10D500007B62FB6810331B683B62FB6810335B680F
:10D51000FB6107F110031946386BFFF72BFAB8616E
:10D52000BB69002B01D0BB690DE0FB6902933B6A2C
:10D5300001937B6A0093BB6AFA6A07F1100103C981
:10D540001AF058FD034618463837BD4680BD80B5F1
:10D5500092B004AFF860B9607A603B600123019338
:10D56000002300933B6802220121B868FFF71FFFE8
:10D57000034683F00103DBB2002B02D06FF080037F
:10D580003AE0FB685B68342B02D06FF0800333E035
:10D59000FB681B687B637B6B9B683B637B6BDB6817
:10D5A000FB62FB6808331B68BB62FB6808335B687F
:10D5B0007B627B681B683B627B685B68FB6107F191
:10D5C00010031946386BFFF7D5F9B861BB69002B1A
:10D5D00001D0BB6910E07B6804330393FB690293BD
:10D5E0003B6A01937B6A0093BB6AFA6A07F11001F8
:10D5F00003C91AF069FD034618463837BD4680BD99
:10D6000080B592B004AFF860B9607A603B600023E7
:10D610000193002300933B6803220121B868FFF7C0
:10D62000C6FE034683F00103DBB2002B02D06FF08D
:10D63000800339E0FB685B68342B02D06FF0800315
:10D6400032E0FB681B687B637B6B9B683B637B6B97
:10D65000DB68FB62FB6808331B68BB62FB6808334E
:10D660005B687B62FB6810331B683B62FB681033AE
:10D670005B68FB6107F110031946386BFFF77AF915
:10D68000B861BB69002B01D0BB690DE0FB69029357
:10D690003B6A01937B6A0093BB6AFA6A07F1100147
:10D6A00003C91AF07DFD034618463837BD4680BDD4
:10D6B00080B5A4B006AFF860B9607A603B60012322
:10D6C0000193002300933B6803220121B868FFF710
:10D6D0006EFE034683F00103DBB2002B02D06FF035
:10D6E000800382E0FB685B68342B02D06FF080031C
:10D6F0007BE0FB681B687B677B6F9B683B677B6F8E
:10D70000DB68FB66FB6808331B68BB66FB68083395
:10D710005B687B66FB6810331B683B66FB681033F5
:10D720005B68FB657B681B68BB657B685B687B65CA
:10D7300007F1200328220021184615F02EFB07F1DF
:10D7400010031946386FFFF715F938653B6D002B4C
:10D7500001D03B6D49E007F120031A4607F11003A1
:10D7600093E8030019F04AFD38653B6D002B01D0AA
:10D770003B6D3AE007F120031846FFF70DFEF86411
:10D7800007F120031846FFF7FCFD0346A7F84A30CF
:10D7900007F1200318461CF093FBB7F84A3023F436
:10D7A000405344F20102934203D1FB6C0733DB0880
:10D7B00000E000237A6D934202D96FF0890314E0F0
:10D7C0007B68043305937B6D0493BB6D0393FB6D02
:10D7D00002933B6E01937B6E0093BB6EFA6E07F172
:10D7E000100103C91AF0F2FC034618467837BD460B
:10D7F00080BD80B596B006AFF860B9607A603B60D6
:10D8000001230193002300933B6803220121B868A0
:10D81000FFF7CDFD034683F00103DBB2002B02D0FE
:10D820006FF0800346E0FB685B68342B02D06FF03A
:10D8300080033FE0FB681B68FB63FB6B9B68BB637B
:10D84000FB6BDB687B63FB6808331B683B63FB682F
:10D8500008335B68FB62FB6810331B68BB62FB68C4
:10D8600010335B687B627B681B683B627B685B682C
:10D87000FB6107F110031946B86BFFF77BF8B8613D
:10D88000BB69002B01D0BB6914E07B6804330593AE
:10D89000FB6904933B6A03937B6A0293BB6A01931F
:10D8A000FB6A00933B6B7A6B07F1100103C91AF016
:10D8B00043FD034618464037BD4680BD80B483B063
:10D8C00000AF78607B685B8818460C37BD4680BC2B
:10D8D000704780B485B000AFF860B9607A603B6093
:10D8E000FA68BB689A420DD3FA687B689A4209D8F5
:10D8F0003A68BB699A4205D33A68FB699A4201D8F3
:10D90000012300E0002318461437BD4680BC704751
:10D9100080B483B000AF786039607B68034A1A60D6
:10D92000002318460C37BD4680BC7047000F00B07E
:10D9300080B58EB000AFF8607A603B600B467B81AB
:10D940007B8940F20122934202D06FF086033CE0D3
:10D9500007F114031846FDF71CFC78637B6B002B62
:10D9600001D07B6B31E0FB6810333B633B680433D1
:10D970001946012017F00CFE02463B6B5A613B6BC7
:10D980005B69002B02D16FF08C031EE03B6B5B697F
:10D990003B6207F11403FB610423BB61BA69F969B7
:10D9A000386A15F09BF93B6B5B690433FB627B685B
:10D9B000BB623B687B627A6AB96AF86A15F08EF9D5
:10D9C0003B681A1D3B6B9A61002318463837BD46E9
:10D9D00080BD80B58AB002AFF860B9607A60F8683F
:10D9E000FFF76CFF03460733DB08FB61BB681033AE
:10D9F000BB61FB69402B02D96FF08C031CE0BB6953
:10DA00005869BB699969BB695C33FA6901920093F3
:10DA1000002300220BF05AF878617B69002B02D0BA
:10DA20006FF0920308E0BB6903F15C017B68FA695F
:10DA3000F86819F07FFD034618462037BD4680BDC3
:10DA400080B58AB000AF78607B6810337B627B6AF8
:10DA50005B69002B11D07B6A5A697B6A9B693A62C9
:10DA60000022FA61BB61BA69F969386A15F095F963
:10DA70007B6A5B69184617F091FD7B687B61002328
:10DA80003B614FF40873FB60FA683969786915F0F7
:10DA900084F9002318462837BD4680BD80B58CB078
:10DAA00002AFF860B9607A603B6000237B620023BC
:10DAB0007B6101230193012300933B680122012133
:10DAC000B868FFF706FF034683F00103DBB2002BC3
:10DAD00002D06FF0800341E07B685B68042B03D1C8
:10DAE000FB685B68342B02D06FF0800336E0FB6884
:10DAF0001B683B623B6A1B693B617B681B68FB617F
:10DB00003B6ADB68BB6107F1140207F11003194699
:10DB10000420FDF7D1FB78627B6A002B01D07B6A81
:10DB20001CE03A69FB691A60BB690E4A934206D150
:10DB30007B69B9691846FFF7EBFE786205E07B69FF
:10DB4000B96918461BF082FD78627B6A002B04D00D
:10DB5000F869FDF73FFC7B6A00E07B6A18462837CE
:10DB6000BD4680BD000F00B080B58CB002AFF8603C
:10DB7000B9607A603B6001230193012300933B6805
:10DB800001220121B868FFF7A4FE034683F00103D8
:10DB9000DBB2002B02D06FF080032BE0FB685B68E8
:10DBA000342B03D17B685B68042B02D06FF08003B9
:10DBB00020E0FB681B687B627B6A1B693B627B68B9
:10DBC0001B68FB6100237B6107F114031A46396A65
:10DBD0000420FDF763FCB861BB69002B04D0FB692E
:10DBE00000221A60BB6905E07B69F96918461BF0E1
:10DBF00079FA034618462837BD4680BD80B58CB0FB
:10DC000002AFF860B9607A603B60002301930023A3
:10DC100000933B6801220121B868FFF75AFE0346D2
:10DC200083F00103DBB2002B02D06FF0800324E00D
:10DC3000FB685B68342B02D06FF080031DE0FB684B
:10DC40001B687B627B6A1B693B627B6A5B69FB6169
:10DC500000237B6107F114031A46396A0420FDF79B
:10DC60001DFCB861BB69002B01D0BB6905E07B6975
:10DC7000F96918461BF040FA034618462837BD4696
:10DC800080BD000080B58EB002AFF860B9607A60E8
:10DC90003B6000230193002300933B680222012193
:10DCA000B868FFF716FE034683F00103DBB2002BD2
:10DCB00002D06FF080033AE0FB685B68342B02D03F
:10DCC0006FF0800333E0FB681B68FB62FB6A1B6933
:10DCD000BB62FB6A9B88FB84FB6808331B683B6262
:10DCE000FB6808335B68FB6100237B6107F1140369
:10DCF0001A46B96A0420FDF7D1FBB861BB69002B55
:10DD000001D0BB6913E07B691B680B4A934207D1C2
:10DD10007869F98CFB693A6AFFF70AFE034606E068
:10DD20007869F98CFB693A6A1BF0B0FC0346184627
:10DD30003037BD4680BD00BF000F00B080B58CB04D
:10DD400002AFF860B9607A603B6001230193002361
:10DD500000933B6801220121B868FFF7BAFD034632
:10DD600083F00103DBB2002B02D06FF0800328E0C8
:10DD7000FB685B68342B02D06FF0800321E0FB6806
:10DD80001B687B627B6A1B693B627B681B68FB616B
:10DD90007B685B68BB6100233B6107F110031A4697
:10DDA000396A0420FDF77AFB78617B69002B01D08A
:10DDB0007B6906E03B69BA69F96918461BF0ACF962
:10DDC000034618462837BD4680BD80B58EB002AFE9
:10DDD000F860B9607A603B600023019300230093F0
:10DDE0003B6801220121B868FFF773FD034683F009
:10DDF0000103DBB2002B02D06FF0800335E0FB683B
:10DE00005B68342B02D06FF080032EE0FB681B6848
:10DE1000FB62FB6A1B69BB62FB6A9B687B62FB6AF5
:10DE20009B887B840023BB6107F118031A46B96AFB
:10DE30000420FDF733FBF861FB69002B01D0FB697F
:10DE400013E007F110031946786AFEF793FDF861B5
:10DE5000FB69002B01D0FB6907E0B869798C07F1F9
:10DE600010030CCB1BF01EFC034618463037BD4692
:10DE700080BD000080B59CB002AFF860B9607A60E8
:10DE80003B6001230193012300933B68022202219E
:10DE9000B868FFF71EFD034683F00103DBB2002BD9
:10DEA00002D06FF0800366E0FB685B68342B08D11A
:10DEB000FB6808335B68142B03D17B685B68042B19
:10DEC00002D06FF0800356E0FB681B683B663B6E38
:10DED0001B69FB65FB6808331B68BB6500233B655A
:10DEE0007B681B687B6507F1280328220021184600
:10DEF00014F053FF07F150031A46F96D0420FDF7A3
:10DF0000CDFA78667B6E002B01D07B6E33E007F193
:10DF10001C031846FDF73DF978667B6E002B01D097
:10DF20007B6E28E0FB6907F128021946B86DFEF701
:10DF3000A1FC78667B6E002B01D07B6E1BE03B6DF5
:10DF40001B680F4A934209D1396D07F1140207F19A
:10DF500028031846FFF73DFD786608E0396D07F1A4
:10DF6000140207F1280318461BF094FA78667A69C0
:10DF70007B6D1A607B6E18466837BD4680BD00BF5A
:10DF8000000F00B080B58CB002AFF860B9607A6065
:10DF90003B6001230193012300933B68012201218F
:10DFA000B868FFF796FC034683F00103DBB2002B51
:10DFB00002D06FF0800346E0FB685B68342B03D12E
:10DFC0007B685B68042B02D06FF080033BE0FB684A
:10DFD0001B683B623B6A1B69FB617B681B68BB611A
:10DFE00000237B613B6A1A69BB691A6007F114035D
:10DFF0001A46F9690420FDF751FA78627B6A002B12
:10E0000001D000231FE0BB69FA691A607B691B68B5
:10E010000F4A934205D17B691846FFF711FD7862DC
:10E0200004E07B6918461AF0B9FE78627B6A002B1F
:10E0300004D0B869FDF7CEF97B6A04E0B869FDF752
:10E04000C9F978627B6A18462837BD4680BD00BF93
:10E05000000F00B080B590B002AFF860B9607A6090
:10E060003B6000230193002300933B6802220121BF
:10E07000B868FFF72EFC034683F00103DBB2002BE8
:10E0800002D06FF0800341E0FB685B68342B02D064
:10E090006FF080033AE0FB681B687B637B6B1B6956
:10E0A0003B637B6B9B68FB62FB6808331B68BB624E
:10E0B000FB6808335B687B620023BB617B6B9B88DA
:10E0C0007B8407F118031A46396B0420FDF7E6F943
:10E0D000F861FB69002B01D0FB6917E007F1100321
:10E0E0001946F86AFEF746FCF861FB69002B01D07F
:10E0F000FB690BE0B869798C7B6A0193BB6A00937A
:10E1000007F110030CCB1BF00BFB03461846383706
:10E11000BD4680BD80B592B004AFF860B9607A604A
:10E120003B6001230193002300933B6802220121FD
:10E13000B868FFF7CEFB034683F00103DBB2002B88
:10E1400002D06FF080033AE0FB685B68342B02D0AA
:10E150006FF0800333E0FB681B687B637B681B68A0
:10E160003B637B685B68FB627B6BDB68BB627B6BE2
:10E170009B687B62FB6808331B683B62FB68083363
:10E180005B68FB6107F110031946786AFEF7F2FB42
:10E19000B861BB69002B01D0BB6910E07B68043318
:10E1A0000393FB6A02933B6B0193FB6900933B6A09
:10E1B00007F1100206CAB86A1BF0BCFC03461846F9
:10E1C0003837BD4680BD80B487B000AFF860B96015
:10E1D0007A60FB687A681A60FB68BA685A60F86807
:10E1E0001C37BD4680BC704780B485B000AFF86076
:10E1F000B9607A603B60FA68BB689A420DD3FA68EE
:10E200007B689A4209D83A68BB699A4205D33A6852
:10E21000FB699A4201D8012300E000231846143715
:10E22000BD4680BC704780B59AB002AFF860B96057
:10E230007A603B6001230193012300933B68032232
:10E240000221B868FFF7D0FF034683F00103DBB279
:10E25000002B02D06FF080034CE0FB685B68342B2E
:10E2600008D1FB6808335B68142B03D17B685B68BB
:10E27000042B02D06FF080033CE0FB6808331B687E
:10E28000FB65FB6810331B68BB65FB6810335B687C
:10E290007B657B681B683B6507F12403282200210E
:10E2A000184614F07AFD00233B6107F1100318466D
:10E2B000FCF76FFFF864FB6C002B01D0FB6C19E0DE
:10E2C0003B6907F124021946F86DFEF7D3FAF864AA
:10E2D000FB6C002B01D0FB6C0CE007F1140307F181
:10E2E00024007A6DB96D19F025F9F8647A693B6DEF
:10E2F0001A60FB6C18466037BD4680BD80B58EB095
:10E3000002AF78613961FA60BB6001230193012398
:10E310000093BB68022202213869FFF765FF0346BC
:10E3200083F00103DBB2002B02D06FF0800344E0E6
:10E330007B695B68342B08D17B6908335B68042BED
:10E3400003D1FB685B68042B02D06FF0800334E0DC
:10E350007B6908331B681B68FB62FB681B68BB6238
:10E360000023BB6107F118031846FCF712FF78621F
:10E370007B6A002B01D07B6A1FE0B9693B46FA6AD1
:10E380001846FFF720FF07F11C033A4692E8030006
:10E3900083E8030007F11C031A4607F11C0393E806
:10E3A00003001DF0E5FA78627B6A002B01D07B6ADE
:10E3B00003E0FA69BB6A1A607B6A18463037BD46CB
:10E3C00080BD80B58CB002AFF860B9607A603B6008
:10E3D00000230193002300933B6801220121B868C8
:10E3E000FFF702FF034683F00103DBB2002B02D0EC
:10E3F0006FF0800327E0FB685B68342B02D06FF07E
:10E40000800320E0FB681B687B627B6A9B683B6241
:10E4100000233B6107F110031846FCF7BAFEF861D0
:10E42000FB69002B01D0FB690DE0396907F114038A
:10E430003A6A1846FFF7C7FE07F1140393E8030092
:10E440001DF0BEFA034618462837BD4680BD80B58C
:10E450008CB002AFF860B9607A603B600023019332
:10E46000002300933B6801220121B868FFF7BCFE3E
:10E47000034683F00103DBB2002B02D06FF0800370
:10E4800027E0FB685B68342B02D06FF0800320E04C
:10E49000FB681B687B627B6A9B683B6200233B6175
:10E4A00007F110031846FCF774FEF861FB69002BB6
:10E4B00001D0FB690DE0396907F114033A6A184687
:10E4C000FFF781FE07F1140393E8030018F050FEF4
:10E4D000034618462837BD4680BD80B59AB002AFC6
:10E4E000F860B9607A603B600123019301230093D7
:10E4F0003B6801220121B868FFF776FE034683F0EE
:10E500000103DBB2002B02D06FF0800343E0FB6815
:10E510005B68342B03D17B685B68142B02D06FF0EF
:10E52000800338E0FB681B68BB65BB6D9B687B653F
:10E530007B681B683B6507F12803282200211846E9
:10E5400014F02BFC00237B6107F114031846FCF741
:10E5500020FEF865FB6D002B01D0FB6D1BE0796997
:10E5600007F118037A6D1846FFF72DFE07F128030F
:10E570001A4607F1180393E8030018F03FFEF86508
:10E58000FB6D002B06D107F12803396D1846FEF705
:10E59000B1F9F865FB6D18466037BD4680BD80B5A2
:10E5A00096B002AFF860B9607A603B6001230193D6
:10E5B000012300933B6801220121B868FFF714FE94
:10E5C000034683F00103DBB2002B02D06FF080031F
:10E5D00038E0FB685B68342B03D17B685B68142BE5
:10E5E00002D06FF080032DE07B681B68FB6407F1AD
:10E5F000200328220021184614F0CFFB07F1140352
:10E600001846FCF7C6FDB864BB6C002B01D0BB6C90
:10E6100018E07B6907F120021946F86CFEF72AF929
:10E62000B864BB6C002B01D0BB6C0BE007F120037E
:10E6300018461BF045FC07F12003F96C1846FEF75D
:10E6400059F9034618465037BD4680BD80B58EB097
:10E6500002AFF860B9607A603B6001230193002348
:10E6600000933B6801220121B868FFF7BDFD034616
:10E6700083F00103DBB2002B02D06FF0800331E0A6
:10E68000FB685B68342B02D06FF080032AE0FB68E4
:10E690001B68FB62FB6A9B68BB627B681B687B62D2
:10E6A0007B685B683B6200233B6107F110031846FF
:10E6B000FCF76FFDF861FB69002B01D0FB6911E0ED
:10E6C000396907F11403BA6A1846FFF77CFD7B68C5
:10E6D000043300933B6A7A6A07F1140103C918F006
:10E6E0004FFE034618463037BD4680BD80B58EB01C
:10E6F00002AFF860B9607A603B60012301930023A8
:10E7000000933B6801220121B868FFF76DFD0346C5
:10E7100083F00103DBB2002B02D06FF0800331E005
:10E72000FB685B68342B02D06FF080032AE0FB6843
:10E730001B68FB62FB6A9B68BB627B681B687B6231
:10E740007B685B683B6200233B6107F1100318465E
:10E75000FCF71FFDF861FB69002B01D0FB6911E09C
:10E76000396907F11403BA6A1846FFF72CFD7B6874
:10E77000043300933B6A7A6A07F1140103C918F065
:10E7800093FE034618463037BD4680BD80B58CB039
:10E7900002AFF860B9607A603B6000230193002308
:10E7A00000933B6801220121B868FFF71DFD034675
:10E7B00083F00103DBB2002B02D06FF0800327E06F
:10E7C000FB685B68342B02D06FF0800320E0FB68AD
:10E7D0001B687B627B6A9B683B6200233B6107F19D
:10E7E00010031846FCF7D5FCF861FB69002B01D03B
:10E7F000FB690DE0396907F114033A6A1846FFF71F
:10E80000E2FC07F1140393E803001DF0FDF8034652
:10E8100018462837BD4680BD80B59CB002AFF86071
:10E82000B9607A603B6001230193012300933B6848
:10E8300002220221B868FFF7D7FC034683F00103E8
:10E84000DBB2002B02D06FF0800357E0FB685B68FF
:10E85000342B08D17B685B68042B04D1FB68083338
:10E860005B68142B02D06FF0800347E0FB681B68E5
:10E870007B667B6E9B683B667B681B68FB65FB6801
:10E8800008331B68BB6507F12C03282200211846BA
:10E8900014F083FA00233B6207F120031846FCF7CB
:10E8A00078FC78657B6D002B01D07B6D26E03B6AA0
:10E8B00007F12C021946B86DFDF7DCFF78657B6D1A
:10E8C000002B01D07B6D19E0396A07F110033A6E15
:10E8D0001846FFF778FC07F1180307F12C0207F13F
:10E8E000100103C918F0DEFE78657B6D002B01D0A6
:10E8F0007B6D03E0BA69FB6D1A607B6D1846683763
:10E90000BD4680BD80B598B002AFF860B9607A604E
:10E910003B6001230193012300933B680222022103
:10E92000B868FFF761FC034683F00103DBB2002BFC
:10E9300002D06FF0800349E0FB685B68342B08D19C
:10E94000FB6808335B68142B03D17B685B68042B7E
:10E9500002D06FF0800339E07B681B687B65FB6841
:10E9600008331B683B6507F1240328220021184661
:10E9700014F013FA0023BB6107F118031846FCF7E3
:10E9800008FCF864FB6C002B01D0FB6C1EE0BB693B
:10E9900007F124021946386DFDF76CFFF864FB6C33
:10E9A000002B01D0FB6C11E007F1100207F12403EA
:10E9B000114618461BF05CF9F864FB6C002B01D083
:10E9C000FB6C03E03A697B6D1A60FB6C18465837A4
:10E9D000BD4680BD80B485B000AFF860B9607A6094
:10E9E0003B60FA68BB689A420DD3FA687B689A422A
:10E9F00009D83A68BB699A4205D33A68FB699A42DA
:10EA000001D8012300E0002318461437BD4680BC1E
:10EA1000704780B588B002AFF860B9607A603B603B
:10EA200001230193002300933B6801220121B86870
:10EA3000FFF7D0FF034683F00103DBB2002B02D0C7
:10EA40006FF0800311E0FB685B68342B02D06FF03D
:10EA500080030AE07B681B687B617B685B683B61C5
:10EA6000396978691AF0C2FE034618461837BD4660
:10EA700080BD000080B5ADF52E7D00AF07F52E738B
:10EA8000A3F52D7318600023C7F8B4320023C7F82C
:10EA9000B03207F52E73A3F52D731B681B69C7F8F9
:10EAA000AC3207F52E73A3F52D731B681B6AC7F8EC
:10EAB000A83207F52E73A3F52A7307F51A721A60A8
:10EAC00007F52E73A3F52A73D7F8AC225A6007F521
:10EAD0002E73A3F52C7307F118021A6007F52E7335
:10EAE000A3F52C734FF414725A60D7F8AC32402B54
:10EAF00002D96FF086034EE0D7F8A832B3F5147F41
:10EB000006D207F52E73A3F52C73D7F8A8225A6006
:10EB100007F52E73A3F52D731B689B68204A1360BD
:10EB200007F52E73A3F52D731B68586807F51A7245
:10EB3000D7F8AC32002114F091F8C7F8B002D7F83A
:10EB4000B022D7F8AC329A4202D06FF0830322E0B1
:10EB500007F1080207F110000123012100F047FD31
:10EB6000C7F8B402D7F8B432002B12D107F52E73D0
:10EB7000A3F52D731B68586807F52E73A3F52C7346
:10EB80001A6807F52E73A3F52C735B68002114F047
:10EB900069F8D7F8B432184607F52E77BD4680BD20
:10EBA000489A023080B58AB000AF786000237B625B
:10EBB00000233B6207F11C033B617B681B697B619F
:10EBC00007F11803BB607B681B6AFB607B681B69ED
:10EBD000042B03D17B681B6A042B02D06FF08603E1
:10EBE00027E07B689B68154A13607B6858687B68E0
:10EBF0001B6907F11C02002114F030F838623B6AEF
:10EC0000042B02D06FF0860313E007F1080207F12E
:10EC100010000123012100F02CFD78627B6A002B9B
:10EC200006D17B685868BA68FB68002114F01AF8AE
:10EC30007B6A18462837BD4680BD00BF489A02301F
:10EC400080B582B000AF78607B681B6840F2E93223
:10EC5000934204D040F2EA32934205D009E078684A
:10EC6000FFF708FF034606E07868FFF79BFF0346BF
:10EC700001E06FF0850318460837BD4680BD80B5BA
:10EC800000AF00F06DF80346184680BD80B582B035
:10EC900000AF78600421786830F043FA00BF08378D
:10ECA000BD4680BD80B584B000AFF860C7E90023E1
:10ECB000D7E90023F86830F0BCF9F868FFF7E6FF01
:10ECC00000BF1037BD4680BD80B582B000AF786010
:10ECD00000220421786830F053FA00BF0837BD469F
:10ECE00080BD80B584B000AFF8603B1D83E80600AE
:10ECF0003B1D0CCB0921F86830F0CBF900BF103771
:10ED0000BD4680BD80B483B000AF78607B68052BC2
:10ED10001FD801A252F823F031ED030C35ED030C9E
:10ED20003BED030C41ED030C47ED030C4DED030CE3
:10ED3000002310E06FF08F030DE06FF089030AE00D
:10ED40006FF0830307E06FF0860304E06FF0830346
:10ED500001E06FF0830318460C37BD4680BC704756
:10ED600080B582B000AF4FF400720649012001F077
:10ED7000CBFE78607868FFF7C5FF03461846083772
:10ED8000BD4680BD4C9A023080B483B000AF0346CC
:10ED9000FB71FB79002B02D0012B02D003E0002392
:10EDA00002E0022300E0052318460C37BD4680BC74
:10EDB000704780B58CB000AFF860B9607A60BB680E
:10EDC000042B20D0BB68042B29D8BB68012B03D0AF
:10EDD000BB68022B06D022E0FB681B781A467B68D2
:10EDE0001A601FE007F11603FB62FB68BB62022397
:10EDF0007B627A6AB96AF86A13F070FFFB8A1A4676
:10EE00007B681A600EE07B683B62FB68FB61042351
:10EE1000BB61BA69F969386A13F060FF02E04FF02C
:10EE2000FF3300E0002318463037BD4680BD0000A8
:10EE300080B58EB000AFB9607A603B600346FB736B
:10EE40002C4B1B8842F21602934202D04FF0FF3344
:10EE50004CE0284B5B881A46264B13443B633B68C7
:10EE60001B68002B02D1244B7B633AE03B681B6894
:10EE700007F11402FA62BB6204237B627A6AB96A00
:10EE8000F86A13F02BFF3B681A68FB8A04331344BB
:10EE90007B6326E007F114033B627B6BFB61042379
:10EEA000BB61BA69F969386A13F018FFBB8A9B1114
:10EEB00003F03F02FB7B9A420ED1BB8ADBB203F028
:10EEC0003F03DAB2BB681A703B687A6B1A60FA8A41
:10EED0007B681A80012309E0FB8A04337A6B1344B0
:10EEE0007B637A6B3B6B9A42D4D300231846383746
:10EEF000BD4680BD4C9A0230509A023080B588B031
:10EF000000AF0346B9607A60FB730023FB777B6830
:10EF100000221A6007F11701F87F7B68BA68FFF7D3
:10EF200087FFB861BB69012B07D1FB7DFA7B9A4251
:10EF300005D0BB69012BEDD002E000BF00E000BFAF
:10EF4000BB6918462037BD4680BD000080B58EB035
:10EF500000AF786000237B63002387F83330002301
:10EF6000FB6200237B610023BB61786800F0D3FE65
:10EF7000F862002387F8333032E000233B6207F168
:10EF8000200307F1260207F11F0197F83300FFF76E
:10EF90004FFFB862BB6AB3F1FF3F01D1032333E0F7
:10EFA000BB6A012B17D17B6B01337B637B6B012B1E
:10EFB00005D1174A4FF0FF33F86AFFF773FE3B6A3B
:10EFC00004337B61FB8CBB6107F1140393E80600FB
:10EFD000F86AFFF786FE97F83330013387F833304D
:10EFE00097F83330062BC8D97B6B002B03D0F86A17
:10EFF000FFF76AFE07E04FF001024FF000030549FA
:10F00000786800F092FE002318463837BD4680BD70
:10F0100002DBFEFF01DBFEFF80B590B000AF786041
:10F0200007F1100300221A605A600023BB6000231E
:10F03000FB6307F1080207F10E0319460020FFF7F2
:10F040005DFFF863FB6B012B05D1BB6804333B61AB
:10F05000FB897B6110E007F118031946202009F0B5
:10F06000CFFCB863BB6B002B01D003230CE007F18E
:10F0700018033B6120237B6107F110031A46044902
:10F08000786800F06BFE002318464037BD4680BD0F
:10F0900004DBFEFF80B586B000AF786007F10C039B
:10F0A000184600F093FC78617B69002B01D07B69E6
:10F0B00007E007F10C031A460449786800F04EFE99
:10F0C000002318461837BD4680BD00BFFFDAFEFF9B
:10F0D00080B58EB000AF786020233B6107F1140249
:10F0E00007F110031146184609F09FFC78637B6B0B
:10F0F000002B01D003230CE007F11403BB603B6934
:10F10000FB6007F108031A460449786800F026FE00
:10F11000002318463837BD4680BD00BF05DBFEFF23
:10F12000B0B584B000AF786007F10803184601F06D
:10F13000D9FCF860FB68002B01D0FB680AE0BB68D3
:10F14000DA171C46154622462B460449786800F01B
:10F15000ECFD002318461037BD46B0BD07DBFEFFAF
:10F16000B0B58AB000AF786007F1100300221A60D2
:10F170005A600023BB6000233B6207F1080207F1DD
:10F180000E0319460220FFF7B9FE38623B6A012BD5
:10F1900014D1BB6804333B61FB897B613B697969AE
:10F1A00007F118021846FFF704FEF861FB69002B0F
:10F1B00001D0052310E0BB697B6202E009F0B2FBDD
:10F1C00078627B6A00221C46154622462B4604497B
:10F1D000786800F0AAFD002318462837BD46B0BD68
:10F1E00006DBFEFF80B582B000AF786039603A6818
:10F1F0000449786800F0B2FD002318460837BD4680
:10F2000080BD00BF00DBFEFF80B58EB000AF786030
:10F210002023BB6007F10C0207F1080311461846D2
:10F2200009F098FB78637B6B002B01D005230CE081
:10F2300007F10C03FB62BB683B6307F12C031A4622
:10F240000449786800F0A4FD002318463837BD460D
:10F2500080BD00BFFEDAFEFF80B58EB000AF7860E3
:10F260002023BB6007F10C0207F108031146184682
:10F2700009F09BFB78637B6B002B01D005230CE02E
:10F2800007F10C03FB62BB683B6307F12C031A46D2
:10F290000449786800F07CFD002318463837BD46E5
:10F2A00080BD00BF08DBFEFF80B58EB000AF786088
:10F2B0001223BB6107F1100300221A605A60002379
:10F2C000BB6000237B6307F1080207F10E031946B8
:10F2D0000120FFF713FE78637B6B012B05D1BB6820
:10F2E00004333B61FB897B6112E007F11C0207F1EB
:10F2F00018031146184609F0BEFB38633B6B002B20
:10F3000001D003230CE007F11C033B61BB697B6167
:10F3100007F110031A460449786800F039FD00230C
:10F3200018463837BD4680BD03DBFEFF80B483B08E
:10F3300000AF78607B68402B08D07B68402B07D8F3
:10F340007B68202B02D07B68302B01D1002300E0AA
:10F35000042318460C37BD4680BC704780B58CB07E
:10F3600000AFF860B9607A600123FB6204237B621E
:10F37000FB685B68402B1ED1FB681B68002B1AD012
:10F38000FB681A68FB685B6813443B62FB681A6899
:10F390007B6A1344BB6209E0BB6A5A1CBA621B78E1
:10F3A000002B03D00023FB6200BF06E0BA6A3B6A71
:10F3B0009A42F1D301E00023FB62FB6A002B12D0DA
:10F3C000FB681B68BA68FA61BB617B6A7B617A691A
:10F3D000B969F86913F082FCBB681B6803F0070287
:10F3E0007B681A6005E0BB6800221A607B68002217
:10F3F0001A6000BF3037BD4680BD80B5C4B002AFD3
:10F40000F86007F58473A3F58073196007F58473BA
:10F41000A3F582731A600023C7F8043100237B61CF
:10F4200000233B6100F0D8F9C7F80401D7F8043194
:10F43000002B40F0B38007F1140207F110031946C6
:10F44000F868FFF78BFF39697A6907F1180007F54B
:10F450008473A3F580731B6800936FF0060300F0BC
:10F46000A3FB034687F8033197F80331002B07D03D
:10F4700097F803311846FFF787FCC7F80401A4E0AA
:10F4800007F11803F9681846FFF7ACFEC7F8040146
:10F49000D7F80431002B40F083803B6903F08043B0
:10F4A000002B62D107F118031846FFF7B5FDC7F826
:10F4B0000401D7F80431002B74D107F11803184662
:10F4C000FFF7E8FDC7F80401D7F80431002B6BD132
:10F4D00007F118031846FFF7FBFDC7F80401D7F83A
:10F4E0000431002B62D107F118031846FFF718FE0C
:10F4F000C7F80401D7F80431002B59D107F11803DC
:10F500001846FFF72DFEC7F80401D7F80431002B89
:10F5100050D107F118031846FFF718FDC7F804018A
:10F52000D7F80431002B47D107F118031846FFF72D
:10F530006BFEC7F80401D7F80431002B3ED107F168
:10F5400018031846FFF788FEC7F80401D7F80431FE
:10F55000002B35D107F118031846FFF7A5FEC7F8B1
:10F560000401D7F80431002B2CD107F58473A3F5DF
:10F57000827307F118021968104600F08CFB0346ED
:10F5800087F8033197F80331002B1DD097F803312A
:10F590001846FFF7F9FBC7F8040116E000BF14E0B6
:10F5A00000BF12E000BF10E000BF0EE000BF0CE0A3
:10F5B00000BF0AE000BF08E000BF06E000BF04E0B3
:10F5C00000BF02E000BF00E000BFD7F80431002B0D
:10F5D00004D100F07DF9C7F8040101E000F078F9EA
:10F5E000D7F80431184607F58477BD4680BD80B54D
:10F5F0008CB000AFF860B9607A603B600023FB62BA
:10F60000FB681B687B62FB685B68BB627B681B688E
:10F61000FB617B685B683B62BB6A1846FFF786FE4E
:10F62000F862FB6A002B19D13B6A002B02D104233C
:10F63000FB6216E007F1140207F11C0107F1240335
:10F640001846FFF7DAFEF862FB6A002B08D17A69E8
:10F650007B681A60BA697B685A6002E000BF00E00C
:10F6600000BFF86AFFF74EFB034618463037BD4629
:10F6700080BD80B58EB000AFF860B9607A603B6045
:10F6800000237B63FB681B681B683B637B681B680C
:10F69000FB6200237B623B6BBB620023FB616FF06C
:10F6A00000433B627B685B68032B02D804237B63C7
:10F6B0001AE0386BFFF73AFE78637B6B002B10D1B2
:10F6C00007F1140207F11C0107F124031846FFF7A4
:10F6D00094FE78637B6B002B05D1BA69FB6A1A60D4
:10F6E00002E000BF00E000BF786BFFF70BFB0346B2
:10F6F00018463837BD4680BD80B483B000AF0023C4
:10F700007B607B6818460C37BD4680BC7047B0B440
:10F7100089B000AF786007F10C0300221A605A60CC
:10F720009A60DA601A617B681D4607F10C040FCC01
:10F730000FC523682B6078682437BD46B0BC70477E
:10F7400080B483B000AF78607B681B6803F480539B
:10F75000002B05D07B681B6843F480627B681A60CD
:10F760007B681B6803F40053002B05D07B681B6883
:10F7700043F400627B681A6000BF0C37BD4680BC52
:10F78000704780B582B000AF786039603B4618465C
:10F79000FFF7D6FF3A687B68DA6000BF0837BD46DE
:10F7A00080BD80B483B000AF786039607B683A6810
:10F7B0001A6100BF0C37BD4680BC704780B483B06F
:10F7C00000AF78600B467B807B687A881A8000BF28
:10F7D0000C37BD4680BC704780B5A8B000AF07F1BC
:10F7E0007C0300221A605A609A60DA601A615A61DA
:10F7F0000023BB613B1D1846FFF789FF2F4B1B6899
:10F80000002B01D0052354E007F1970307F17C0298
:10F8100007F11C00602109F06FF9C7F89C00D7F8C8
:10F820009C30002B02D1FB6F002B01D1052340E05F
:10F830003B1D4FF480511846FFF7A3FF3B1D2049A5
:10F840001846FFF7AEFF97F897301BB243F4E24338
:10F850001BB29AB23B1D11461846FFF7AFFFF96F76
:10F86000D7F8802007F11803381D15F09DF8C7F868
:10F870009800D7F89830002B01D0052319E0BB6918
:10F880000E4A13600F4B1B68002B11D1B8690D4B4A
:10F8900041220D4915F012F9C7F89800D7F89830B1
:10F8A000002B01D0052304E097F89720074B1A702E
:10F8B00000231846A037BD4680BD00BF509C0230D3
:10F8C00009060006989C0230549C02309C9C023031
:10F8D00080B582B000AF0C4B1B68002B01D1052313
:10F8E0000EE0094B1B68184615F094F878607B68A9
:10F8F000002B01D0052303E0034B00221A600023F4
:10F9000018460837BD4680BD509C023080B483B095
:10F9100000AF7860074B1B68002B01D1052304E082
:10F92000044B1A687B681A60002318460C37BD46E2
:10F9300080BC7047509C023080B582B000AFFFF7AA
:10F94000DBFE03463B601B4B1B68002B01D10323EE
:10F950002CE03B461849184615F0E2F878607B68C1
:10F96000002B01D0032321E0124B1A683B461349B8
:10F97000184615F005F978607B68002B01D0032349
:10F9800014E00F4938460F4B202215F02DF978600E
:10F990007B68002B01D0032308E00B4B01221A7077
:10F9A000084B1B680133074A1360002318460837C9
:10F9B000BD4680BD989C023009000002549C023074
:10F9C000A19C0230C49C0230A09C023080B582B061
:10F9D00000AF78600D4B1B68002B06D1FFF7ACFF22
:10F9E0000346002B01D003230CE07B68002B01D1E0
:10F9F000052307E07B68064A1A60044B1A687B6897
:10FA00005A60002318460837BD4680BDC49C0230AA
:10FA1000A09C023080B584B000AFF860C7E9002335
:10FA2000D7E90023F8682FF004FBD7E90623F8682C
:10FA30002FF0FFFA00BF1037BD4680BD80B584B0FF
:10FA400000AFF8603B1D83E806003B1D0CCB032193
:10FA5000F8682FF01EFB00BF1037BD4680BD80B593
:10FA600084B000AFF860C7E90023D7E90023F86845
:10FA70002FF0DFFA07F1180393E80600F868FFF7A4
:10FA8000DDFF00BF1037BD4680BD80B584B000AF3C
:10FA9000F8603B1D83E806003B1D0CCB0221F86893
:10FAA0002FF0F7FA00BF1037BD4680BD80B584B097
:10FAB00000AFF860C7E90023D7E90023F8682FF00A
:10FAC000B8FA07F1180393E80600F868FFF7DDFFBE
:10FAD00000BF1037BD4680BD80B582B000AF7860F2
:10FAE000052178682FF01DFB00BF0837BD4680BD9B
:10FAF00080B582B000AF78600022052178682FF0D1
:10FB00003FFB00BF0837BD4680BD80B584B000AF65
:10FB1000F860B9607A6048220021F86813F03DF976
:10FB2000FB687A681A62FB68BA689A6300BF10378C
:10FB3000BD4680BD82B090B482B000AF786007F15E
:10FB4000100181E80C007B683C3307F1200292E849
:10FB5000030083E803007B6803F1280407F1100326
:10FB60000FCB84E80F0000BF0837BD4690BC02B041
:10FB7000704780B483B000AF0346FB71FB79192B4B
:10FB80000AD0192B0ADC002B02D0032B02D005E08F
:10FB9000002304E0042302E0012300E003231846CD
:10FBA0000C37BD4680BC7047B0B596B004AFF86066
:10FBB000B9607A603B60002387F8473000233B64DC
:10FBC0000023FB6100233B62FB68BA68C3F89820FE
:10FBD000FB687A68C3F89C20BB68002B03DA3B6C97
:10FBE00043F001033B64FB68A0333A68396C184664
:10FBF000FFF78BFF07F124031846FFF787FEF86332
:10FC0000FB6B002B01D00E2341E0022387F8283044
:10FC10007B6A00221C461546C7E90C45FB6803F1C8
:10FC2000A00402AA07F11C0393E8030082E8030082
:10FC30006A4607F1300393E8030082E8030007F106
:10FC400028030CCB2046FFF775FFF868BB6D93E8DF
:10FC500006002FF02FF9FB68A033FA68114618460A
:10FC600000F0A1FA034687F83B3097F83B30002BB1
:10FC700007D097F83B301846FFF77BFF034687F81D
:10FC80004730FB681846FFF727FF97F847301846BC
:10FC90004837BD46B0BD80B586B000AF78603960EA
:10FCA0000023FB757B681846FFF722FF7B68A033B3
:10FCB0007A681146184600F0F3FA0346BB75BB7D1F
:10FCC000002B06D0BB7D1846FFF753FF0346FB759C
:10FCD0001CE07B6807F10C02114618462FF0C9FAA8
:10FCE00003467B757B7D012B02D10123FB750DE063
:10FCF0007B7D002B02D00223FB7507E03B681A4690
:10FD000007F10C0393E8030082E80300FB7D18462B
:10FD10001837BD4680BD80B483B000AF78607B6883
:10FD200018460C37BD4680BC7047B0B586B002AFF0
:10FD3000F860B960C7E90023F968BB68DA171C46A8
:10FD40001546D7E90023CDE9002322462B46084675
:10FD5000FFF760FE00BF1037BD46B0BDF0B587B0FD
:10FD600002AFF860B9607A60FE68BB68DA171C46BB
:10FD700015467A686B4692E8030083E80300224642
:10FD80002B463046FFF792FE00BF1437BD46F0BD4C
:10FD9000F0B587B002AFF860B9607A60FE68BB6802
:10FDA000DA171C4615467A686B4692E8030083E82A
:10FDB000030022462B463046FFF751FE00BF1437A2
:10FDC000BD46F0BD80B483B000AF3B4683E803007E
:10FDD0003B68002B0CBF01230023DBB218460C3715
:10FDE000BD4680BC704780B483B000AF3B4683E81B
:10FDF00003007B68002B0CBF01230023DBB21846F5
:10FE00000C37BD4680BC704780B582B000AF3B4622
:10FE100083E803003B4693E80300FFF7E4FF034653
:10FE2000002B07D13B4693E80300FFF7CBFF0346C7
:10FE3000002B01D0012300E0002318460837BD46FF
:10FE400080BD80B483B000AF78607B689B7B184630
:10FE50000C37BD4680BC704780B483B000AF78607B
:10FE60007B681B68002B0CBF01230023DBB2184604
:10FE70000C37BD4680BC704780B584B000AFF860D9
