:020000041100E9
:100000003DB8F3960000000000047B00185903007F
:1000100000000000010600000000000000000000D9
:10002000FFFFFFFFFFFFFFFFFFFFFFFFFFFFFFFFE0
:10003000FFFFFFFFFFFFFFFFFFFFFFFFFFFFFFFFD0
:10004000FFFFFFFFFFFFFFFFFFFFFFFFFFFFFFFFC0
:10005000FFFFFFFFFFFFFFFFFFFFFFFFFFFFFFFFB0
:100400000008003071D40011E1D10011E7D10011D2
:10041000EDD10011F3D10011F9D10011FFD100117C
:10042000000000000000000000000000B1430111C6
:1004300005D2001100000000714301110BD2001120
:1004400011D2001117D200111DD2001123D20011B8
:1004500029D200112FD2001100000000000000007E
:100460000000000035D200113BD2001141D2001132
:1004700047D20011000000004DD2001153D20011EC
:1004800059D2001100000000000000000000000030
:10049000000000000000000000000000000000005C
:1004A00000000000000000005FD2001165D20011C2
:1004B0006BD2001171D2001100000000000000009A
:1004C00077D200117DD2001183D2001189D20011A0
:1004D0008FD2001195D200119BD20011A1D2001130
:1004E000A7D20011ADD20011B3D20011B9D20011C0
:1004F000BFD20011C5D20011CBD20011D1D2001150
:10050000D7D20011DDD20011E3D20011E9D20011DF
:10051000EFD20011F5D20011FBD2001101D300116E
:1005200007D30011000000000000000000000000E0
:1005300000000000000000000000000000000000BB
:1005400000000000000000000000000000000000AB
:10055000000000000DD3001113D3001119D30011B6
:100560001FD3001125D300112BD3001131D300115B
:1005700037D300113DD3001143D3001149D30011EB
:100580004FD3001155D300115BD3001161D300117B
:1005900067D300116DD3001173D3001179D300110B
:1005A0007FD3001185D300118BD3001191D300119B
:1005B00097D300119DD30011A3D30011A9D300112B
:1005C000AFD30011B5D30011BBD30011C1D30011BB
:1005D000C7D30011CDD30011D3D30011D9D300114B
:1005E000DFD30011E5D30011EBD30011F1D30011DB
:1005F000F7D30011FDD3001103D4001109D4001169
:100600000FD4001115D400111BD4001121D40011F6
:1006100027D400112DD4001133D4001139D4001186
:100620003FD4001145D400114BD4001151D4001116
:1006300057D400115DD4001163D4001169D40011A6
:1006400000000000000000000000000000000000AA
:10065000000000000000000000000000000000009A
:100660007FE97FE915F01CBF7FE97FE915F02ABF1C
:100670007FE97FE915F05FBF7FE97FE915F048BFAB
:100680007FE97FE915F030BF0000000000000000A6
:10069000000000000000000000000000000000005A
:1006A0004859031100BE0030D003000060640111FE
:1006B000603200304000000040640111201800301A
:1006C00020000000E0C10030F83A0000A032003005
:1006D000608B000040180030201A00000018003025
:1006E0000400000001015F5F030100001F01000022
:1006F0006F0D00110020000000000000010000004C
:10070000010000000000000000000000A878003098
:100710000000000070000000743003118000000031
:100720000007000001000000930D0011010000000F
:1007300001015F5F050100001F0100005F4800111B
:10074000800A00000000000001000000010000001D
:100750000000000000000000289B003000000000A6
:10076000800000008030031120000000030700001B
:1007700001000000214800110100000001015F5F3D
:10078000000100001F00000041BA00110008000035
:100790000000000003000000010000000000000055
:1007A00000000000602A003000000000800000000F
:1007B000700000004200000098300311600000004B
:1007C0000107000001000000C9B90011010000008C
:1007D00001015F5F010100001F01000011690011AC
:1007E0008006000000000000000000000100000082
:1007F000000000000000000000A800300000000021
:10080000B830031170000000020700000100000072
:10081000216900110100000000015F5F0401000078
:100820001F03000089910011000500000000000076
:1008300000000000030000000000000000000000B5
:1008400080AE003000000000E030031140000000E6
:100850000005000001000000000000001000000082
:1008600000310311410000000005000001000000FC
:1008700000000000200000001831031142000000B9
:100880000004000001000000000000004000000023
:1008900000015F5F0F0100001F030000419700117E
:1008A000000600000000000002000000060000003A
:1008B0000000000000000000C0B700300000000091
:1008C000800000004000000034310311A00000004F
:1008D0000005000001000000000000001000000002
:1008E00044310311A10000000005000001000000D8
:1008F000000000002000000054310311A20000009D
:1009000000050000010000000000000040000000A1
:1009100064310311A3000000000500000100000085
:10092000000000008000000074310311A4000000EA
:1009300000050000010000000000000000010000B0
:100940008C310311A500000000050000010000002B
:10095000000000000002000000015F5F00000000D6
:10096000FE030000B145011100040000000000007A
:100970000000000000000000000000000000000077
:1009800020C500300000000001015F5F0100000091
:10099000FF030000E9450111000100000000000014
:1009A0000000000000000000000000000000000047
:1009B00020C900300000000000000000000000001E
:1009C00080B483B000AF7860064B03F580531A46BD
:1009D0007B68C2F80434002318460C37BD465DF826
:1009E000047B7047A032003080B483B000AF7860E1
:1009F000064B03F58053D3F804247B681A60002368
:100A000018460C37BD465DF8047B7047A0320030B5
:100A100080B483B000AF786039607B68033323F023
:100A200003037B60144B03F58053D3F80034C3F504
:100A3000A0537A689A4202D96FF08C0315E00E4BEE
:100A400003F58053D3F800340B4A1A443B681A600C
:100A5000094B03F58053D3F800247B681344064AFE
:100A600002F58052C2F80034002318460C37BD4608
:100A70005DF8047B704700BFA032003080B584B0C1
:100A800000AF104B03F580531A460023C2F804341C
:100A90000C4B03F58053D3F800340A4AFA60002265
:100AA000BA607B607A68B968F86816F00FF8054B91
:100AB00003F580531A460023C2F8003400BF1037F4
:100AC000BD4680BDA032003090B5A5B000AF7860C3
:100AD0000023C7F880300423C7F88C300423C7F8FC
:100AE000883007F1600320220021184615F0EEFF40
:100AF00007F1400320220021184615F0E7FF07F117
:100B00000C0334220021184615F0E0FF0023BB60DF
:100B100004E0D7F88C30013BC7F88C30D7F88C3024
:100B2000002B08D0D7F88C305A1E7B68043253F85B
:100B30002230002BEDD0D7F88C30002B02D16FF093
:100B40008303E5E07B68586807F10C023423002139
:100B500034F09AFE0346342B02D06FF08303D7E0C3
:100B6000FB68402B02D96FF08303D1E007F10C033F
:100B70003B6634237B660123C7F8843039E07B6809
:100B8000D7F88420043253F8223007F108021146C6
:100B90001846FFF73DFFC7F88000D7F88030002BDC
:100BA00004D0FFF76BFFD7F88030B1E07B6858685E
:100BB000B9687B68D7F88420043253F822300A469B
:100BC000D7F8841034F060FE0246D7F88430DB009A
:100BD00090333B4443F82C2CBA68D7F88430DB00C0
:100BE00090333B4443F8302CD7F884300133C7F8B6
:100BF0008430D7F88420D7F88C309A42BFD304E0F1
:100C0000D7F88830013BC7F88830D7F88830002BF8
:100C100008D0D7F888305A1E7B68083253F8223043
:100C2000002BEDD00023C7F8843030E07B68D7F884
:100C30008420083253F8223007F108021146184682
:100C4000FFF7E6FEC7F88000D7F88030002B04D00D
:100C5000FFF714FFD7F880305AE0BA68D7F884302D
:100C6000DB0090333B4443F8502C7B68D7F884205A
:100C7000083253F82220D7F88430DB0090333B440D
:100C800043F84C2CD7F884300133C7F88430D7F8B8
:100C90008420D7F888309A42C8D37B689B6818466E
:100CA000FFF78EFEFB681C4A52F8234007F1400212
:100CB00007F16000D7F88830D7F88C10A047C7F844
:100CC00080000023C7F8843018E07B685868D7F8A4
:100CD0008430DB0090333B4453F8502CD7F88430F9
:100CE000DB0090333B4453F84C3CD7F8841034F08D
:100CF000D7FDD7F884300133C7F88430D7F8842083
:100D0000D7F888309A42E0D3FFF7B8FED7F88030A2
:100D100018469437BD4690BD10B3001180B500AFA2
:100D20000DF08FFD0346002B02D06FF0830307E028
:100D30004FF40251034817F0D1F81BF04DFD034664
:100D4000184680BDA846003080B500AF00F080F89E
:100D50000346184680BD80B582B000AF78607868E1
:100D6000FFF742FE034618460837BD4680BD80B5F2
:100D700082B000AFFFF7E8FF78607B68002B01D0FE
:100D80007B6802E0FFF7CAFF034618460837BD46F6
:100D900080BD80B582B000AF78607B681B68002B97
:100DA00004D17868FFF790FE034601E06FF08503F9
:100DB00018460837BD4680BD80B588B000AF786062
:100DC0007B684FF40C7202FB03F310331F4A134489
:100DD000BB611E4A7B684FF40C7101FB03F31344A3
:100DE00008331B68013B042B1ED801A252F823F0E4
:100DF000050E00110B0E0011130E0011190E00113B
:100E0000210E00115423FB6111E04FF4C073FB610C
:100E10000DE0E823FB610AE04FF40873FB6106E094
:100E20004FF4D873FB6102E00023FB6100BFBB6994
:100E30007B6100233B61FB69FB60FA683969786973
:100E400015F044FE00BF2037BD4680BD2867003046
:100E500080B584B000AF084BFB600023BB604FF44B
:100E60008C537B607A68B968F86815F02FFE002310
:100E700018461037BD4680BD2867003080B588B061
:100E800000AFF860B9607A600023FB6100237B61EA
:100E900007F114031846FFF75EFFB861BB69002B2A
:100EA00001D0BB6972E0BB681B68002B23D0BB6814
:100EB0001B68082B1CD8BB681B68013B354A4FF4E4
:100EC0000C7101FB03F313441B68012B10D1BB68A9
:100ED0001B68013B2F4A4FF40C7101FB03F31344D1
:100EE00004331A687B699A4202D16FF088034DE09F
:100EF0006FF087034AE07B68002B02D16FF0860316
:100F000044E07B6800221A600023FB6139E0214A3B
:100F1000FB694FF40C7101FB03F313441B68002BB6
:100F20002CD11C4AFB694FF40C7101FB03F31344F1
:100F300001221A607A691749FB694FF40C7000FBB3
:100F400003F30B4404331A60124AFB694FF40C712B
:100F500001FB03F313440833FA681A60FB695A1C57
:100F6000BB681A60FB694FF40C7202FB03F3103389
:100F7000084A1A447B681A60002307E0FB690133C2
:100F8000FB61FB69072BC2D96FF084031846203739
:100F9000BD4680BD2867003080B586B000AF786060
:100FA0007B681B687B610023FB6007F10C0318461C
:100FB000FFF7D1FE38613B69002B01D03B6949E066
:100FC0007B69002B44D07B69082B41D87B69013BAE
:100FD000224A4FF40C7101FB03F313441B68012BED
:100FE00036D17B69013B1D4A4FF40C7101FB03F3C1
:100FF000134404331A68FB689A4229D17B69013B88
:101000001846FFF7D9FE7B69013B144A4FF40C7177
:1010100001FB03F3134400221A607B69013B0F4A72
:101020004FF40C7101FB03F31344083300221A60E0
:101030007B69013B094A4FF40C7101FB03F3134434
:10104000043300221A607B6800221A60002301E04A
:101050006FF0860318461837BD4680BD28670030FC
:1010600080B586B000AFF860B9607A6000233B615C
:1010700007F110031846FFF76EFE78617B69002BBD
:1010800001D07B6939E0BB68002B34D0BB68082BEA
:1010900031D8BB68013B1B4A4FF40C7101FB03F3D1
:1010A00013441B68012B26D1BB68013B154A4FF442
:1010B0000C7101FB03F3134408331B68FA689A426E
:1010C00019D1BB68013B0F4A4FF40C7101FB03F3CC
:1010D000134404331A683B699A420CD1BB68013B44
:1010E0004FF40C7202FB03F31033064A1A447B6878
:1010F0001A60002301E06FF0880318461837BD46D8
:1011000080BD00BF2867003080B485B000AFF860B4
:10111000B9607A603B60FA68BB689A420DD3FA689E
:101120007B689A4209D83A68BB699A4205D33A6803
:10113000FB699A4201D8012300E0002318461437C6
:10114000BD465DF8047B704780B58EB002AFF86095
:10115000B9607A603B600023FB6200237B6102235D
:101160000193012300933B6801220121B868FFF736
:10117000CBFF034683F00103DBB2002B02D06FF0FC
:10118000800338E0FB685B68342B03D17B685B68C5
:10119000042B02D06FF080032DE0FB681B68BB625C
:1011A000BB6A1B697B627B681B683B627B68083398
:1011B0001B68FB617B6808335B68BB61BB6A1A69AB
:1011C0003B6A1A6007F114031A46796A0120FFF797
:1011D00047FFF862FB6A002B01D0FB6A0BE03B6A19
:1011E0007A6A1A6078697B6808330433BA69F969E6
:1011F0001BF006F8034618463037BD4680BD80B563
:101200008EB002AFF860B9607A603B600023FB6289
:1012100000237B6101230193012300933B68022299
:101220000121B868FFF770FF034683F00103DBB2CA
:10123000002B02D06FF0800333E0FB685B68342B37
:1012400003D17B685B68042B02D06FF0800328E039
:10125000FB681B68BB62BB6A1B697B627B681B689F
:101260003B62FB6808331B68FB61FB6808335B6803
:10127000BB61BB6A1A693B6A1A6007F114031A461C
:10128000796A0120FFF7ECFEF862FB6A002B01D0BF
:10129000FB6A06E07B69BA69F969184619F0ECFD4A
:1012A000034618463037BD4680BD80B590B002AFCA
:1012B000F860B9607A603B6000237B6300233B6287
:1012C00001230193012300933B6801220121B868A7
:1012D000FFF71AFF034683F00103DBB2002B02D0B5
:1012E0006FF0800348E07B685B68042B03D1FB68E8
:1012F0005B68342B02D06FF080033DE0FB681B6815
:101300003B633B6B1B69FB617B681B68FB623B6B50
:101310009B68BB623B6BDB687B6207F1200207F1D5
:101320001C0319460120FFF7A9FD78637B6B002B96
:1013300001D07B6B20E0FA69FB6A1A6007F11403A5
:101340001946B86A01F0FCF878637B6B002B0CD16E
:10135000386A7B6A07F1140206CA19F071FD7863D6
:101360007B6B002B03D17B6B06E000BF00E000BF6E
:10137000F86AFFF711FE7B6B18463837BD4680BD13
:1013800080B590B002AFF860B9607A603B6000232E
:101390007B6300233B6201230193012300933B689D
:1013A00001220121B868FFF7AFFE034683F0010375
:1013B000DBB2002B02D06FF0800348E07B685B68F3
:1013C000042B03D1FB685B68342B02D06FF08003E1
:1013D0003DE0FB681B683B633B6B1B69FB617B6803
:1013E0001B68FB623B6B9B68BB623B6BDB687B6291
:1013F00007F1200207F11C0319460120FFF73EFD0B
:1014000078637B6B002B01D07B6B20E0FA69FB6A71
:101410001A6007F114031946B86A01F091F878636D
:101420007B6B002B0CD1386A7B6A07F1140206CA69
:1014300019F014FD78637B6B002B03D17B6B06E006
:1014400000BF00E000BFF86AFFF7A6FD7B6B1846FF
:101450003837BD4680BD80B590B002AFF860B96046
:101460007A603B6000237B6300237B61022301934E
:10147000012300933B6802220121B868FFF744FE74
:10148000034683F00103DBB2002B02D06FF0800330
:1014900045E0FB685B68342B03D17B685B68042BF9
:1014A00002D06FF080033AE0FB681B683B633B6B44
:1014B0001B69FB627B681B68BB62FB6808331B68A7
:1014C0007B62FB6808335B683B627B6808331B68A0
:1014D000FB617B6808335B68BB613B6B1A69BB6A65
:1014E0001A607B68083300225A6007F114031A4619
:1014F000F96A0120FFF7B4FD78637B6B002B01D004
:101500007B6B0CE078697B68083304330193BB691B
:101510000093FB693A6A796A19F0DEFC03461846C3
:101520003837BD4680BD80B58EB002AFF860B96077
:101530007A603B600023FB6200237B6102230193FE
:10154000012300933B6801220121B868FFF7DCFD0D
:10155000034683F00103DBB2002B02D06FF080035F
:1015600040E0FB685B68342B03D17B685B68042B2D
:1015700002D06FF0800335E0FB681B68BB62BB6A7A
:101580001B697B627B681B683B627B6808331B6856
:10159000FB617B6808335B68BB61BB6A1A693B6AA5
:1015A0001A607B68083300225A6007F114031A4658
:1015B000796A0120FFF754FDF862FB6A002B01D025
:1015C000FB6A0FE078697B6808330433BA69F9690C
:1015D00019F0AAFCF862FB6A002B02D1386AFFF707
:1015E000DBFCFB6A18463037BD4680BD80B58CB049
:1015F00002AFF860B9607A603B6000237B62002331
:101600007B6101230193012300933B6801220121A7
:10161000B868FFF779FD034683F00103DBB2002BC6
:1016200002D06FF0800335E0FB685B68342B03D198
:101630007B685B68042B02D06FF080032AE0FB68B4
:101640001B683B623B6A1B69FB617B681B68BB6173
:101650003B6A1A69BB691A6007F114031A46F969F3
:101660000120FFF7FDFC78627B6A002B01D000238C
:1016700010E07B69184619F085FC78627B6A002BC4
:1016800004D0B869FFF788FC7B6A03E0B869FFF70C
:1016900083FC034618462837BD4680BD80B592B00E
:1016A00004AFF860B9607A603B6000237B6301237C
:1016B0000193012300933B6802220121B868FFF7E0
:1016C00023FD034683F00103DBB2002B02D06FF051
:1016D00080033AE0FB685B68342B02D06FF0800334
:1016E00033E0FB681B683B633B6B9B68FB623B6BB7
:1016F000DB68BB62FB6808331B687B62FB680833EE
:101700005B683B627B681B68FB617B685B68BB61F5
:1017100007F110031946F86A00F012FF78637B6B3B
:10172000002B01D07B6B10E07B6804330393BB6913
:101730000293FB6901933B6A00937B6ABA6A07F1E3
:10174000100103C91AF0AAFD034618463837BD46F2
:1017500080BD80B592B004AFF860B9607A603B603C
:1017600000237B6301230193012300933B68022242
:101770000121B868FFF7C8FC034683F00103DBB220
:10178000002B02D06FF080033AE0FB685B68342BDB
:1017900002D06FF0800333E0FB681B683B633B6B58
:1017A0009B68FB623B6BDB68BB62FB6808331B68B2
:1017B0007B62FB6808335B683B627B681B68FB618C
:1017C0007B685B68BB6107F110031946F86A00F09B
:1017D000B7FE78637B6B002B01D07B6B10E07B68DE
:1017E00004330393BB690293FB6901933B6A009343
:1017F0007B6ABA6A07F1100103C919F0D3FB0346EB
:1018000018463837BD4680BD80B485B000AFF8605B
:10181000B9607A603B60FA68BB689A420DD3FA6897
:101820007B689A4209D83A68BB699A4205D33A68FC
:10183000FB699A4201D8012300E0002318461437BF
:10184000BD465DF8047B704780B58CB002AFF86090
:10185000B9607A603B6000237B6200237B610123D7
:101860000193012300933B6801220121B868FFF72F
:10187000CBFF034683F00103DBB2002B02D06FF0F5
:10188000800338E07B685B68042B03D1FB685B68EE
:10189000342B02D06FF080032DE0FB681B683B62A5
:1018A0003B6A1B693B617B681B68FB613B6ADB68C9
:1018B000BB613B6A1A69FB691A6007F1140207F100
:1018C000100319460320FFF7D9FA78627B6A002BD0
:1018D00001D07B6A0FE03A69FB691A607B69B969DC
:1018E000184618F0B1FC78627B6A002B02D0F869C8
:1018F000FFF752FB7B6A18462837BD4680BD80B58E
:101900008EB002AFF860B9607A603B600023FB6282
:1019100000237B6101230193012300933B68022292
:101920000121B868FFF770FF034683F00103DBB2C3
:10193000002B02D06FF0800333E0FB685B68342B30
:1019400003D17B685B68042B02D06FF0800328E032
:10195000FB681B68BB62BB6A1B697B627B681B6898
:101960003B62FB6808331B68FB61FB6808335B68FC
:10197000BB61BB6A1A693B6A1A6007F114031A4615
:10198000796A0320FFF76CFBF862FB6A002B01D039
:10199000FB6A06E07B69BA69F969184618F07AFCB7
:1019A000034618463037BD4680BD80B58EB002AFC5
:1019B000F860B9607A603B600023FB6200237B61C2
:1019C00002230193012300933B6801220121B8689F
:1019D000FFF71AFF034683F00103DBB2002B02D0AE
:1019E0006FF0800340E0FB685B68342B03D17B68B9
:1019F0005B68042B02D06FF0800335E0FB681B6846
:101A0000BB62BB6A1B697B627B681B683B627B684D
:101A100008331B68FB617B6808335B68BB61BB6A8A
:101A20001A693B6A1A607B68083300225A6007F122
:101A300014031A46796A0320FFF712FBF862FB6A67
:101A4000002B01D0FB6A0FE078697B680833043310
:101A5000BA69F96918F03AFCF862FB6A002B02D106
:101A6000386AFFF799FAFB6A18463037BD4680BDE1
:101A700080B58EB002AFF860B9607A603B60002339
:101A8000FB6200237B6101230193012300933B68E8
:101A900002220121B868FFF7B7FE034683F0010375
:101AA000DBB2002B02D06FF080033AE0FB685B688A
:101AB000342B03D17B685B68042B02D06FF080036A
:101AC0002FE0FB681B68BB62BB6A1B697B627B689B
:101AD0001B683B62FB6808331B68FB61FB680833CB
:101AE0005B68BB61BB6A1A693B6A1A6007F1140341
:101AF0001A46796A0320FFF7B3FAF862FB6A002BF3
:101B000001D0FB6A0DE07B69BA69F969184618F0E3
:101B1000F1FBF862FB6A002B02D1386AFFF73CFA4E
:101B2000FB6A18463037BD4680BD80B58CB002AF29
:101B3000F860B9607A603B6000237B6200237B61C0
:101B400001230193012300933B6801220121B8681E
:101B5000FFF75AFE034683F00103DBB2002B02D0ED
:101B60006FF0800335E0FB685B68342B03D17B6842
:101B70005B68042B02D06FF080032AE0FB681B68CF
:101B80003B623B6A1B69FB617B681B68BB613B6A0C
:101B90001A69BB691A6007F114031A46F969032030
:101BA000FFF75EFA78627B6A002B01D0002310E019
:101BB0007B69184618F03CFB78627B6A002B04D0E6
:101BC000B869FFF7E9F97B6A03E0B869FFF7E4F960
:101BD000034618462837BD4680BD80B58CB002AF9D
:101BE000F860B9607A603B6000237B6200237B6110
:101BF00000233B6101230193012300933B680122F1
:101C00000121B868FFF700FE034683F00103DBB251
:101C1000002B02D06FF0800334E0FB685B68342B4C
:101C200003D17B685B68042B02D06FF0800329E04E
:101C3000FB681B683B623B6A1B69FB617B681B6836
:101C4000BB6107F114031A46F9690320FFF708FA8C
:101C500078627B6A002B01D07B6A13E007F11003E6
:101C60001A46B9690320FFF709F978627B6A002BED
:101C700001D07B6A06E07B693A691146184618F084
:101C8000D9FB034618462837BD4680BD80B58CB0C9
:101C900002AFF860B9607A603B60012301930023D2
:101CA00000933B6802220121B868FFF7ADFD0346AF
:101CB00083F00103DBB2002B02D06FF0800329E038
:101CC000FB685B68342B02D06FF0800322E0FB6876
:101CD0001B687B627B6ADB683B62FB6808331B68BE
:101CE000FB61FB6808335B68BB617B681B687B61D9
:101CF0007B685B683B617B6800225A607B680433C9
:101D000001933B6900937B69BA69F969386A18F0F5
:101D100049FB034618462837BD4680BD80B58CB0C8
:101D200002AFF860B9607A603B6000230193002342
:101D300000933B6803220121B868FFF765FD034665
:101D400083F00103DBB2002B02D06FF0800325E0AB
:101D5000FB685B68342B02D06FF080031EE0FB68E9
:101D60001B687B627B6ADB683B62FB6808331B682D
:101D7000FB61FB6808335B68BB61FB6810331B6861
:101D80007B61FB6810335B683B613B6900937B6957
:101D9000BA69F969386A18F015FB034618462837FE
:101DA000BD4680BD80B485B000AFF860B9607A6090
:101DB0003B60FA68BB689A420DD3FA687B689A4226
:101DC00009D83A68BB699A4205D33A68FB699A42D6
:101DD00001D8012300E0002318461437BD465DF802
:101DE000047B704780B590B002AFF860B9607A604C
:101DF0003B6000237B6300233B62012301930123AB
:101E000000933B6801220121B868FFF7CBFF03462E
:101E100083F00103DBB2002B02D06FF080034CE0B3
:101E20007B685B68042B03D1FB685B68342B02D0B2
:101E30006FF0800341E0FB681B683B633B6B1B69F1
:101E4000FB617B681B68FB623B6B9B68BB623B6B07
:101E5000DB687B623B6B1A69FB6A1A6007F1200240
:101E600007F11C0319460220FFF708F878637B6B23
:101E7000002B01D07B6B20E0FA69FB6A1A6007F146
:101E800014031946B86A00F05BFB78637B6B002B88
:101E90000CD1386A7B6A07F1140206CA18F0F4FA0A
:101EA00078637B6B002B03D17B6B06E000BF00E007
:101EB00000BFF86AFFF770F87B6B18463837BD46ED
:101EC00080BD80B590B002AFF860B9607A603B60C9
:101ED00000237B6300233B620123019301230093D2
:101EE0003B6801220121B868FFF75CFF034683F0DD
:101EF0000103DBB2002B02D06FF080034CE07B6863
:101F00005B68042B03D1FB685B68342B02D06FF055
:101F1000800341E0FB681B683B633B6B1B69FB6113
:101F20007B681B68FB623B6B9B68BB623B6BDB683F
:101F30007B623B6B1A69FB6A1A6007F1200207F1AA
:101F40001C0319460220FEF799FF78637B6B002B78
:101F500001D07B6B20E0FA69FB6A1A6007F1140379
:101F60001946B86A00F0ECFA78637B6B002B0CD151
:101F7000386A7B6A07F1140206CA18F093FA78638C
:101F80007B6B002B03D17B6B06E000BF00E000BF42
:101F9000F86AFFF701F87B6B18463837BD4680BDFD
:101FA00080B58EB002AFF860B9607A603B60002304
:101FB000FB6200237B6101230193012300933B68B3
:101FC00002220121B868FFF7EDFE034683F001030A
:101FD000DBB2002B02D06FF0800333E0FB685B685C
:101FE000342B03D17B685B68042B02D06FF0800335
:101FF00028E0FB681B68BB62BB6A1B697B627B686D
:102000001B683B62FB6808331B68FB61FB68083395
:102010005B68BB61BB6A1A693B6A1A6007F114030B
:102020001A46796A0220FFF71BF8F862FB6A002B58
:1020300001D0FB6A06E07B69BA69F969184618F0B5
:102040003FFA034618463037BD4680BD80B58EB096
:1020500002AFF860B9607A603B600023FB62002346
:102060007B6102230193012300933B68012201213C
:10207000B868FFF797FE034683F00103DBB2002B3D
:1020800002D06FF0800340E0FB685B68342B03D123
:102090007B685B68042B02D06FF0800335E0FB683F
:1020A0001B68BB62BB6A1B697B627B681B683B6207
:1020B0007B6808331B68FB617B6808335B68BB6126
:1020C000BB6A1A693B6A1A607B68083300225A604F
:1020D00007F114031A46796A0220FEF7C1FFF8627D
:1020E000FB6A002B01D0FB6A0FE078697B6808333C
:1020F0000433BA69F96918F003FAF862FB6A002B35
:1021000002D1386AFEF748FFFB6A18463037BD46F1
:1021100080BD80B58EB002AFF860B9607A603B6078
:102120000023FB6200237B610123019301230093C1
:102130003B6802220121B868FFF734FE034683F0B2
:102140000103DBB2002B02D06FF080033AE0FB68A2
:102150005B68342B03D17B685B68042B02D06FF083
:1021600080032FE0FB681B68BB62BB6A1B697B6254
:102170007B681B683B62FB6808331B68FB61FB687C
:1021800008335B68BB61BB6A1A693B6A1A6007F176
:1021900014031A46796A0220FEF762FFF862FB6AAE
:1021A000002B01D0FB6A0DE07B69BA69F96918461A
:1021B00018F0C4FAF862FB6A002B02D1386AFEF705
:1021C000EBFEFB6A18463037BD4680BD80B58CB04B
:1021D00002AFF860B9607A603B6000237B62002345
:1021E0007B6101230193012300933B6801220121BC
:1021F000B868FFF7D7FD034683F00103DBB2002B7D
:1022000002D06FF0800335E0FB685B68342B03D1AC
:102210007B685B68042B02D06FF080032AE0FB68C8
:102220001B683B623B6A1B69FB617B681B68BB6187
:102230003B6A1A69BB691A6007F114031A46F96907
:102240000220FEF70DFF78627B6A002B01D000238D
:1022500010E07B69184618F005F978627B6A002B5C
:1022600004D0B869FEF798FE7B6A03E0B869FEF710
:1022700093FE034618462837BD4680BD80B592B010
:1022800004AFF860B9607A603B6000237B63012390
:102290000193012300933B6802220121B868FFF7F4
:1022A00081FD034683F00103DBB2002B02D06FF007
:1022B00080033AE0FB685B68342B02D06FF0800348
:1022C00033E0FB681B683B633B6B9B68FB623B6BCB
:1022D000DB68BB62FB6808331B687B62FB68083302
:1022E0005B683B627B681B68FB617B685B68BB610A
:1022F00007F110031946F86A00F022F978637B6B46
:10230000002B01D07B6B10E07B6804330393BB6927
:102310000293FB6901933B6A00937B6ABA6A07F1F7
:10232000100103C918F048FA034618463837BD466D
:1023300080BD80B592B004AFF860B9607A603B6050
:1023400000237B6300230193002300933B68032257
:102350000121B868FFF726FD034683F00103DBB2D5
:10236000002B02D06FF0800339E0FB685B68342BF0
:1023700002D06FF0800332E0FB681B683B633B6B6D
:102380009B68FB623B6BDB68BB62FB6808331B68C6
:102390007B62FB6808335B683B62FB6810331B6839
:1023A000FB61FB6810335B68BB6107F110031946E2
:1023B000F86A00F0C5F878637B6B002B01D07B6B6B
:1023C0000DE0BB690293FB6901933B6A00937B6A52
:1023D000BA6A07F1100103C918F004FA0346184657
:1023E0003837BD4680BD80B487B000AFF860B960B3
:1023F0007A60FB687A681A60FB68BA685A60F868A5
:102400001C37BD465DF8047B7047B0B58EB000AF99
:10241000786007F1100328220021184614F056FBBB
:102420007B681D4607F110040FCC0FC50FCC0FC5FC
:1024300094E8030085E8030078683837BD46B0BDEE
:10244000B0B590B000AF78633963FA627B6B002B54
:1024500002D0FB6A002B02D16FF080032CE0FC6AF3
:102460003B461846FFF7D1FF25463C460FCC0FC52B
:102470000FCC0FC594E8030085E80300FB6AFB63FB
:102480007B6B1A88FB6B1A807B6B5A68FB6B5A60FC
:102490007B6BDA68FB6B1A617B6B1A69FB6B5A61A9
:1024A0007B6B5A88FB6B5A807B6B9A68FB6B9A60DC
:1024B000FB6B3A6BDA60002318464037BD46B0BD6F
:1024C000B0B491B000AF786039603B68002B02D0A7
:1024D0007B68002B02D16FF080032CE007F12C0306
:1024E00000221A605A609A60DA601A613B681D46E1
:1024F00007F12C040FCC0FC523682B607B6807F114
:102500000C041D460FCD0FC495E80F0084E80F00A2
:10251000BA893B681A803A693B685A60FA693B6835
:10252000DA603A6A3B681A61FA893B685A807A69CC
:102530003B689A60002318464437BD46B0BC7047DC
:1025400090B587B000AFF860B96000233B6107F138
:1025500010031846FEF7FFFB78617B69002B01D062
:102560007B6913E0BB68002B02D16FF080030DE0A4
:102570003969BC683B46FA681846FFF734FF2246C3
:102580003B4693E8030082E80300002318461C370B
:10259000BD4690BD80B485B000AFF860B9607A6088
:1025A0003B60FA68BB689A420DD3FA687B689A422E
:1025B00009D83A68BB699A4205D33A68FB699A42DE
:1025C00001D8012300E0002318461437BD465DF80A
:1025D000047B704780B59CB008AFF860B9607A6042
:1025E0003B600023FB6401230193002300933B68BD
:1025F00003220121B868FFF7CDFF034683F00103F2
:10260000DBB2002B02D06FF0800355E0FB685B6803
:10261000342B02D06FF080034EE0FB681B68BB6474
:10262000BB6C20337B64BB6C9B683B64BB6CDB681E
:10263000FB637B6CBB637B6C1B697B63FB68083350
:102640001B683B63FB6808335B68FB627B681B6845
:10265000BB627B685B687B62FB6810331B683B6214
:10266000FB6810335B68FB617B6800225A6007F1EE
:1026700014031946386CFFF763FFF864FB6C002BFA
:1026800001D0FB6C18E07B68043307937B6A0693E8
:10269000BB6A0593FB6A04933B6B0393FB6902934C
:1026A0003B6A01937B6B0093BB6BFA6B07F11401E0
:1026B00003C918F015FD034618465037BD4680BDC6
:1026C00080B59CB008AFF860B9607A603B600023C9
:1026D000FB6401230193002300933B680322012143
:1026E000B868FFF757FF034683F00103DBB2002B06
:1026F00002D06FF0800355E0FB685B68342B02D09A
:102700006FF080034EE0FB681B68BB64BB6C20333A
:102710007B64BB6C9B683B64BB6CDB68FB637B6C62
:10272000BB637B6C1B697B63FB6808331B683B6383
:10273000FB6808335B68FB627B681B68BB627B6875
:102740005B687B62FB6810331B683B62FB6810337D
:102750005B68FB617B6800225A6007F1140319462D
:10276000386CFFF7EDFEF864FB6C002B01D0FB6CBE
:1027700018E07B68043307937B6A0693BB6A059372
:10278000FB6A04933B6B0393FB6902933B6A0193DF
:102790007B6B0093BB6BFA6B07F1140103C918F054
:1027A0005DFD034618465037BD4680BD80B590B0EC
:1027B00002AFF860B9607A603B6000237B6300235E
:1027C0003B6201230193012300933B680122012115
:1027D000B868FFF7DFFE034683F00103DBB2002B8E
:1027E00002D06FF0800348E0FB685B68342B02D0B6
:1027F0006FF0800341E0FB681B683B633B6B1B6928
:10280000FB617B681B68FB623B6B9B68BB623B6B3D
:10281000DB687B623B6B1A69FB6A1A6007F1200276
:1028200007F11C0319460520FEF728FB78637B6B34
:10283000002B01D07B6B20E0FA69FB6A1A6007F17C
:1028400014031946B86AFFF77BFE78637B6B002B95
:102850000CD1386A7B6A07F1140206CA18F0BCFD75
:1028600078637B6B002B03D17B6B06E000BF00E03D
:1028700000BFF86AFEF790FB7B6B18463837BD4601
:1028800080BD80B590B002AFF860B9607A603B60FF
:1028900000237B6300233B62012301930123009308
:1028A0003B6801220121B868FFF774FE034683F0FC
:1028B0000103DBB2002B02D06FF0800348E0FB681D
:1028C0005B68342B02D06FF0800341E0FB681B682B
:1028D0003B633B6B1B69FB617B681B68FB623B6B6B
:1028E0009B68BB623B6BDB687B623B6B1A69FB6A74
:1028F0001A6007F1200207F11C0319460520FEF7B4
:10290000BDFA78637B6B002B01D07B6B20E0FA690A
:10291000FB6A1A6007F114031946B86AFFF710FE44
:1029200078637B6B002B0CD1386A7B6A07F1140249
:1029300006CA18F05FFD78637B6B002B03D17B6BBD
:1029400006E000BF00E000BFF86AFEF725FB7B6BE6
:1029500018463837BD4680BD80B58CB002AFF860F0
:10296000B9607A603B6000237B6200237B610123B6
:102970000193012300933B6801220121B868FFF70E
:1029800009FE034683F00103DBB2002B02D06FF097
:10299000800335E0FB685B68342B03D17B685B68A0
:1029A000042B02D06FF080032AE0FB681B683B62B7
:1029B0003B6A1B69FB617B681B68BB613B6A1A69E8
:1029C000BB691A6007F114031A46F9690520FEF77E
:1029D00047FB78627B6A002B01D0002310E07B6903
:1029E000184618F09DFE78627B6A002B04D0B86907
:1029F000FEF7D2FA7B6A03E0B869FEF7CDFA034628
:102A000018462837BD4680BD80B592B004AFF86047
:102A1000B9607A603B6000237B6300237B61032302
:102A20000193022300933B6801220121B868FFF75C
:102A3000B1FD034683F00103DBB2002B02D06FF03F
:102A4000800355E0FB685B68342B03D17B685B68CF
:102A5000042B02D06FF080034AE0FB681B683B63E5
:102A60003B6B1B69FB627B681B68BB627B68103336
:102A70001B687B627B6810335B683B627B68083352
:102A80001B68FB617B6808335B68BB613B6B1A6941
:102A9000BB6A1A607B68083300225A607B68103377
:102AA00000225A6007F114031A46F96A0520FEF75E
:102AB000D7FA78637B6B002B01D07B6B18E07869C9
:102AC0007B6810331A1D7B68083304330293BB699B
:102AD0000193FB69009313463A6A796A18F096FDF0
:102AE00078637B6B002B02D1B86AFEF755FA7B6BDB
:102AF00018463837BD4680BD80B58EB002AFF8604D
:102B0000B9607A603B600023FB6200237B61022393
:102B10000193022300933B6801220121B868FFF76B
:102B200039FD034683F00103DBB2002B02D06FF0C6
:102B3000800339E0FB685B68342B03D17B685B68FA
:102B4000042B02D06FF080032EE0FB681B68BB6291
:102B5000BB6A1B697B627B681B683B627B680833CE
:102B60001B68FB617B6808335B68BB61BB6A1A69E1
:102B70003B6A1A607B68083300225A6007F114032D
:102B80001A46796A0520FEF76BFAF862FB6A002B99
:102B900001D0FB6A08E078697B6808330433BA69BE
:102BA000F96919F03BFC034618463037BD4680BD35
:102BB00080B58EB002AFF860B9607A603B600023E8
:102BC000FB6200237B6101230193012300933B6897
:102BD00002220121B868FFF7DDFC034683F0010300
:102BE000DBB2002B02D06FF0800333E0FB685B6840
:102BF000342B03D17B685B68042B02D06FF0800319
:102C000028E0FB681B68BB62BB6A1B697B627B6850
:102C10001B683B62FB6808331B68FB61FB68083379
:102C20005B68BB61BB6A1A693B6A1A6007F11403EF
:102C30001A46796A0520FEF713FAF862FB6A002B40
:102C400001D0FB6A06E07B69BA69F969184618F099
:102C5000DFFB034618463037BD4680BD80B58EB0D9
:102C600002AFF860B9607A603B600023FB6200232A
:102C70007B6101230193012300933B680122012121
:102C8000B868FFF787FC034683F00103DBB2002B33
:102C900002D06FF0800331E0FB685B68342B03D116
:102CA0007B685B68042B02D06FF0800326E0FB6832
:102CB0001B68BB62BB6A1B697B627B681B683B62EB
:102CC000BB6A9B69FB61BB6ADB69BB61BB6A1A6952
:102CD0003B6A1A6007F114031A46796A0520FEF769
:102CE000BFF9F862FB6A002B01D0FB6A06E07B6942
:102CF000BA69F969184618F0C9FB03461846303717
:102D0000BD4680BD80B590B002AFF860B9607A6012
:102D10003B6000237B6300237B610223019301233B
:102D200000933B6802220121B868FFF733FC034699
:102D300083F00103DBB2002B02D06FF0800341E08F
:102D4000FB685B68342B03D17B685B68042B02D083
:102D50006FF0800336E0FB681B683B633B6B1B69CD
:102D6000FB627B681B68BB62FB6808331B687B6285
:102D7000FB6808335B683B627B6808331B68FB6158
:102D80007B6808335B68BB613B6B1A69BB6A1A607E
:102D900007F114031A46F96A0520FEF761F9786312
:102DA0007B6B002B01D07B6B0CE078697B68083370
:102DB00004330193BB690093FB693A6A796A18F09E
:102DC000DFFB034618463837BD4680BD80B58EB060
:102DD00002AFF860B9607A603B600023FB620023B9
:102DE0007B6101230193012300933B6802220121AF
:102DF000B868FFF7CFFB034683F00103DBB2002B7B
:102E000002D06FF0800333E0FB685B68342B03D1A2
:102E10007B685B68042B02D06FF0800328E0FB68BE
:102E20001B68BB62BB6A1B697B627B681B683B6279
:102E3000FB6808331B68FB61FB6808335B68BB6198
:102E4000BB6A1A693B6A1A6007F114031A46796A69
:102E50000520FEF705F9F862FB6A002B01D0FB6A3A
:102E600006E07B69BA69F969184618F049FB034620
:102E700018463037BD4680BD80B590B002AFF860CF
:102E8000B9607A603B6000237B6300237B6102238F
:102E90000193012300933B6802220221B868FFF7E7
:102EA00079FB034683F00103DBB2002B02D06FF005
:102EB000800349E0FB685B68342B03D17B685B6867
:102EC000042B02D06FF080033EE0FB681B683B637D
:102ED0003B6B1B69FB627B681B68BB62FB6808334A
:102EE0001B687B62FB6808335B683B627B68083366
:102EF0001B68FB617B6808335B68BB613B6B1A69CD
:102F0000BB6A1A6007F114031A46F96A0520FEF736
:102F1000A7F878637B6B002B01D07B6B14E078699A
:102F20007B6808331A1D3B6A01937B6A0093134642
:102F3000BA69F96918F0C0FB78637B6B002B02D18A
:102F4000B86AFEF729F87B6B18463837BD4680BD56
:102F500080B483B000AF78607B681B8818460C375C
:102F6000BD465DF8047B704780B483B000AF7860E5
:102F70007B685B8818460C37BD465DF8047B70475C
:102F800080B485B000AFF860B9607A603B60FA68E1
:102F9000BB689A420DD3FA687B689A4209D83A68AE
:102FA000BB699A4205D33A68FB699A4201D801236A
:102FB00000E0002318461437BD465DF8047B7047D7
:102FC00080B592B004AFF860B9607A603B600123CD
:102FD0000193002300933B6802220121B868FFF7A8
:102FE000CFFF034683F00103DBB2002B02D06FF06A
:102FF00080033AE0FB685B68342B02D06FF08003FB
:1030000033E0FB681B687B637B6B9B683B637B6B7C
:10301000DB68FB62FB6808331B68BB62FB68083334
:103020005B687B627B681B683B627B685B68FB61FB
:1030300007F110031946386BFFF782FAB861BB69D4
:10304000002B01D0BB6910E07B6804330393FB695C
:1030500002933B6A01937B6A0093BB6AFA6A07F1A9
:10306000100103C917F03EFC034618463837BD4629
:1030700080BD80B592B004AFF860B9607A603B6003
:1030800000230193002300933B6803220121B868C9
:10309000FFF776FF034683F00103DBB2002B02D07B
:1030A0006FF0800339E0FB685B68342B02D06FF06F
:1030B000800332E0FB681B687B637B6B9B683B6330
:1030C0007B6BDB68FB62FB6808331B68BB62FB68D9
:1030D00008335B687B62FB6810331B683B62FB68EC
:1030E00010335B68FB6107F110031946386BFFF77B
:1030F00027FAB861BB69002B01D0BB690DE0FB6901
:1031000002933B6A01937B6A0093BB6AFA6A07F1F8
:10311000100103C917F046FC034618463837BD4670
:1031200080BD80B592B004AFF860B9607A603B6052
:1031300001230193002300933B6802220121B86818
:10314000FFF71EFF034683F00103DBB2002B02D022
:103150006FF080033AE0FB685B68342B02D06FF0BD
:10316000800333E0FB681B687B637B6B9B683B637E
:103170007B6BDB68FB62FB6808331B68BB62FB6828
:1031800008335B687B627B681B683B627B685B68BB
:10319000FB6107F110031946386BFFF7D1F9B861ED
:1031A000BB69002B01D0BB6910E07B68043303933B
:1031B000FB6902933B6A01937B6A0093BB6AFA6ADC
:1031C00007F1100103C917F057FC034618463837BA
:1031D000BD4680BD80B592B004AFF860B9607A603A
:1031E0003B6000230193002300933B6803220121ED
:1031F000B868FFF7C5FE034683F00103DBB2002B7E
:1032000002D06FF0800339E0FB685B68342B02D09A
:103210006FF0800332E0FB681B687B637B6B9B680D
:103220003B637B6BDB68FB62FB6808331B68BB623C
:10323000FB6808335B687B62FB6810331B683B628A
:10324000FB6810335B68FB6107F110031946386BAC
:10325000FFF776F9B861BB69002B01D0BB690DE0BF
:10326000FB6902933B6A01937B6A0093BB6AFA6A2B
:1032700007F1100103C917F06BFC034618463837F5
:10328000BD4680BD80B5A4B006AFF860B9607A6075
:103290003B6001230193002300933B68032201213B
:1032A000B868FFF76DFE034683F00103DBB2002B25
:1032B00002D06FF0800382E0FB685B68342B02D0A1
:1032C0006FF080037BE0FB681B687B677B6F9B680C
:1032D0003B677B6FDB68FB66FB6808331B68BB667C
:1032E000FB6808335B687B66FB6810331B683B66D2
:1032F000FB6810335B68FB657B681B68BB657B689C
:103300005B687B6507F1200328220021184613F033
:10331000DDFB07F110031946386FFFF711F9386527
:103320003B6D002B01D03B6D49E007F120031A46AD
:1033300007F1100393E8030016F038FC38653B6D85
:10334000002B01D03B6D3AE007F120031846FFF750
:103350000BFEF86407F120031846FFF7F9FD03465A
:10336000A7F84A3007F12003184619F08DFAB7F88C
:103370004A3023F4405344F20102934203D1FB6CE0
:103380000733DB0800E000237A6D934202D96FF027
:10339000890314E07B68043305937B6D0493BB6D54
:1033A0000393FB6D02933B6E01937B6E0093BB6EA8
:1033B000FA6E07F1100103C917F0E0FB0346184647
:1033C0007837BD4680BD80B596B006AFF860B9606D
:1033D0007A603B6001230193002300933B68032242
:1033E0000121B868FFF7CCFD034683F00103DBB28F
:1033F000002B02D06FF0800346E0FB685B68342B43
:1034000002D06FF080033FE0FB681B68FB63FB6B3F
:103410009B68BB63FB6BDB687B63FB6808331B68E3
:103420003B63FB6808335B68FB62FB6810331B6817
:10343000BB62FB6810335B687B627B681B683B6226
:103440007B685B68FB6107F110031946B86BFFF7F7
:1034500077F8B861BB69002B01D0BB6914E07B68C9
:1034600004330593FB6904933B6A03937B6A0293DD
:10347000BB6A0193FB6A00933B6B7A6B07F1100107
:1034800003C917F031FC034618464037BD4680BDDE
:1034900080B483B000AF78607B685B8818460C37D7
:1034A000BD465DF8047B704780B485B000AFF8601E
:1034B000B9607A603B60FA68BB689A420DD3FA68DB
:1034C0007B689A4209D83A68BB699A4205D33A6840
:1034D000FB699A4201D8012300E000231846143703
:1034E000BD465DF8047B704780B483B000AF786060
:1034F00039607B68044A1A60002318460C37BD46C1
:103500005DF8047B704700BF000F00B080B58EB03F
:1035100000AFF8607A603B600B467B817B8940F2AC
:103520000122934202D06FF086033CE007F11403BE
:103530001846FDF710FC78637B6B002B01D07B6B8A
:1035400031E0FB6810333B633B68043319460120CC
:1035500014F0F6FC02463B6B5A613B6B5B69002B37
:1035600002D16FF08C031EE03B6B5B693B6207F19D
:103570001403FB610423BB61BA69F969386A13F06B
:103580001DFB3B6B5B690433FB627B68BB623B6882
:103590007B627A6AB96AF86A13F010FB3B681A1DFD
:1035A0003B6B9A61002318463837BD4680BD80B515
:1035B0008AB002AFF860B9607A60F868FFF768FF18
:1035C00003460733DB08FB61BB681033BB61FB6953
:1035D000402B02D96FF08C031CE0BB695869BB69B2
:1035E0009969BB695C33FA69019200930023002258
:1035F0000BF085F878617B69002B02D06FF09203A5
:1036000008E0BB6903F15C017B68FA69F86816F0B1
:1036100069FC034618462037BD4680BD80B58AB098
:1036200000AF78607B6810337B627B6A5B69002B3C
:1036300011D07B6A5A697B6A9B693A620022FA61FF
:10364000BB61BA69F969386A13F040FA7B6A5B6951
:10365000184614F07BFC7B687B6100233B614FF4D0
:103660000873FB60FA683969786913F02FFA002350
:1036700018462837BD4680BD80B58CB002AFF860D3
:10368000B9607A603B6000237B6200237B61012389
:103690000193012300933B6801220121B868FFF7E1
:1036A00003FF034683F00103DBB2002B02D06FF06F
:1036B000800341E07B685B68042B03D1FB685B6897
:1036C000342B02D06FF0800336E0FB681B683B624E
:1036D0003B6A1B693B617B681B68FB613B6ADB687B
:1036E000BB6107F1140207F1100319460420FDF72E
:1036F000C5FB78627B6A002B01D07B6A1CE03A69CB
:10370000FB691A60BB690E4A934206D17B69B969AD
:103710001846FFF7E9FE786205E07B69B96918464B
:1037200018F078FC78627B6A002B04D0F869FDF70A
:1037300033FC7B6A00E07B6A18462837BD4680BDB3
:10374000000F00B080B58CB002AFF860B9607A604D
:103750003B6001230193012300933B680122012177
:10376000B868FFF7A1FE034683F00103DBB2002B2C
:1037700002D06FF080032BE0FB685B68342B03D131
:103780007B685B68042B02D06FF0800320E0FB684D
:103790001B687B627B6A1B693B627B681B68FB6101
:1037A00000237B6107F114031A46396A0420FDF7F0
:1037B00057FCB861BB69002B04D0FB6900221A607A
:1037C000BB6905E07B69F969184618F061F90346A1
:1037D00018462837BD4680BD80B58CB002AFF86072
:1037E000B9607A603B6000230193002300933B683B
:1037F00001220121B868FFF757FE034683F0010359
:10380000DBB2002B02D06FF0800324E0FB685B6822
:10381000342B02D06FF080031DE0FB681B687B62D5
:103820007B6A1B693B627B6A5B69FB6100237B618E
:1038300007F114031A46396A0420FDF711FCB86138
:10384000BB69002B01D0BB6905E07B69F9691846AB
:1038500018F028F9034618462837BD4680BD0000F9
:1038600080B58EB002AFF860B9607A603B6000232B
:103870000193002300933B6802220121B868FFF7FF
:1038800013FE034683F00103DBB2002B02D06FF07E
:1038900080033AE0FB685B68342B02D06FF0800352
:1038A00033E0FB681B68FB62FB6A1B69BB62FB6A57
:1038B0009B88FB84FB6808331B683B62FB6808330A
:1038C0005B68FB6100237B6107F114031A46B96A48
:1038D0000420FDF7C5FBB861BB69002B01D0BB69B3
:1038E00013E07B691B680B4A934207D17869F98C16
:1038F000FB693A6AFFF70AFE034606E07869F98C2D
:10390000FB693A6A18F0A6FB034618463037BD46F5
:1039100080BD00BF000F00B080B58CB002AFF86072
:10392000B9607A603B6001230193002300933B68F8
:1039300001220121B868FFF7B7FD034683F00103B8
:10394000DBB2002B02D06FF0800328E0FB685B68DD
:10395000342B02D06FF0800321E0FB681B687B6290
:103960007B6A1B693B627B681B68FB617B685B68E9
:10397000BB6100233B6107F110031A46396A04203A
:10398000FDF76EFB78617B69002B01D07B6906E057
:103990003B69BA69F969184618F094F80346184665
:1039A0002837BD4680BD80B58EB002AFF860B960E3
:1039B0007A603B6000230193002300933B6801225F
:1039C0000121B868FFF770FD034683F00103DBB205
:1039D000002B02D06FF0800335E0FB685B68342B6E
:1039E00002D06FF080032EE0FB681B68FB62FB6A6D
:1039F0001B69BB62FB6A9B687B62FB6A9B887B845A
:103A00000023BB6107F118031A46B96A0420FDF7C9
:103A100027FBF861FB69002B01D0FB6913E007F17C
:103A200010031946786AFEF78BFDF861FB69002BDD
:103A300001D0FB6907E0B869798C07F110030CCB62
:103A400018F014FB034618463037BD4680BD000011
:103A500080B59CB002AFF860B9607A603B6001232A
:103A60000193012300933B6802220221B868FFF70B
:103A70001BFD034683F00103DBB2002B02D06FF085
:103A8000800366E0FB685B68342B08D1FB68083371
:103A90005B68142B03D17B685B68042B02D06FF04A
:103AA000800356E0FB681B683B663B6E1B69FB6549
:103AB000FB6808331B68BB6500233B657B681B689C
:103AC0007B6507F1280328220021184612F0FEFF2B
:103AD00007F150031A46F96D0420FDF7C1FA786624
:103AE0007B6E002B01D07B6E33E007F11C03184680
:103AF000FDF731F978667B6E002B01D07B6E28E0F4
:103B0000FB6907F128021946B86DFEF799FC786643
:103B10007B6E002B01D07B6E1BE03B6D1B680F4A58
:103B2000934209D1396D07F1140207F128031846B1
:103B3000FFF73DFD786608E0396D07F1140207F1E3
:103B40002803184618F08AF978667A697B6D1A603E
:103B50007B6E18466837BD4680BD00BF000F00B0C1
:103B600080B58CB002AFF860B9607A603B60012329
:103B70000193012300933B6801220121B868FFF7FC
:103B800093FC034683F00103DBB2002B02D06FF0FD
:103B9000800346E0FB685B68342B03D17B685B687D
:103BA000042B02D06FF080033BE0FB681B683B6294
:103BB0003B6A1B69FB617B681B68BB6100237B61FF
:103BC0003B6A1A69BB691A6007F114031A46F9695E
:103BD0000420FDF745FA78627B6A002B01D00023B0
:103BE0001FE0BB69FA691A607B691B680F4A934240
:103BF00005D17B691846FFF711FD786204E07B6907
:103C0000184617F0A1FD78627B6A002B04D0B869D2
:103C1000FDF7C2F97B6A04E0B869FDF7BDF9786287
:103C20007B6A18462837BD4680BD00BF000F00B034
:103C300080B590B002AFF860B9607A603B60002355
:103C40000193002300933B6802220121B868FFF72B
:103C50002BFC034683F00103DBB2002B02D06FF094
:103C6000800341E0FB685B68342B02D06FF0800377
:103C70003AE0FB681B687B637B6B1B693B637B6B78
:103C80009B68FB62FB6808331B68BB62FB680833F8
:103C90005B687B620023BB617B6B9B887B8407F145
:103CA00018031A46396B0420FDF7DAF9F861FB694D
:103CB000002B01D0FB6917E007F110031946F86AE1
:103CC000FEF73EFCF861FB69002B01D0FB690BE0BD
:103CD000B869798C7B6A0193BB6A009307F1100382
:103CE0000CCB18F001FA034618463837BD4680BDA4
:103CF00080B592B004AFF860B9607A603B60012390
:103D00000193002300933B6802220121B868FFF76A
:103D1000CBFB034683F00103DBB2002B02D06FF034
:103D200080033AE0FB685B68342B02D06FF08003BD
:103D300033E0FB681B687B637B681B683B637B68C5
:103D40005B68FB627B6BDB68BB627B6B9B687B6247
:103D5000FB6808331B683B62FB6808335B68FB61E8
:103D600007F110031946786AFEF7EAFBB861BB69F0
:103D7000002B01D0BB6910E07B6804330393FB6A1E
:103D800002933B6B0193FB6900933B6A07F11002BE
:103D900006CAB86A18F0B2FB034618463837BD4663
:103DA00080BD80B487B000AFF860B9607A60FB680E
:103DB0007A681A60FB68BA685A60F8681C37BD46B2
:103DC0005DF8047B704780B485B000AFF860B960DF
:103DD0007A603B60FA68BB689A420DD3FA687B68E8
:103DE0009A4209D83A68BB699A4205D33A68FB6996
:103DF0009A4201D8012300E0002318461437BD463B
:103E00005DF8047B704780B59AB002AFF860B96086
:103E10007A603B6001230193012300933B680322F6
:103E20000221B868FFF7CFFF034683F00103DBB23E
:103E3000002B02D06FF080034CE0FB685B68342BF2
:103E400008D1FB6808335B68142B03D17B685B687F
:103E5000042B02D06FF080033CE0FB6808331B6842
:103E6000FB65FB6810331B68BB65FB6810335B6840
:103E70007B657B681B683B6507F1240328220021D2
:103E8000184612F023FE00233B6107F11003184689
:103E9000FCF761FFF864FB6C002B01D0FB6C19E0B0
:103EA0003B6907F124021946F86DFEF7C9FAF86478
:103EB000FB6C002B01D0FB6C0CE007F1140307F145
:103EC00024007A6DB96D16F00DF8F8647A693B6DCF
:103ED0001A60FB6C18466037BD4680BD80B58EB059
:103EE00002AF78613961FA60BB600123019301235D
:103EF0000093BB68022202213869FFF764FF034682
:103F000083F00103DBB2002B02D06FF0800344E0AA
:103F10007B695B68342B08D17B6908335B68042BB1
:103F200003D1FB685B68042B02D06FF0800334E0A0
:103F30007B6908331B681B68FB62FB681B68BB62FC
:103F40000023BB6107F118031846FCF704FF7862F1
:103F50007B6A002B01D07B6A1FE0B9693B46FA6A95
:103F60001846FFF71EFF07F11C033A4692E80300CC
:103F700083E8030007F11C031A4607F11C0393E8CA
:103F800003001AF0E5F978627B6A002B01D07B6AA6
:103F900003E0FA69BB6A1A607B6A18463037BD468F
:103FA00080BD80B58CB002AFF860B9607A603B60CC
:103FB00000230193002300933B6801220121B8688C
:103FC000FFF701FF034683F00103DBB2002B02D0B1
:103FD0006FF0800327E0FB685B68342B02D06FF042
:103FE000800320E0FB681B687B627B6A9B683B6206
:103FF00000233B6107F110031846FCF7ACFEF861A3
:10400000FB69002B01D0FB690DE0396907F114034E
:104010003A6A1846FFF7C5FE07F1140393E8030058
:104020001AF0BEF9034618462837BD4680BD80B554
:104030008CB002AFF860B9607A603B6000230193F6
:10404000002300933B6801220121B868FFF7BBFE03
:10405000034683F00103DBB2002B02D06FF0800334
:1040600027E0FB685B68342B02D06FF0800320E010
:10407000FB681B687B627B6A9B683B6200233B6139
:1040800007F110031846FCF766FEF861FB69002B88
:1040900001D0FB690DE0396907F114033A6A18464B
:1040A000FFF77FFE07F1140393E8030015F038FDD6
:1040B000034618462837BD4680BD80B59AB002AF8A
:1040C000F860B9607A603B6001230193012300939B
:1040D0003B6801220121B868FFF775FE034683F0B3
:1040E0000103DBB2002B02D06FF0800343E0FB68DA
:1040F0005B68342B03D17B685B68142B02D06FF0B4
:10410000800338E0FB681B68BB65BB6D9B687B6503
:104110007B681B683B6507F12803282200211846AD
:1041200012F0D4FC00237B6107F114031846FCF75E
:1041300012FEF865FB6D002B01D0FB6D1BE0796969
:1041400007F118037A6D1846FFF72BFE07F12803D5
:104150001A4607F1180393E8030015F027FDF865E8
:10416000FB6D002B06D107F12803396D1846FEF7C9
:10417000A7F9F865FB6D18466037BD4680BD80B570
:1041800096B002AFF860B9607A603B60012301939A
:10419000012300933B6801220121B868FFF713FE59
:1041A000034683F00103DBB2002B02D06FF08003E3
:1041B00038E0FB685B68342B03D17B685B68142BA9
:1041C00002D06FF080032DE07B681B68FB6407F171
:1041D000200328220021184612F078FC07F114036E
:1041E0001846FCF7B8FDB864BB6C002B01D0BB6C63
:1041F00018E07B6907F120021946F86CFEF720F9F8
:10420000B864BB6C002B01D0BB6C0BE007F1200342
:10421000184618F039FB07F12003F96C1846FEF731
:104220004FF9034618465037BD4680BD80B58EB065
:1042300002AFF860B9607A603B600123019300230C
:1042400000933B6801220121B868FFF7BCFD0346DB
:1042500083F00103DBB2002B02D06FF0800331E06A
:10426000FB685B68342B02D06FF080032AE0FB68A8
:104270001B68FB62FB6A9B68BB627B681B687B6296
:104280007B685B683B6200233B6107F110031846C3
:10429000FCF761FDF861FB69002B01D0FB6911E0BF
:1042A000396907F11403BA6A1846FFF77AFD7B688B
:1042B000043300933B6A7A6A07F1140103C915F0CD
:1042C00037FD034618463037BD4680BD80B58EB0F9
:1042D00002AFF860B9607A603B600123019300236C
:1042E00000933B6801220121B868FFF76CFD03468B
:1042F00083F00103DBB2002B02D06FF0800331E0CA
:10430000FB685B68342B02D06FF080032AE0FB6807
:104310001B68FB62FB6A9B68BB627B681B687B62F5
:104320007B685B683B6200233B6107F11003184622
:10433000FCF711FDF861FB69002B01D0FB6911E06E
:10434000396907F11403BA6A1846FFF72AFD7B683A
:10435000043300933B6A7A6A07F1140103C915F02C
:104360007BFD034618463037BD4680BD80B58CB016
:1043700002AFF860B9607A603B60002301930023CC
:1043800000933B6801220121B868FFF71CFD03463A
:1043900083F00103DBB2002B02D06FF0800327E033
:1043A000FB685B68342B02D06FF0800320E0FB6871
:1043B0001B687B627B6A9B683B6200233B6107F161
:1043C00010031846FCF7C7FCF861FB69002B01D00D
:1043D000FB690DE0396907F114033A6A1846FFF7E3
:1043E000E0FC07F1140393E8030019F0FDFF034616
:1043F00018462837BD4680BD80B59CB002AFF86036
:10440000B9607A603B6001230193012300933B680C
:1044100002220221B868FFF7D6FC034683F00103AD
:10442000DBB2002B02D06FF0800357E0FB685B68C3
:10443000342B08D17B685B68042B04D1FB680833FC
:104440005B68142B02D06FF0800347E0FB681B68A9
:104450007B667B6E9B683B667B681B68FB65FB68C5
:1044600008331B68BB6507F12C032822002118467E
:1044700012F02CFB00233B6207F120031846FCF7E7
:104480006AFC78657B6D002B01D07B6D26E03B6A72
:1044900007F12C021946B86DFDF7D2FF78657B6DE8
:1044A000002B01D07B6D19E0396A07F110033A6ED9
:1044B0001846FFF776FC07F1180307F12C0207F105
:1044C000100103C915F0C6FD78657B6D002B01D086
:1044D0007B6D03E0BA69FB6D1A607B6D1846683727
:1044E000BD4680BD80B598B002AFF860B9607A6013
:1044F0003B6001230193012300933B6802220221C8
:10450000B868FFF760FC034683F00103DBB2002BC1
:1045100002D06FF0800349E0FB685B68342B08D160
:10452000FB6808335B68142B03D17B685B68042B42
:1045300002D06FF0800339E07B681B687B65FB6805
:1045400008331B683B6507F1240328220021184625
:1045500012F0BCFA0023BB6107F118031846FCF700
:10456000FAFBF864FB6C002B01D0FB6C1EE0BB690E
:1045700007F124021946386DFDF762FFF864FB6C01
:10458000002B01D0FB6C11E007F1100207F12403AE
:104590001146184618F050F8F864FB6C002B01D057
:1045A000FB6C03E03A697B6D1A60FB6C1846583768
:1045B000BD4680BD80B485B000AFF860B9607A6058
:1045C0003B60FA68BB689A420DD3FA687B689A42EE
:1045D00009D83A68BB699A4205D33A68FB699A429E
:1045E00001D8012300E0002318461437BD465DF8CA
:1045F000047B704780B588B002AFF860B9607A601C
:104600003B6001230193002300933B6801220121B9
:10461000B868FFF7CFFF034683F00103DBB2002B3E
:1046200002D06FF0800311E0FB685B68342B02D08E
:104630006FF080030AE07B681B687B617B685B68C6
:104640003B613969786917F0B5FD0346184618379C
:10465000BD4680BD80B5ADF52E7D00AF07F52E734C
:10466000A3F52D7318600023C7F8B4320023C7F8F0
:10467000B03207F52E73A3F52D731B681B69C7F8BD
:10468000AC3207F52E73A3F52D731B681B6AC7F8B0
:10469000A83207F52E73A3F52A7307F51A721A606C
:1046A00007F52E73A3F52A73D7F8AC225A6007F5E5
:1046B0002E73A3F52C7307F118021A6007F52E73F9
:1046C000A3F52C734FF414725A60D7F8AC32402B18
:1046D00002D96FF086034EE0D7F8A832B3F5147F05
:1046E00006D207F52E73A3F52C73D7F8A8225A60CB
:1046F00007F52E73A3F52D731B689B68204A136082
:1047000007F52E73A3F52D731B68586807F51A7209
:10471000D7F8AC32002131F0B7F8C7F8B002D7F8BB
:10472000B022D7F8AC329A4202D06FF0830322E075
:1047300007F1080207F110000123012100F04AFDF2
:10474000C7F8B402D7F8B432002B12D107F52E7394
:10475000A3F52D731B68586807F52E73A3F52C730A
:104760001A6807F52E73A3F52C735B68002131F0EE
:1047700097F8D7F8B432184607F52E77BD4680BDB6
:10478000A898003080B58AB000AF786000237B62C3
:1047900000233B6207F11C033B617B681B697B6163
:1047A00007F11803BB607B681B6AFB607B681B69B1
:1047B000042B03D17B681B6A042B02D06FF08603A5
:1047C00027E07B689B68154A13607B6858687B68A4
:1047D0001B6907F11C02002131F056F838623B6A70
:1047E000042B02D06FF0860313E007F1080207F1F3
:1047F00010000123012100F02FFD78627B6A002B5D
:1048000006D17B685868BA68FB68002131F048F827
:104810007B6A18462837BD4680BD00BFA898003087
:1048200080B582B000AF78607B681B6840F2E932E7
:10483000934204D040F2EA32934205D009E078680E
:10484000FFF708FF034606E07868FFF79BFF034683
:1048500001E06FF0850318460837BD4680BD80B57E
:1048600000AF00F06FF80346184680BD80B582B0F7
:1048700000AF7860042178682CF085FF00BF08370E
:10488000BD4680BD80B584B000AFF860C7E90023A5
:10489000D7E90023F8682CF0FEFEF868FFF7E6FF82
:1048A00000BF1037BD4680BD80B582B000AF7860D4
:1048B0000022042178682CF095FF00BF0837BD4620
:1048C00080BD80B584B000AFF8603B1D83E8060072
:1048D0003B1D0CCB0921F8682CF00DFF00BF1037F1
:1048E000BD4680BD80B483B000AF78607B68052B87
:1048F0001FD801A252F823F01149001115490011E7
:104900001B49001121490011274900112D490011AF
:10491000002310E06FF08F030DE06FF089030AE0D1
:104920006FF0830307E06FF0860304E06FF083030A
:1049300001E06FF0830318460C37BD465DF8047B39
:10494000704700BF80B582B000AF4FF400720649D7
:10495000012001F0E3FE78607868FFF7C3FF0346AB
:1049600018460837BD4680BDAC98003080B483B08F
:1049700000AF0346FB71FB79002B02D0012B02D064
:1049800003E0002302E0022300E0052318460C3771
:10499000BD465DF8047B704780B58CB000AFF86011
:1049A000B9607A60BB68042B20D0BB68042B29D87F
:1049B000BB68012B03D0BB68022B06D022E0FB684A
:1049C0001B781A467B681A601FE007F11603FB622A
:1049D000FB68BB6202237B627A6AB96AF86A12F0EA
:1049E000EDF8FB8A1A467B681A600EE07B683B6232
:1049F000FB68FB610423BB61BA69F969386A12F08C
:104A0000DDF802E04FF0FF3300E0002318463037B6
:104A1000BD4680BD80B58EB000AFB9607A603B60A6
:104A20000346FB732C4B1B8842F21602934202D0C2
:104A30004FF0FF334CE0284B5B881A46264B13445B
:104A40003B633B681B68002B02D1244B7B633AE03D
:104A50003B681B6807F11402FA62BB6204237B62A5
:104A60007A6AB96AF86A12F0A9F83B681A68FB8A90
:104A7000043313447B6326E007F114033B627B6B32
:104A8000FB610423BB61BA69F969386A12F096F8D0
:104A9000BB8A9B1103F03F02FB7B9A420ED1BB8A7B
:104AA000DBB203F03F03DAB2BB681A703B687A6B83
:104AB0001A60FA8A7B681A80012309E0FB8A0433B2
:104AC0007A6B13447B637A6B3B6B9A42D4D300239B
:104AD00018463837BD4680BDAC980030B0980030DD
:104AE00080B588B000AF0346B9607A60FB730023DD
:104AF000FB777B6800221A6007F11701F87F7B685B
:104B0000BA68FFF787FFB861BB69012B07D1FB7D4E
:104B1000FA7B9A4205D0BB69012BEDD002E000BFC1
:104B200000E000BFBB6918462037BD4680BD0000CD
:104B300080B58EB000AF786000237B63002387F8D8
:104B400033300023FB6200237B610023BB61786864
:104B500000F0DCFEF862002387F8333032E00023F7
:104B60003B6207F1200307F1260207F11F0197F8C6
:104B70003300FFF74FFFB862BB6AB3F1FF3F01D1CB
:104B8000032333E0BB6A012B17D17B6B01337B63BB
:104B90007B6B012B05D1174A4FF0FF33F86AFFF703
:104BA00071FE3B6A04337B61FB8CBB6107F114032C
:104BB00093E80600F86AFFF784FE97F83330013374
:104BC00087F8333097F83330062BC8D97B6B002B2E
:104BD00003D0F86AFFF768FE07E04FF001024FF0DC
:104BE00000030549786800F09CFE0023184638371A
:104BF000BD4680BD02DBFEFF01DBFEFF80B590B04D
:104C000000AF786007F1100300221A605A60002399
:104C1000BB600023FB6307F1080207F10E0319468E
:104C20000020FFF75DFFF863FB6B012B05D1BB682C
:104C300004333B61FB897B6110E007F118031946DF
:104C4000202009F011FBB863BB6B002B01D00323BC
:104C50000CE007F118033B6120237B6107F110038F
:104C60001A460449786800F075FE0023184640375C
:104C7000BD4680BD04DBFEFF80B586B000AF786026
:104C800007F10C03184600F09BFC78617B69002B50
:104C900001D07B6907E007F10C031A4604497868E4
:104CA00000F058FE002318461837BD4680BD00BFEF
:104CB000FFDAFEFF80B58EB000AF786020233B6145
:104CC00007F1140207F110031146184609F0E1FA42
:104CD00078637B6B002B01D003230CE007F11403F6
:104CE000BB603B69FB6007F108031A46044978681A
:104CF00000F030FE002318463837BD4680BD00BFA7
:104D000005DBFEFFB0B584B000AF786007F10803A3
:104D1000184601F0EFFCF860FB68002B01D0FB683F
:104D20000AE0BB68DA171C46154622462B460449A2
:104D3000786800F0F6FD002318461037BD46B0BD78
:104D400007DBFEFFB0B58AB000AF786007F1100353
:104D500000221A605A600023BB6000233B6207F107
:104D6000080207F10E0319460220FFF7B9FE386268
:104D70003B6A012B14D1BB6804333B61FB897B6127
:104D80003B69796907F118021846FFF705FEF861DB
:104D9000FB69002B01D0052310E0BB697B6202E0B8
:104DA00009F0F4F978627B6A00221C461546224617
:104DB0002B460449786800F0B4FD002318462837D4
:104DC000BD46B0BD06DBFEFF80B582B000AF7860A7
:104DD00039603A680449786800F0BCFD0023184641
:104DE0000837BD4680BD00BF00DBFEFF80B58EB03A
:104DF00000AF78602023BB6007F10C0207F10803C5
:104E00001146184609F0DAF978637B6B002B01D064
:104E100005230CE007F10C03FB62BB683B6307F161
:104E20002C031A460449786800F0AEFD00231846AA
:104E30003837BD4680BD00BFFEDAFEFF80B58EB0BC
:104E400000AF78602023BB6007F10C0207F1080374
:104E50001146184609F0DDF978637B6B002B01D011
:104E600005230CE007F10C03FB62BB683B6307F111
:104E70002C031A460449786800F086FD0023184682
:104E80003837BD4680BD00BF08DBFEFF80B58EB061
:104E900000AF78601223BB6107F1100300221A6093
:104EA0005A600023BB6000237B6307F1080207F10F
:104EB0000E0319460120FFF713FE78637B6B012B6D
:104EC00005D1BB6804333B61FB897B6112E007F1CC
:104ED0001C0207F118031146184609F000FA38635E
:104EE0003B6B002B01D003230CE007F11C033B615B
:104EF000BB697B6107F110031A460449786800F02A
:104F000043FD002318463837BD4680BD03DBFEFF56
:104F100080B483B000AF78607B68402B08D07B689A
:104F2000402B07D87B68202B02D07B68302B01D127
:104F3000002300E0042318460C37BD465DF8047BCF
:104F4000704780B58CB000AFF860B9607A6001231B
:104F5000FB6204237B62FB685B68402B1ED1FB680D
:104F60001B68002B1AD0FB681A68FB685B68134447
:104F70003B62FB681A687B6A1344BB6209E0BB6A48
:104F80005A1CBA621B78002B03D00023FB6200BFBF
:104F900006E0BA6A3B6A9A42F1D301E00023FB6261
:104FA000FB6A002B12D0FB681B68BA68FA61BB6110
:104FB0007B6A7B617A69B969F86911F0FFFDBB68AA
:104FC0001B6803F007027B681A6005E0BB680022DB
:104FD0001A607B6800221A6000BF3037BD4680BD72
:104FE00080B5C4B002AFF86007F58473A3F5807391
:104FF000196007F58473A3F582731A600023C7F85C
:10500000043100237B6100233B6100F0DDF9C7F828
:105010000401D7F80431002B40F0B38007F11402EB
:1050200007F110031946F868FFF78BFF39697A69B1
:1050300007F1180007F58473A3F580731B680093CC
:105040006FF0060300F0ABFB034687F8033197F8D7
:105050000331002B07D097F803311846FFF786FC81
:10506000C7F80401A4E007F11803F9681846FFF730
:10507000ABFEC7F80401D7F80431002B40F0838061
:105080003B6903F08043002B62D107F118031846F7
:10509000FFF7B4FDC7F80401D7F80431002B74D131
:1050A00007F118031846FFF7E7FDC7F80401D7F822
:1050B0000431002B6BD107F118031846FFF7FAFDF6
:1050C000C7F80401D7F80431002B62D107F11803A7
:1050D0001846FFF717FEC7F80401D7F80431002B74
:1050E00059D107F118031846FFF72CFEC7F8040141
:1050F000D7F80431002B50D107F118031846FFF7F9
:1051000017FDC7F80401D7F80431002B47D107F188
:1051100018031846FFF76AFEC7F80401D7F80431F0
:10512000002B3ED107F118031846FFF787FEC7F89A
:105130000401D7F80431002B35D107F118031846C4
:10514000FFF7A4FEC7F80401D7F80431002B2CD1D7
:1051500007F58473A3F5827307F1180219681046E6
:1051600000F094FB034687F8033197F80331002BD6
:105170001DD097F803311846FFF7F8FBC7F8040174
:1051800016E000BF14E000BF12E000BF10E000BF57
:105190000EE000BF0CE000BF0AE000BF08E000BF67
:1051A00006E000BF04E000BF02E000BF00E000BF77
:1051B000D7F80431002B04D100F082F9C7F80401BC
:1051C00001E000F07DF9D7F80431184607F584773F
:1051D000BD4680BD80B58CB000AFF860B9607A6024
:1051E0003B600023FB62FB681B687B62FB685B68BB
:1051F000BB627B681B68FB617B685B683B62BB6A68
:105200001846FFF785FEF862FB6A002B19D13B6A4E
:10521000002B02D10423FB6216E007F1140207F110
:105220001C0107F124031846FFF7DAFEF862FB6A57
:10523000002B08D17A697B681A60BA697B685A606A
:1052400002E000BF00E000BFF86AFFF74BFB034637
:1052500018463037BD4680BD80B58EB000AFF860CF
:10526000B9607A603B6000237B63FB681B681B6846
:105270003B637B681B68FB6200237B623B6BBB620A
:105280000023FB616FF000433B627B685B68032B8C
:1052900002D804237B631AE0386BFFF739FE78638A
:1052A0007B6B002B10D107F1140207F11C0107F1F1
:1052B00024031846FFF794FE78637B6B002B05D11F
:1052C000BA69FB6A1A6002E000BF00E000BF786BB9
:1052D000FFF708FB034618463837BD4680BD80B44B
:1052E00083B000AF00237B607B6818460C37BD4657
:1052F0005DF8047B7047B0B489B000AF786007F107
:105300000C0300221A605A609A60DA601A617B68A6
:105310001D4607F10C040FCC0FC523682B6078687D
:105320002437BD46B0BC704780B483B000AF78600E
:105330007B681B6803F48053002B05D07B681B68D7
:1053400043F480627B681A607B681B6803F4005337
:10535000002B05D07B681B6843F400627B681A60F1
:1053600000BF0C37BD465DF8047B704780B582B046
:1053700000AF786039603B461846FFF7D5FF3A68C2
:105380007B68DA6000BF0837BD4680BD80B483B05B
:1053900000AF786039607B683A681A6100BF0C37EB
:1053A000BD465DF8047B704780B483B000AF786081
:1053B0000B467B807B687A881A8000BF0C37BD461D
:1053C0005DF8047B7047000080B5A8B000AF07F11E
:1053D0007C0300221A605A609A60DA601A615A618E
:1053E0000023BB613B1D1846FFF785FF2F4B1B6851
:1053F000002B01D0052354E007F1970307F17C024D
:1054000007F11C00602109F0CFF9C7F89C00D7F81C
:105410009C30002B02D1FB6F002B01D1052340E013
:105420003B1D4FF480511846FFF7A0FF3B1D20495C
:105430001846FFF7ABFF97F897301BB243F4E243EF
:105440001BB29AB23B1D11461846FFF7ADFFF96F2C
:10545000D7F8802007F11803381D11F0B1FCC7F808
:105460009800D7F89830002B01D0052319E0BB69CC
:105470000E4A13600F4B1B68002B11D1B8690D4BFE
:1054800041220D4911F026FDC7F89800D7F8983051
:10549000002B01D0052304E097F89720074B1A70E2
:1054A00000231846A037BD4680BD00BFB09A00302B
:1054B00009060006F89A0030B49A0030FC9A0030D1
:1054C00080B582B000AF0C4B1B68002B01D10523C7
:1054D0000EE0094B1B68184611F0A8FC78607B6849
:1054E000002B01D0052303E0034B00221A600023A8
:1054F00018460837BD4680BDB09A003080B483B0EE
:1055000000AF7860084B1B68002B01D1052304E035
:10551000054B1A687B681A60002318460C37BD4695
:105520005DF8047B704700BFB09A003080B582B050
:1055300000AFFFF7D4FE03463B601B4B1B68002BFC
:1055400001D103232CE03B461849184611F0F4FC26
:1055500078607B68002B01D0032321E0124B1A688E
:105560003B461349184611F017FD78607B68002B05
:1055700001D0032314E00F4938460F4B202211F0CD
:105580003FFD78607B68002B01D0032308E00B4BC4
:1055900001221A70084B1B680133074A136000236D
:1055A00018460837BD4680BDF89A00300900000251
:1055B000B49A0030019B0030249B0030009B0030E7
:1055C00080B582B000AF78600D4B1B68002B06D110
:1055D000FFF7ACFF0346002B01D003230CE07B68F0
:1055E000002B01D1052307E07B68064A1A60044BB3
:1055F0001A687B685A60002318460837BD4680BD8C
:10560000249B0030009B003080B584B000AFF86070
:10561000C7E90023D7E90023F8682CF03CF8D7E964
:105620000623F8682CF037F800BF1037BD4680BD60
:1056300080B584B000AFF8603B1D83E806003B1DD9
:105640000CCB0321F8682CF056F800BF1037BD468C
:1056500080BD80B584B000AFF860C7E90023D7E90A
:105660000023F8682CF017F807F1180393E80600F8
:10567000F868FFF7DDFF00BF1037BD4680BD80B57D
:1056800084B000AFF8603B1D83E806003B1D0CCBE7
:105690000221F8682CF02FF800BF1037BD4680BDFE
:1056A00080B584B000AFF860C7E90023D7E90023D4
:1056B000F8682BF0F0FF07F1180393E80600F8688C
:1056C000FFF7DDFF00BF1037BD4680BD80B582B05B
:1056D00000AF7860052178682CF055F800BF0837D6
:1056E000BD4680BD80B582B000AF78600022052144
:1056F00078682CF077F800BF0837BD4680BD80B5CC
:1057000084B000AFF860B9607A6048220021F86880
:1057100011F0DCF9FB687A681A62FB68BA689A6370
:1057200000BF1037BD4680BD82B090B482B000AFDC
:10573000786007F1100181E80C007B683C3307F1C9
:10574000200292E8030083E803007B6803F1280449
:1057500007F110030FCB84E80F0000BF0837BD46E8
:1057600090BC02B0704780B483B000AF0346FB71B9
:10577000FB79192B0AD0192B0ADC002B02D0032B42
:1057800002D005E0002304E0042302E0012300E04E
:10579000032318460C37BD465DF8047B7047B0B54F
:1057A00096B004AFF860B9607A603B60002387F878
:1057B000473000233B640023FB6100233B62FB680E
:1057C000BA68C3F89820FB687A68C3F89C20BB6865
:1057D000002B03DA3B6C43F001033B64FB68A0330E
:1057E0003A68396C1846FFF78AFF07F12403184618
:1057F000FFF784FEF863FB6B002B01D00E2341E022
:10580000022387F828307B6A00221C461546C7E928
:105810000C45FB6803F1A00402AA07F11C0393E8FE
:10582000030082E803006A4607F1300393E80300AF
:1058300082E8030007F128030CCB2046FFF774FF32
:10584000F868BB6D93E806002BF06DFEFB68A03393
:10585000FA681146184600F0A6FA034687F83B306E
:1058600097F83B30002B07D097F83B301846FFF7EE
:105870007AFF034687F84730FB681846FFF726FF94
:1058800097F8473018464837BD46B0BD80B586B05A
:1058900000AF786039600023FB757B681846FFF71E
:1058A00021FF7B68A0337A681146184600F0F8FAA9
:1058B0000346BB75BB7D002B06D0BB7D1846FFF7AA
:1058C00052FF0346FB751CE07B6807F10C02114692
:1058D00018462CF000F803467B757B7D012B02D126
:1058E0000123FB750DE07B7D002B02D00223FB75AD
:1058F00007E03B681A4607F10C0393E8030082E8CF
:105900000300FB7D18461837BD4680BD80B483B0C8
:1059100000AF78607B6818460C37BD465DF8047BA5
:105920007047B0B586B002AFF860B960C7E9002330
:10593000F968BB68DA171C461546D7E90023CDE99C
:10594000002322462B460846FFF75EFE00BF1037B5
:10595000BD46B0BDF0B587B002AFF860B9607A60FF
:10596000FE68BB68DA171C4615467A686B4692E8F3
:10597000030083E8030022462B463046FFF790FEE3
:1059800000BF1437BD46F0BDF0B587B002AFF86078
:10599000B9607A60FE68BB68DA171C4615467A68FB
:1059A0006B4692E8030083E8030022462B4630460C
:1059B000FFF74FFE00BF1437BD46F0BD80B483B083
:1059C00000AF3B4683E803003B68002B0CBF01237C
:1059D0000023DBB218460C37BD465DF8047B7047E8
:1059E00080B483B000AF3B4683E803007B68002BA4
:1059F0000CBF01230023DBB218460C37BD465DF80F
:105A0000047B704780B582B000AF3B4683E803005B
:105A10003B4693E80300FFF7E3FF0346002B07D163
:105A20003B4693E80300FFF7C9FF0346002B01D074
:105A3000012300E0002318460837BD4680BD80B42E
:105A400083B000AF78607B689B7B18460C37BD46FF
:105A50005DF8047B704780B483B000AF78607B68EA
:105A60001B68002B0CBF01230023DBB218460C3748
:105A7000BD465DF8047B704780B584B000AFF86028
:105A8000C7E90023D7E90023F8682BF004FED7E923
:105A90000623F8682BF0FFFD00BF1037BD4680BD20
:105AA00080B584B000AFF8603B1D83E806003B1D65
:105AB0000CCB0221F8682BF01EFE00BF1037BD464C
:105AC00080BD80B584B000AFF860C7E90023D7E996
:105AD0000023F8682BF0DFFD07F1180393E80600B8
:105AE000F868FFF7DDFF00BF1037BD4680BD80B509
:105AF00082B000AF7860042178682BF044FE00BFCC
:105B00000837BD4680BD80B582B000AF7860002206
:105B1000042178682BF066FE00BF0837BD4680BDC3
:105B200080B582B000AF7860052178682BF02BFE3D
:105B300000BF0837BD4680BD80B582B000AF786039
:105B40000022052178682BF04DFE00BF0837BD46C6
:105B500080BD80B582B000AF7860022178682BF0FC
:105B600012FE00BF0837BD4680BD80B582B000AFD1
:105B7000786039603A68022178682BF033FE00BF04
:105B80000837BD4680BD80B582B000AF78607B68C5
:105B90001846FFF760FF034618460837BD4680BD2C
:105BA00080B582B000AF78607B681846FFF747FF8A
:105BB0000346002B02D07B6801221A747B681B7C91
:105BC00018460837BD4680BD80B582B000AF3B4661
:105BD00083E803003B4693E80300FFF7EFFE03462C
:105BE00018460837BD4680BD80B582B000AF3B4641
:105BF00083E803003B4693E80300FFF703FF0346F7
:105C000018460837BD4680BD82B080B588B000AF69
:105C1000F860381D80E80600FB62FB6813F1070F8F
:105C20000DD0FB6813F1230F07D0FB6813F1240F8D
:105C300001D1842304E0002302E0602300E040233C
:105C40003B613B69002B02D10123FB772BE03B6BCF
:105C50003A699A4202D90623FB7724E00023BB610C
:105C600015E03A69BB69D31A7B61BB687A699A42CD
:105C700001D9BB687B61FA6ABB69134479687A69A8
:105C8000184610F09BFFBB68BA691344BB61BA6940
:105C90003B699A42E5D3FA6A7B6B1A607B6B3A697F
:105CA0005A600023FB77FB7F18462037BD46BDE8CE
:105CB000804002B07047B0B5B4B002AFF860B960D0
:105CC000394681E80C0007F124003B4693E80600C2
:105CD0002BF029FC07F124031846FFF721FFBB68CE
:105CE000DA171C46154607F12401CDE900454FF0AF
:105CF00001024FF000030846FFF7BEFE07F1240340
:105D00001846FFF719FF07F1BC0207F124031146FB
:105D100018462BF0E0FD034687F8C73097F8C730E8
:105D2000002B08D107F11C0307F1BC0292E8030025
:105D300083E8030003E00023FB6100233B62FB6870
:105D40001A4607F11C0393E8030082E80300F86891
:105D5000C837BD46B0BD80B586B002AFF860381D0B
:105D600080E806003B603868FFF7DAFE3B1D93E8E9
:105D70000300FFF739FF0346002B0CD16A463B1D99
:105D800093E8030082E803004FF004024FF00003A1
:105D90003868FFF796FE3868FFF7CEFE00231846F6
:105DA0001037BD4680BD90B58DB000AFF860B960CA
:105DB000FB681B6A184600F0D6F9B862BB6A002B74
:105DC00001D1012368E0FB689B6B03F00203002B09
:105DD00006D14FF012024FF00003B8682BF0C3FC5D
:105DE000B868FFF784FEFB683B6218237B62FB68A0
:105DF000196AFC68384607F120030CCBFFF75BFFFC
:105E000004F118033A4692E8030083E80300FB68B4
:105E1000183393E80300FFF7D7FE0346002B03D0A7
:105E2000022387F82F3035E0FB68183393E806002B
:105E3000B868FFF735FEFA6807F118033C3292E8BC
:105E4000030083E80300FB689B6B03F00103002B56
:105E50000DD007F1180393E80300FFF7C5FE0346D2
:105E6000002B04D007F11803184600F069FABB684C
:105E700007F1180206CAF868FFF76DFF034687F8B6
